S0120000494F545F746573745F332E7372656375
S113000049C2000068C2000066C2000064C2000069
S113001062C2000060C200005EC200005CC2000058
S11300205AC2000058C2000056C2000054C2000068
S11300300C94460A50C200004EC200004CC200009C
S11300404AC2000048C2000046C2000044C2000088
S113005042C2000040C200003EC200003CC2000098
S11300603AC200000C945C250C94AE2534C2000006
S113007032C2000030C200002EC200002CC20000B8
S11300802AC2000028C2000026C2000024C20000C8
S11300900C94F2250C9444261EC200000C94DC2817
S11300A01AC2000018C2000016C2000014C20000E8
S11300B012C2000010C200000EC200000CC20000F8
S11300C00AC2000008C2000006C200000C94882680
S11300D00C94DA2600C200000C941E270C9470279E
S11300E0FAC10000C001C001C001FA0102021802F5
S11300F0C001C001FA010202FE286E296E296E2990
S11301006E296E296E296E29FE286E296E296E29A4
S11301106E296E296E296E2900296E296E296E2991
S11301206E296E296E296E296E296E296E296E2913
S11301306E296E296E296E2900296E296E296E2971
S11301406E296E296E296E296E296E296E296E29F3
S11301506E296E296E296E296A296E296E296E29E7
S11301606E296E296E296E2935296E296E296E290C
S11301706E296E296E296E296E296E296E296E29C3
S11301806E296E296E296E2929296E296E296E29F8
S11301906E296E296E296E294D2902ED17E10F2E65
S11301A0F2E0EF2EF8E1FF2EF02D8091D117882395
S11301B011F10FB6F8940F92D8011796ED91FC91B6
S11301C01897C085D185CE010296C5D78091C517F1
S11301D081508093C5178091D11781508093D11796
S11301E00F900FBE8B8D9C8D12D7CE0110D78091AE
S11301F0D1178111DECFF7018081823010F00E9487
S113020080090E94F91AD1CFCF93DF93CDB7DEB71F
S113021060970FB6F894DEBF0FBECDBFCE01019636
S11302209A878987812C912CA12CB12C69847A849A
S1130230E0913A18F0913B188081882309F410C1A9
S11302400780F085E02D20803180428053800E9419
S1130250E012CE0101960E94631A6B877C878D871A
S11302609E878981811165C08B859C85AD85BE85FE
S113027082159305A405B50508F444C00E94C9136A
S1130280E0913A18F0913B180780F085E02DA085A5
S1130290B185B88BAF87CD0102965DD7EF85F8891C
S11302A0878982FF21C04685578560897189420DFF
S11302B0531D641D751D720161010B851C852D85FF
S11302C03E85CF010E947219882399F0C82CD92C3D
S11302D0EA2CFB2C00E010E0A201910160E08F8584
S11302E098890E94051A05C08E7FAF85B8895796F4
S11302F08C93AF85B8895496ED91FC915597CD01B7
S113030019959FC020E0B201A1018B859C85AD8524
S1130310BE85481B590B6A0B7B0B80913618909154
S113032037180E94E40D0E94C91381118AC0E8D7CE
S113033088C00E94C91385C0898188230CF481C0B8
S11303404E805F80D2011C968D919C911D97892BC4
S113035019F0C2010296FFD6CE0108960E94631AD4
S11303608B019C01E9810E2E000CFF0BEA30F10594
S113037008F067C08827EE58FF4F8F4F0C94742BFA
S1130380F20187898160878BCA80DB80EC80FD80E5
S113039046855785608971894C0D5D1D6E1D7F1DD5
S11303A0C2010E947219882309F44BC0D2015496E9
S11303B0ED91FC915597C2011995F201878982FF4D
S11303C040C04A815B816C817D8186859785A08947
S11303D0B1899A01AB01280F391F4A1F5B1FC82C32
S11303E0D92CEA2CFB2C00E010E060E0C2010E9452
S11303F0051A27C0D20157968C9157978E7F57962E
S11304008C931FC0F20187898160878B4A815B814D
S11304106C817D8146875787608B718B400F511F9C
S1130420621F731F68017901C2010E94721909C019
S1130430F201878981FD03C0C201E9D502C08E7F24
S1130440878B282D392D4A2D5B2D662D772D809194
S11304503618909137180E947E0C81116DCFE8CE2A
S11304600E94E012CE0101960E94631A6B877C877A
S11304708D879E87898181115CCFE0913818F09136
S11304803918808121E0811120E0282C392C4A2C54
S11304905B2C39CF11241FBECFEFD1E2DEBFCDBF1D
S11304A000E00CBF17E0A0E0B2E0E4E7F0E600E013
S11304B00BBF02C007900D92AA38B107D9F72AE101
S11304C0AAE8B7E001C01D92A731B207E1F70E9484
S11304D01B1C0C94383094CD0F2EF4EFCF2EDD245A
S11304E0D394E12CF12CF02D01E021E041E050E027
S11304F060E070E08091B4199091B51929D360FF40
S1130500EBCF0E94D1238093B619882361F062E374
S113051070E080E090E00E94A3140E94D1238093B5
S1130520B6198111F4CF64E670E080E090E00E9497
S1130530A31444E050E060E070E08091B019909121
S1130540B119C6D3C9CFEF92FF920F9363E874E059
S113055083E00E94A323E12CF12C02E020E030E0B0
S113056048E851E06FE672E08CE692E00E94851163
S11305700F91FF90EF900895EF92FF920F93E12C6B
S1130580F12C082F20E030E048E851E06BE772E0FE
S11305908AE993E00E9485110F91FF90EF900895EE
S11305A0EF92FF921F93CF93DF930E94FD1F0E944F
S11305B07A229F938F9382E892E09F938F930E9475
S11305C01A2D0E947B210E947A229F938F9385E9A2
S11305D092E09F938F930E941A2D81EA97E00E94E4
S11305E00F200E947A22C1EAD7E0DF93CF939F9332
S11305F08F938EEA92E09F938F930E941A2DCE01DF
S11306000E942B200E947A229F938F93DF93CF9393
S113061082EC92E09F938F930E941A2DAE0167EDB6
S113062072E088EF92E00E9459220E947A229F93FE
S11306308F93DF93CF9387ED92E09F938F9388EF0F
S113064092E09F938F9389E093E09F938F930E940E
S11306501A2D0E945E200E947A229F938F938FE32B
S113066093E09F938F930E941A2D8DB79EB7829625
S11306700FB6F8949EBF0FBE8DBF81E00E94582133
S11306800E947A229F938F938EE493E09F938F939B
S11306900E941A2D84EF91E00E9463210E947A2225
S11306A09F938F9381E08F9384EF8F938FE693E0F2
S11306B09F938F930E941A2D8DB79EB70A960FB6FB
S11306C0F8949EBF0FBE8DBFC3E0D0E00F2EFFE8AD
S11306D0EF2EF3E0FF2EF02D80E00E946420182F0F
S11306E00E947A229F938F93DF93CF93FF92EF928E
S11306F00E941A2D0F900F900F900F900F900F9053
S1130700133079F0183079F080E00E94751E66E3AA
S113071071E080E090E00E94A3142197E9F680E064
S113072003C080E001C081E0DF91CF911F91FF9071
S1130730EF900895CF93DF9300D01F92CDB7DEB72B
S11307400F2EF0EBAF2EF3E0BF2EF02D81E00E94D0
S1130750E91F62E070E080E090E00E94A31480E072
S11307600E94E91F66E970E080E090E00E94A31413
S11307700E949F1F15DF8823E9F30E94E612698314
S11307807A838B839C8344E457E060E070E0CE017D
S113079001960E94451443E050E060E070E08091CF
S11307A0B4199091B51994D20F2EF4EFCF2EDD2405
S11307B0D394E12CF12CF02D01E021E040E150E054
S11307C060E070E08091B0199091B119C1D164FFDB
S11307D0DACF2FEF3FEFA9016BE877E08091BB19E7
S11307E09091BC190E947E0C813069F66BE877E029
S11307F080E00E948D2080938A070E947A229F9332
S11308008F93BF92AF920E941A2D0F900F900F906A
S11308100F9080918A07833009F0B5CF97CFCDEB45
S1130820D9E10F2EF6E0AF2EF02D6894BB24B1F879
S11308300F2EF4EFCF2EDD24D394E12CF12CF02DE8
S113084001E021E04CE050E060E070E08091B019FC
S11308509091B1197DD1DC01CB018C709927AA2725
S1130860BB270C97A105B10519F773D00E942B1C67
S1130870F62EE72EB4D00E942B1C162F072F30D053
S1130880A982B882EA82FB820C831D839E838F83B4
S113089000E02FEF3FEFA901BE018091BB199091B9
S11308A0BC1938D740E150E060E070E08091B019A5
S11308B09091B1190DD2BCCFEF92FF920F93E12C1E
S11308C0F12C02E020E030E042EF50E065EC73E010
S11308D08FE094E00E9485110F91FF90EF900895AE
S11308E080910708882351F062E370E080E090E093
S11308F00E94A314809107088111F6CF8091D71923
S11309009091D81908950F93CF93DF93EC0148EE9B
S113091053E060E070E08091B9199091BA190E9497
S1130920170D81E080930708D093D819C093D71985
S113093000E020E030E0A90160E070E08091B919A6
S11309409091BA19E7D610920708DF91CF910F91D1
S1130950089580910608882351F062E370E080E0F6
S113096090E00E94A314809106088111F6CF609153
S1130970D9197091DA198091DB199091DC190895D5
S1130980CF92DF92EF92FF920F936B017C0148EEBE
S113099053E060E070E08091AE199091AF190E942D
S11309A0170D81E080930608C092D919D092DA1904
S11309B0E092DB19F092DC1900E020E030E0A901BC
S11309C060E070E08091AE199091AF19A3D61092B7
S11309D006080F91FF90EF90DF90CF9008958091DB
S11309E00508882351F062E370E080E090E00E9403
S11309F0A314809105088111F6CF6091D3197091E9
S1130A00D4198091D5199091D6190895CF92DF9277
S1130A10EF92FF920F936B017C0148EE53E060E08C
S1130A2070E08091B7199091B8190E94170D81E078
S1130A3080930508C092D319D092D419E092D519A5
S1130A40F092D61900E020E030E0A90160E070E007
S1130A508091B7199091B8195DD6109205080F913D
S1130A60FF90EF90DF90CF90089582E090E016D24F
S1130A709093D8198093D7190895EF92FF920F930A
S1130A800E941824E12CF12C03E020E030E042EF36
S1130A9050E062ED73E088E595E00E9485110F91C6
S1130AA0FF90EF900895EDEDF9E110821182089521
S1130AB08091F3199091F419892B21F48DED93E031
S1130AC00E942D2D0FEF1FEF980146E150E06DEDD0
S1130AD079E18091F3199091F4190E944210809168
S1130AE0DD19833049F46091060261956093060232
S1130AF080E00E940024D7DF0E949F1FE3CFE7E03D
S1130B00F1E080818F6080830895E8E0F1E09081D6
S1130B10907F908390818F70982B90830895E8E064
S1130B20F1E08081807F80830895CF93DF9380E11B
S1130B3090E0B4D1EC01009739F0FC0111921192CC
S1130B4011921192CF0194D2CE01DF91CF910895E9
S1130B502F923F924F925F926F927F928F929F92C9
S1130B60AF92BF92CF92DF92EF92FF920F931F93B7
S1130B70CF93DF93EC014A015B01622E702E0E9439
S1130B80E012288039804A805B8001110DC081E029
S1130B90B201A101482159216A217B21452B462B11
S1130BA0472B79F480E00DC081E0B201A101482116
S1130BB059216A217B21481559056A057B0509F0ED
S1130BC080E0882381F0662009F46BC080949094BF
S1130BD0A094B09482209320A420B5208882998286
S1130BE0AA82BB825EC0C114D104E104F10409F4F9
S1130BF058C0662029F040E050E060E071E003C096
S1130C0040E050E0BA0171107460482959296A29FA
S1130C107B2997018601CE0104960E9452150E94F9
S1130C20C913811101C06CD30E94991791FD35C07D
S1130C300FB6F8940F92688179818A819B81711033
S1130C400DC021E075016401C622D722E822F922F1
S1130C50CD28CE28CF2879F420E00DC021E07501FD
S1130C606401C622D722E822F922C814D904EA046E
S1130C70FB0409F020E0222371F0662061F08094E7
S1130C809094A094B09486229722A822B9228882B4
S1130C909982AA82BB820F900FBE1B012C0155249E
S1130CA002C00E94C913C201B101DF91CF911F910B
S1130CB00F91FF90EF90DF90CF90BF90AF909F90F7
S1130CC08F907F906F905F904F903F902F900895FA
S1130CD04F925F926F927F928F929F92AF92BF9248
S1130CE0CF92DF92EF92FF920F931F93CF93DF93F4
S1130CF0EC016A017B018C01095F1F4F0E94E01225
S1130D00EB85FC8588819981AA81BB81C82AD92A6F
S1130D10EA2AFB2AC882D982EA82FB820E171F07BD
S1130D2009F445C0C12CD12C760199249394812CCB
S1130D30A480B58080819181A281B381AC01BD0181
S1130D407727B2FD0FC0488059806A807B80442297
S1130D50552266227722292D45284628472889F4DA
S1130D60282D0FC0488059806A807B8044225522F8
S1130D7066227722292D441655066606770609F061
S1130D80282D222371F0B0FF04C0C42AD52AE62AF4
S1130D90F72A488159816A817B817260CF010E9460
S1130DA0D815EA2DFB2D0E171F0711F603C0C12C11
S1130DB0D12C7601C094D094E094F09488819981E8
S1130DC0AA81BB81C822D922EA22FB22C882D98205
S1130DD0EA82FB820E94C913688179818A819B819E
S1130DE0DF91CF911F910F91FF90EF90DF90CF9003
S1130DF0BF90AF909F908F907F906F905F904F9037
S1130E000895CF93DF93DC01E0E1F8E001C0F9013C
S1130E10208131812A173B07D0F382819381AF016E
S1130E20480F591FA417B50749F412964D915C91C8
S1130E301397840F951F93838283DF0112968D91FC
S1130E409C911397ED01C80FD91F2C173D07D9F4B6
S1130E5020910E0830910F08C217D30781F02A8120
S1130E603B81820F931F13969C938E931297C0819C
S1130E70D1818881998111969C938E9307C0119694
S1130E80DC93CE9303C011963C932E93AE17BF0709
S1130E9011F0B183A083DF91CF910895CF92DF92B7
S1130EA0EF92FF920F931F93CF93DF93EC010E9475
S1130EB0E01280910E0890910F08892B41F5E0E132
S1130EC0F8E0A4E1B8E0B183A08313821282E0EBDE
S1130ED0F7E1F0930F08E0930E0813821282118257
S1130EE010828CE99FE013969C938E931297ED9356
S1130EF0FC9390930B0880930A0890930D088093B9
S1130F000C0880E090E89093090880930808E0902A
S1130F100808F0900908C7018C239D23892B09F048
S1130F2066C0209709F466C0AE014C5F5F4F09F4B8
S1130F305EC000910C0810910D080417150708F401
S1130F4056C0C0911008D0911108E0E1F8E002C049
S1130F50FE01E9012A813B812417350728F4288101
S1130F60398121153105A1F780910E0890910F0860
S1130F70C817D907E1F1C080D18084E0C80ED11C24
S1130F8088819981918380832A813B81241B350B3D
S1130F902930310548F0CE01840F951FFC013383BD
S1130FA022835B834A832DDF8A819B81081B190B73
S1130FB010930D0800930C0820910A0830910B0837
S1130FC00217130720F410930B0800930A08E82A69
S1130FD0F92AFB82EA82198218820E94C913C11479
S1130FE0D10459F40E94FA1AC12CD12C06C00E94D3
S1130FF0C913F8CF0E94C913F5CFC601DF91CF9171
S11310001F910F91FF90EF90DF90CF900895CF93B1
S1131010DF93009751F1FC01349722813381409191
S1131020080850910908B90164237523672BE9F076
S113103060817181672BC9F4EF0140955095242399
S11310403523338322830E94E01220910C083091CF
S11310500D088A819B81820F931F90930D088093C2
S11310600C08CE01CEDE0E94C913DF91CF91089502
S1131070FC010396928381834FEF5FEFBA014383B0
S113108054836583768390878783928781871082D0
S11310900895FC01138612860895CF93DF939C0173
S11310A0FB01DC011196CD91DC911297D583C483A9
S11310B08E819F81978386838E819F81DC01159623
S11310C07C936E9314977F836E8333872287F90111
S11310D080818F5F8083DF91CF9108950F931F9359
S11310E0CF93DF93EB01088119812A813B810F3F64
S11310F04FEF14072407340721F4FC01A185B285BE
S113110011C0DC01139601C0DF011496ED91FC912E
S11311101597408151816281738104171507260751
S1131120370790F71496ED91FC911597FD83EC83A6
S1131130D783C683BF83AE831596DC93CE9314976F
S11311409B878A87FC0120812F5F2083DF91CF91C9
S11311501F910F910895CF93DF93FC01A285B3856E
S1131160C481D581868197819F838E83C681D781EF
S1131170848195819D838C8311968D919C91129786
S1131180E817F90731F48681978112969C938E9320
S11311901197138612868C9181508C938C91DF91D8
S11311A0CF91089531E1FC013083319722E220830D
S11311B03197A3E3A083319760833197708331978C
S11311C0108231971082319760E8608331971082E2
S11311D03197108231971082319762E060833197A2
S11311E063E06083319764E06083319765E06083F6
S11311F0319766E06083319767E06083319768E0F8
S11312006083319769E06083319760E1608331974F
S11312103083319732E13083319733E13083319732
S113122034E13083319735E13083319736E13083CF
S1131230319737E13083319738E13083319739E1A1
S11312403083319730E23083319731E23083319704
S11312502083319723E22083319740833197508351
S1131260319726E22083319727E22083319728E2C1
S11312702083319729E22083319720E3208331971B
S113128021E3208389970895A89590EC88E10FB60F
S1131290F894A895809360000FBE90936000A0918D
S11312A02E18B0912F18CD91CDBFDD91DEBFFF91E7
S11312B0EF91DF91CF91BF91AF919F918F917F91EA
S11312C06F915F914F913F912F911F910F91FF90DB
S11312D0EF90DF90CF90BF90AF909F908F907F90D2
S11312E06F905F904F903F902F901F900F900CBE87
S11312F00F900BBE0F900FBE0F90089581E00895DC
S11313000F920FB6F8940F920BB60F920CB60F9281
S11313101F9211242F923F924F925F926F927F926D
S11313208F929F92AF92BF92CF92DF92EF92FF92F1
S11313300F931F932F933F934F935F936F937F93D9
S11313408F939F93AF93BF93CF93DF93EF93FF93C9
S1131350A0912E18B0912F180DB60D920EB60D92C5
S11313600E94BC14A0912E18B0912F18CD91CDBF1E
S1131370DD91DEBFFF91EF91DF91CF91BF91AF91EE
S11313809F918F917F916F915F914F913F912F9199
S11313901F910F91FF90EF90DF90CF90BF90AF908F
S11313A09F908F907F906F905F904F903F902F9081
S11313B01F900F900CBE0F900BBE0F900FBE0F909E
S11313C008950F920FB6F8940F920BB60F920CB6C5
S11313D00F921F9211242F923F924F925F926F921D
S11313E07F928F929F92AF92BF92CF92DF92EF92B1
S11313F0FF920F931F932F933F934F935F936F939A
S11314007F938F939F93AF93BF93CF93DF93EF9388
S1131410FF93A0912E18B0912F180DB60D920EB611
S11314200D9213BE0E94F41281110E94BC14A0916B
S11314302E18B0912F18CD91CDBFDD91DEBFFF9155
S1131440EF91DF91CF91BF91AF919F918F917F9158
S11314506F915F914F913F912F911F910F91FF9049
S1131460EF90DF90CF90BF90AF909F908F907F9040
S11314706F905F904F903F902F901F900F900CBEF5
S11314800F900BBE0F900FBE0F9008959ADF189522
S11314900FB6F8940F92FC01968D0F900FBE81E069
S11314A0911180E008950F931F93CF93DF93EC0184
S11314B0042F1E8D48A141110CC088819981892B6C
S11314C009F042C08C819D810E940D171D821C82EF
S11314D042C0011117C050E08A819B810E94BB2C3D
S11314E028A18A819B81820F911D9B838A832C81F1
S11314F03D818217930750F1888199819B838A8368
S113150080E029C050E08E819F810E94BB2C88A17D
S113151090E09195819591092E813F81280F391F83
S11315203F832E83488159812417350730F42C8159
S11315303D81820F931F9F838E83023049F41123D0
S113154049F0115080E007C080E005C080E003C08E
S113155080E001C080E01F5F1E8FDF91CF911F915B
S11315600F910895FC0140A14423A9F050E0268185
S11315703781240F351F378326838481958128176B
S1131580390720F08081918197838683CB0166811E
S113159077810C94BB2C0895EF92FF920F931F93C5
S11315A0CF938C010FB6F8940F92FC01C2A11C16C4
S11315B0ACF48389811106C011C0F80183898111BB
S11315C005C00CC07801F3E1EF0EF11CC7010E94C5
S11315D0961581110E948816C15079F78FEFF80192
S11315E082A30F900FBE0FB6F8940F92C1A11C16E0
S11315F0ACF48085811106C011C0F8018085811189
S113160005C00CC07801F8E0EF0EF11CC7010E9480
S1131610961581110E948816C15079F78FEFF80151
S113162081A30F900FBECF911F910F91FF90EF9068
S11316300895CF93DF93EC010FB6F8940F92E881ED
S1131640F9818F8D28A190E030E0829FA001839FD3
S1131650500D929F500D11244E0F5F1F5D834C83DC
S11316601E8EFB83EA830197829FA001839F500D06
S1131670929F500D1124CF01840F951F9F838E8359
S11316808FEF89A38AA361110BC08885882371F029
S1131690CE0108960E949615882341F031DE06C0DB
S11316A0CE010896E5DCCE014396E2DC0F900FBE36
S11316B081E0DF91CF910895FF920F931F93CF9311
S11316C0DF93082F162FF42E6623B9F0869FC001EE
S11316D011248596E3DBEC01009741F414C00F8FCD
S11316E018A361E0CE01A5DFFCA20DC08596998305
S11316F08883F5CFD983C883F2CF85E290E0CEDB2F
S1131700EC01892BB9F7CE01DF91CF911F910F9195
S1131710FF9008959F92AF92BF92CF92DF92EF9283
S1131720FF920F931F93CF93DF93CDB7DEB7299723
S11317300FB6F894DEBF0FBECDBF7C015B012E83D4
S11317403F834887598710E0992493946C0188E07B
S1131750C80ED11C0FB6F8940F92F701968D878DA1
S1131760981710F00230B1F4402FB501C7019BDE89
S1131770F7019389992341F0C70143960E94961576
S1131780882321F0BDDD02C08111BADD0F900FBEA8
S113179081E04EC08E819F81A885B985892B8A2BD3
S11317A08B2B21F40F900FBE80E042C0111105C0B5
S11317B0CE0101960E942216192D0F900FBE00D75C
S11317C00FB6F8940F92F70181A18F3F09F411A28B
S11317D0F70182A18F3F09F412A20F900FBEBE0140
S11317E06A5F7F4FCE0101960E94331681111CC09F
S11317F00FB6F8940F92F701968D878D0F900FBE58
S113180098130EC04E815F8168857985C6010E9458
S11318103B15C701C1DEBDD781119CCF71DD9ACFC5
S1131820C701BADEB6D796CFC701B6DEB2D780E01D
S113183029960FB6F894DEBF0FBECDBFDF91CF91CE
S11318401F910F91FF90EF90DF90CF90BF90AF90DA
S11318509F9008950F93CF93DF93482F60E081E02A
S11318602BDFEC01009761F01D821C821982188223
S11318701E8200E020E030E0A90160E070E04ADF71
S1131880CE01DF91CF910F910895EF92FF920F93C4
S11318901F93CF93DF938A01FC01568D378D531725
S11318A010F02230E9F4422F7801EC011AA1FBDD9B
S11318B01F3F81F48B898823A9F0CE0143960E94AF
S11318C09615882389F0E114F10481F081E0F70191
S11318D080830DC0FF24F394F10EFAA281E007C0C7
S11318E080E005C081E003C081E001C081E0DF91B8
S11318F0CF911F910F91FF90EF9008959F92AF9217
S1131900BF92CF92DF92EF92FF920F931F93CF93E8
S1131910DF93CDB7DEB729970FB6F894DEBF0FBEBD
S1131920CDBF8C015B012E833F8348875987E12C0F
S1131930992493946C0183E1C80ED11C0FB6F894DA
S11319400F92F801F68CFF2099F0B501C8010ADE68
S1131950FA94F801F68E8085882331F0C801089640
S11319600E9496158111CCDC0F900FBE81E04DC012
S11319708E819F81A885B985892B8A2B8B2B21F495
S11319800F900FBE80E041C0E11005C0CE0101966A
S11319900E942216E92C0F900FBE12D60FB6F894AF
S11319A00F92F80181A18F3F09F411A2F80182A1DD
S11319B08F3F09F412A20F900FBEBE016A5F7F4FE2
S11319C0CE0101960E943316811116C0C80160DD54
S11319D0882371F04E815F8168857985C6010E94F4
S11319E03B15C801D9DDD5D68111A8CF89DCA6CF96
S11319F0C801D2DDCED6A2CFC801CEDDCAD6C80179
S1131A0047DD882309F49ACF80E029960FB6F8942D
S1131A10DEBF0FBECDBFDF91CF911F910F91FF901D
S1131A20EF90DF90CF90BF90AF909F900895BF92BA
S1131A30CF92DF92EF92FF920F931F93CF93DF9396
S1131A40CDB7DEB729970FB6F894DEBF0FBECDBF72
S1131A508C014E835F8368877987B12CD12CCC2489
S1131A60C3947C0183E1E80EF11C0FB6F8940F9245
S1131A70D8015E968C915E978823E1F081505E9642
S1131A808C935E978D919C91892B29F40E94C117A8
S1131A90F80195838483D80118968C91882331F0BA
S1131AA0C80108960E94961581112ADC0F900FBE7A
S1131AB081E07AC08E819F81A885B985892B8A2B84
S1131AC08B2B21F40F900FBE80E06EC0D11005C0A7
S1131AD0CE0101960E942216DC2C0F900FBE70D509
S1131AE00FB6F8940F92F80181A18F3F09F411A267
S1131AF0D80192968C9192978F3F11F492961C92F2
S1131B000F900FBEBE016A5F7F4FCE0101960E9407
S1131B103316811124C0C801BBDC8823E1F0F8012D
S1131B2080819181892B51F40FB6F8940F928481AE
S1131B3095810E949F16B82E0F900FBE4E815F8133
S1131B4068857985C70197D7C80126DD22D681111A
S1131B508CCFD6DB8ACFC8011FDD1BD686CFC80148
S1131B601BDD17D6C80194DC882309F47ECFBB2083
S1131B70D1F00FB6F8940F92F8018389882339F0D5
S1131B80028CF38DE02D808164E0681B01C060E06D
S1131B90D80114968D919C9115970E944D170F9022
S1131BA00FBE80E001C080E029960FB6F894DEBF36
S1131BB00FBECDBFDF91CF911F910F91FF90EF909A
S1131BC0DF90CF90BF900895CF93DF93EC010FB6D1
S1131BD0F8940F9289A18F3F09F419A28AA18F3F2B
S1131BE009F41AA20F900FBE8E8D811103C0CE018D
S1131BF043967CD7CE01D0DCDF91CF910895FC01D0
S1131C004481558122813381240F351F8081918144
S1131C10B901681B790BCB016417750710F0841B9D
S1131C20950B0895AF92BF92CF92DF92EF92FF92FD
S1131C300F931F93CF93DF936C015B017A01FC0137
S1131C40C281D381048115810C1B1D0B40175107E0
S1131C5008F48A01F60184859585A801B5018C0FE5
S1131C609D1F0E94BB2C0E151F0558F4A701401B95
S1131C70510BB501600F711FF601848595850E9493
S1131C80BB2CCE018E0D9F1DF60124813581821758
S1131C90930710F0821B930BF60193838283C70191
S1131CA0DF91CF911F910F91FF90EF90DF90CF9034
S1131CB0BF90AF900895CF92DF92EF92FF920F936F
S1131CC01F93CF93DF931F921F92CDB7DEB75A8332
S1131CD0498321153105C9F06B017C01FC0186851E
S1131CE080FD08C0CA012417350708F4C9019A8386
S1131CF0898311C02017310758F042E050E0BE013B
S1131D006F5F7F4FC7018EDF06C080E090E008C0A0
S1131D1080E090E005C049815A81B601C70182DFA5
S1131D200F900F90DF91CF911F910F91FF90EF9043
S1131D30DF90CF900895AF92BF92CF92DF92EF924F
S1131D40FF920F931F93CF93DF937C015B01E90113
S1131D504217530708F4EA01209779F1F70100814B
S1131D601181C480D580C01AD10ACC15DD0508F4D0
S1131D706E01F70164857585600F711FA601C501A9
S1131D800E94BB2CCC16DD0658F4AE014C195D093B
S1131D90F70164857585C5018C0D9D1D0E94BB2CC2
S1131DA00C0F1D1FF701848195810817190710F086
S1131DB0081B190BF70111830083CE01DF91CF912A
S1131DC01F910F91FF90EF90DF90CF90BF90AF9055
S1131DD00895EF92FF921F93CF93DF93EB0111E0ED
S1131DE0413009F010E0209711F4C1E0D0E07C010B
S1131DF02FEFE21AF20A419651D8009781F020E1C0
S1131E00FC0111922A95E9F79C01205F3F4FFC01E8
S1131E1035872487F582E482D783C6831687DF91CA
S1131E20CF911F91FF90EF900895CF93DF93FC0122
S1131E3027850FB6F8940F9280859185892BD1F46C
S1131E4082859385892BC1F4868546815781648177
S1131E507581A485B58590E1EF0119929A95E9F70A
S1131E60B587A487758364835783468386872787CA
S1131E7081E003C080E001C080E00F900FBEDF91DD
S1131E80CF910895FC012481358180819181428123
S1131E905381820F931F0197841B950B821793071D
S1131EA010F0821B930B08952F923F924F925F92F2
S1131EB06F927F928F929F92AF92BF92CF92DF9256
S1131EC0EF92FF920F931F93CF93DF93CDB7DEB7BB
S1131ED029970FB6F894DEBF0FBECDBF5C011B017E
S1131EE02A010E831F8328873987FC01868580FF9A
S1131EF005C03A01F2E06F0E711C01C03A018E81F7
S1131F009F81A885B985892B8A2B8B2B09F435C031
S1131F10CE01019681D60FB6F8940F92C501B2DFB7
S1131F204C018615970520F580E090E00E945E192B
S1131F30F3D6F501938782870F900FBECE80DF80A2
S1131F40E884F98400E010E020E030E0A90160E0DA
S1131F5070E0CB010E94D317F50113861286BE01EF
S1131F606A5F7F4FCE0101967ED68823A1F202C01C
S1131F700F900FBE8114910419F4C50183DF4C0145
S1131F8083019401A201B101C50195DE7C01892B75
S1131F90E1F0C50134DEF50126813781821793070C
S1131FA0A0F00ED3F50180859185892B69F0808599
S1131FB0918500E010E020E040E050E0BA010E948A
S1131FC05D18F50111861086E4D3C70129960FB672
S1131FD0F894DEBF0FBECDBFDF91CF911F910F915B
S1131FE0FF90EF90DF90CF90BF90AF909F908F9035
S1131FF07F906F905F904F903F902F900895AF9295
S1132000BF92CF92DF92EF92FF920F931F93CF93E1
S1132010DF93EC015B016A0179018E8580FF04C0C6
S11320208A010E5F1F4F01C08A01CE012BDF9C0184
S1132030A601B501CE013FDE6C01892BB9F0CE01BA
S1132040DEDD2E813F818217930780F08885998594
S1132050892B61F08885998500E010E020E040E05C
S113206050E0BA010E94D51819861886C601DF917E
S1132070CF911F910F91FF90EF90DF90CF90BF9081
S1132080AF9008954F925F926F927F928F929F923A
S1132090AF92BF92CF92DF92EF92FF920F931F9372
S11320A0CF93DF931F921F92CDB7DEB75C012B0154
S11320B03A0168017901FC01868580FD03C0812C09
S11320C0912C04C06894882481F8912CC114D10403
S11320D0E104F10431F10FB6F8940F92C5018FDDDC
S11320E08C018816990640F080E090E00E945E1909
S11320F013D6F501918780870F900FBE8016910645
S1132100B0F000E010E020E030E0A90160E070E011
S1132110CB0149D7F50111861086C50170DD8C010C
S113212003C0C5016CDD8C0180169106B8F58114DD
S11321309104C1F0F501E080F1809801A401BE0191
S11321406F5F7F4FC501F7DD89819A8108191909ED
S11321506816790630F4F501F182E082612C712C65
S113216001C03C019801A301B201C501E4DD7C0179
S1132170892BB1F025D2F50182859385892B61F0F5
S11321808285938500E010E020E040E050E0BA0151
S113219094D7F50113861286FCD202C0E12CF12CEF
S11321A0C7010F900F90DF91CF911F910F91FF9076
S11321B0EF90DF90CF90BF90AF909F908F907F90E3
S11321C06F905F904F900895E091EA17F091EB17AC
S11321D0808181110CC08FEF9FEFDC018093B717D2
S11321E09093B817A093B917B093BA170895E091D4
S11321F0EA17F091EB170780F085E02D0084F18554
S1132200E02D82819381A481B5818093B717909347
S1132210B817A093B917B093BA1708958F929F92E5
S1132220AF92BF92CF92DF92EF92FF92CF936B0166
S11322307C01C42F8090C1179090C217A090C3173F
S1132240B090C41780912E1890912F1802960E9476
S1132250AB088FEFC816D806E806F80669F4CC2355
S113226059F060912E1870912F186E5F7F4F86EC95
S113227097E10E944D083FC0C80CD91CEA1CFB1C06
S1132280E0912E18F0912F18C282D382E482F58255
S1132290C814D904EA04FB0468F460912E18709100
S11322A02F188091E8179091E9176E5F7F4F0E9475
S11322B06E0821C060912E1870912F188091EA1732
S11322C09091EB176E5F7F4F0E946E088091B71755
S11322D09091B817A091B917B091BA17C816D9063A
S11322E0EA06FB0640F4C092B717D092B817E09202
S11322F0B917F092BA17CF91FF90EF90DF90CF907B
S1132300BF90AF909F908F9008954F925F926F927D
S11323107F928F929F92AF92BF92CF92DF92EF9271
S1132320FF920F93CF93DF934C016B015A01290164
S1132330CA010E944E073C01892B09F4F4C080E3D2
S113234090E00E944E07EC01892B99F07C8E6B8EF5
S1132350A50165EA70E0C3010E94C42C21E0A21A21
S1132360B1088B8D9C8DA80EB91EC114D10429F41B
S113237020C0C3010E940708D6C0D6018C918D8F5E
S11323808C918823A1F0AE01425E5F4FF601319635
S1132390B8E0CB0ED11CCF012191DA012D93AD0110
S11323A0DC018C91882319F0EC15FD05A1F71CA222
S11323B001C01D8E043008F003E00A8F0FA318A695
S11323C06E01B2E0CB0ED11CC6010E944908CE01B9
S11323D00E960E944908DB87CA8784E090E0A0E05B
S11323E0B0E0801B9109A109B1098E879F87A88B52
S11323F0B98BDF8BCE8B1AA619A61BA61CA61DA60D
S11324001EA61FA6A201B401C5010E94D208998389
S11324108883E114F10419F0F701D183C0830FB666
S1132420F8940F928091C5178F5F8093C5178091A0
S11324302E1890912F18892BD1F5D0932F18C09373
S11324402E188091C517813009F041C082E098E1CF
S11324500E9438088DE098E10E94380888E198E1EC
S11324600E94380883E298E10E94380887EF97E1D8
S11324700E9438088CEE97E10E9438088DED97E1B0
S11324800E94380882ED97E10E94380886EC97E1B3
S11324900E94380887EF97E19093EB178093EA172F
S11324A08CEE97E19093E9178093E81710C0809120
S11324B0BF1781110CC0E0912E18F0912F18928D46
S11324C08A8D891720F0D0932F18C0932E188091ED
S11324D0BB178F5F8093BB178DA38A8D9091C01714
S11324E0981710F48093C017FBE08F9FC00111244C
S11324F0B6018E5F974E0E944D080F900FBE8091DB
S1132500BF17882361F0E0912E18F0912F18928D57
S11325108A8D981730F40E94800981E005C081E01B
S113252003C081E001C08FEFDF91CF910F91FF9045
S1132530EF90DF90CF90BF90AF909F908F907F905F
S11325406F905F904F900895EF92FF920F930F2E2C
S1132550F5EBEF2EF7E1FF2EF02D00E020E030E068
S113256040EC50E065EF73E08DEC90E0CEDE81301E
S113257019F52AD7813001F5F8948FEF9FEFDC012C
S11325808093B7179093B817A093B917B093BA175D
S113259081E08093BF171092C1171092C217109256
S11325A0C3171092C417E0912E18F0912F1881A52B
S11325B00E9485050E9444090F91FF90EF900895B1
S11325C08091B4178F5F8093B41708950FB6F89471
S11325D00F926091C1177091C2178091C3179091A7
S11325E0C4170F900FBE08959F92AF92BF92CF92DF
S11325F0DF92EF92FF920F931F93CF93DF9380911B
S1132600B4178111ADC0C090C117D090C217E0902B
S1132610C317F090C4178FEFC81AD80AE80AF80A4B
S1132620C092C117D092C217E092C317F092C41798
S1132630C114D104E104F104B1F48091EA1790913A
S1132640EB172091E8173091E9173093EB1720939B
S1132650EA179093E9178093E8178091BC178F5F6E
S11326608093BC17B1DD8091B7179091B817A091F2
S1132670B917B091BA17C816D906EA06FB0610F4C2
S1132680B12C5DC0B12C0F2EFBE0AF2EF02D9924A0
S11326909394E091EA17F091EB17808181110CC0BB
S11326A08FEF9FEFDC018093B7179093B817A09337
S11326B0B917B093BA1743C0E091EA17F091EB173A
S11326C00780F085E02DC085D1858A819B81AC810E
S11326D0BD81C816D906EA06FB0648F48093B717ED
S11326E09093B817A093B917B093BA1728C08E0166
S11326F00E5F1F4FC8010E94AB08888D998D892BEE
S113270021F0CE010E960E94AB088A8D9091C017DD
S1132710981710F48093C017A89EC0011124B80123
S11327208E5F974E0E944D08E0912E18F0912F185D
S11327309A8D828D981708F4ACCFB92CAACFE0916A
S11327402E18F0912F18E28D8BE0E89FF0011124F0
S1132750EE5FF74E8081823048F0BB24B39406C00C
S11327608091BE178F5F8093BE17B12C8091BD17E7
S1132770882311F0BB24B3948B2DDF91CF911F914B
S11327800F91FF90EF90DF90CF90BF90AF909F900C
S11327900895CF92DF92EF92FF920F931F93CF93FE
S11327A0DF930FB6F8940F928091B4178150809301
S11327B0B4178091B41781115AC08091C517811143
S11327C02CC058C0D7011796ED91FC911897C0857D
S11327D0D185CE010E960E94AB088E010E5F1F4F6D
S11327E0C8010E94AB088A8D9091C017981710F405
S11327F08093C017D89EC0011124B8018E5F974EF4
S11328000E944D08E0912E18F0912F189A8D828D18
S1132810981788F0C092BD170EC0C0E0D0E00F2E0C
S1132820FDEDEF2EF7E1FF2EF02D0F2EFBE0DF2E56
S1132830F02DCC24C394F70180818111C3CFCD2B1B
S113284009F0C2DCC091BE17CC2349F0D1E0CCDE44
S11328508111D093BD17C150D1F71092BE1780914A
S1132860BD17882331F00E94800981E003C080E015
S113287001C080E00F900FBEDF91CF911F910F91A7
S1132880FF90EF90DF90CF900895CF92DF92EF9278
S1132890FF920F931F93CF93DF93EC016A017B01A7
S11328A08FDE0091C1171091C2172091C317309188
S11328B0C41788819981AA81BB81AC01BD014C0DEB
S11328C05D1D6E1D7F1D081719072A073B0778F445
S11328D0481759076A077B0740F5488359836A8379
S11328E07B830417150726073707A0F40BC0481786
S11328F059076A077B07A0F004171507260737074F
S113290078F013C0CB01BA01601B710B820B930BDF
S113291040E084DC3EDF81110DC00E9480090AC0C2
S1132920488359836A837B83EDCF488359836A83C1
S11329307B83F0CFDF91CF911F910F91FF90EF90A8
S1132940DF90CF900895CF92DF92EF92FF926B01C8
S11329507C01672B682B692B41F032DE40E0C70114
S1132960B6015CDC16DF811102C00E948009FF9071
S1132970EF90DF90CF9008958091B417882321F0D1
S113298081E08093BD1708951092BD17E0912E1831
S1132990F0912F1881A50E948F05A0912E18B09157
S11329A02F18E0912E18F0912F182D913C91838DC2
S11329B0948D8217930758F060912E1870912F18F8
S11329C080912E1890912F18635E7F4F20D68091AE
S11329D0C017282F30E09BE0899FF0011124EE5F9F
S11329E0F74E908191110EC04BE08150282F30E0BA
S11329F0429FF001439FF00D1124EE5FF74E90814A
S1132A00992399F39BE0929FA001939F500D112469
S1132A10DA01AE5FB74E1196ED91FC9112970480E6
S1132A20F581E02D1296FC93EE9311974B5F574E70
S1132A30E417F50729F444815581FD01528341834C
S1132A409BE0929FF001939FF00D1124EE5FF74EEF
S1132A500180F281E02D2085318530932F18209359
S1132A602E188093C017E0912E18F0912F1881A58D
S1132A700C9485050895CF92DF92EF92FF926A013C
S1132A807B0160912E1870912F18625F7F4F0E9416
S1132A906E0841E0C701B601C1DBFF90EF90DF9003
S1132AA0CF900895CF92DF92EF92FF920F931F93EE
S1132AB068017901E0912E18F0912F18706846870B
S1132AC05787608B718B60912E1870912F18625FFD
S1132AD07F4F0E944D0841E0C701B6019FDB1F9163
S1132AE00F91FF90EF90DF90CF900895CF92DF92F7
S1132AF0EF92FF92CF936A017B01C22F60912E184F
S1132B0070912F18625F7F4F0E944D08CC2321F0F3
S1132B10CC24CA94DC2C76014C2FC701B6017EDB91
S1132B20CF91FF90EF90DF90CF9008950F931F9374
S1132B30CF93DF93DC011796ED91FC911897C08534
S1132B40D1858E01025F1F4FC8010E94AB0880919E
S1132B50B417811116C00C501109C8010E94AB08AA
S1132B608A8D9091C017981710F48093C017BBE01A
S1132B708B9FC0011124B8018E5F974E0E944D08AF
S1132B8005C0B8018DED97E10E944D08E0912E1823
S1132B90F0912F189A8D828D891720F481E080930B
S1132BA0BD1701C080E0DF91CF911F910F9108956F
S1132BB00F931F93CF93DF937068FC01408351837D
S1132BC062837383C085D1850E94AB088E010E5F3A
S1132BD01F4FC8010E94AB088A8D9091C0179817A7
S1132BE010F48093C017FBE08F9FC0011124B8013B
S1132BF08E5F974E0E944D08E0912E18F0912F1889
S1132C009A8D828D891718F481E08093BD17DF9126
S1132C10CF911F910F9108950FB6F8940F922091C0
S1132C20BC17FC0120834091C1175091C2176091D9
S1132C30C3177091C41741835283638374830F90C5
S1132C400FBE08952091BC17FC0120834091C11749
S1132C505091C2176091C3177091C4174183528376
S1132C60638374830895CF92DF92EF92FF920F9360
S1132C701F93CF93DF93FB010FB6F8940F9240910B
S1132C80C1175091C2176091C3177091C417008186
S1132C901181228133810F3FAFEF1A072A073A07C8
S1132CA049F1EC01C980DA80EB80FC80A091BC176B
S1132CB0B881BA1729F04C155D056E057F05E0F45F
S1132CC04C195D096E097F094017510762077307A4
S1132CD058F4041B150B260B370B00831183228336
S1132CE03383B0DF80E009C0108211821282138224
S1132CF081E003C080E001C081E00F900FBEDF914E
S1132D00CF911F910F91FF90EF90DF90CF90089596
S1132D1081E08093BD17089580912E1890912F180B
S1132D2008958091BF17882331F08091B4178823C8
S1132D3021F080E0089581E0089582E008950F93E2
S1132D401F93CF93DF93FC01892B09F460C0828D1C
S1132D50A0912E18B0912F185A969C91891708F0BB
S1132D604AC04685578560897189772394F0A0917C
S1132D702E18B0912F185A969C9144E050E060E0D0
S1132D8070E0491B51096109710946875787608BB7
S1132D90718B2BE0829FC00111248E5F974E248596
S1132DA0358528173907F1F48F01EF012296CE01FA
S1132DB00E94AB08E0912E18F0912F18828DF80133
S1132DC0828F9091C017981710F48093C017FBE07E
S1132DD08F9FC0011124BE018E5F974E0E944D0843
S1132DE081E016C0A0912E18B0912F185A968C919C
S1132DF0828F81E00DC0A0912E18B0912F1881E030
S1132E0027A15A969C91291718F080E001C080E010
S1132E10DF91CF911F910F9108950F931F93CF933B
S1132E20DF93FC01892B79F180A5815080A7228D45
S1132E3097A1291751F181112AC0EF018F010E5F6B
S1132E401F4FC8010E94AB088FA18A8F44E050E055
S1132E5060E070E0481B5109610971094E875F8782
S1132E60688B798B9091C017981710F48093C017D2
S1132E702BE0829FC0011124B8018E5F974E0E94FF
S1132E804D0881E005C080E003C080E001C080E01F
S1132E90DF91CF911F910F9108950F931F93CF93BB
S1132EA0DF93FC01892B09F43FC087A1861708F43E
S1132EB0862F928D9817C1F120A52130A9F5828F14
S1132EC04685578560897189772364F044E050E032
S1132ED060E070E0481B5109610971094687578712
S1132EE0608B718B2BE0929FC00111248E5F974EF3
S1132EF02485358528173907B9F4EF018F010E5F52
S1132F001F4FC8010E94AB088A8D9091C017981773
S1132F1010F48093C0172BE0829FC0011124B801E4
S1132F208E5F974E0E944D08DF91CF911F910F91B4
S1132F300895CF92DF92EF92FF92E0912E18F091D4
S1132F402F186685778580899189E0912E18F091F4
S1132F502F18A0912E18B0912F185A962C91C12C8D
S1132F60D12C76016894C2F8C21AD108E108F1089C
S1132F70C686D786E08AF18AFF90EF90DF90CF90E3
S1132F80089580912E1890912F18892B39F0E09193
S1132F902E18F0912F1880A58F5F80A780912E188E
S1132FA090912F1808954F925F926F927F928F9213
S1132FB09F92AF92BF92CF92DF92EF92FF920F93C4
S1132FC01F9349015A010FB6F8940F92E0912E18FD
S1132FD0F0912F1827A5223039F1E0912E18F091A5
S1132FE02F1843A454A465A476A4DC01CB018095D6
S1132FF09095A095B09584219521A621B72183A70A
S113300094A7A5A7B6A7E0912E18F0912F1881E0F8
S113301087A7C114D104E104F10431F041E0C701F0
S1133020B601FCD80E9480090F900FBE0FB6F89429
S11330300F920115110569F0E0912E18F0912F18E7
S113304083A594A5A5A5B6A5F80180839183A28341
S1133050B383E0912E18F0912F1887A58230B1F434
S1133060E0912E18F0912F1883A594A5A5A5B6A5D7
S113307080949094A094B09488229922AA22BB228E
S113308083A694A6A5A6B6A681E001C080E0E0913F
S11330902E18F0912F1817A60F900FBE1F910F91A5
S11330A0FF90EF90DF90CF90BF90AF909F908F9064
S11330B07F906F905F904F9008950F931F93CF93DD
S11330C0DF93FC010FB6F8940F920115110549F036
S11330D083A594A5A5A5B6A5E80188839983AA83A9
S11330E0BB8387A592E097A72230B1F018F4213072
S11330F031F02AC02330E9F0243001F125C003A5C2
S113310014A525A536A5402B512B622B732B43A761
S113311054A765A776A718C043A554A565A576A5A9
S11331204F5F5F4F6F4F7F4F43A754A765A776A7A5
S11331300BC043A754A765A776A706C0823049F100
S113314043A754A765A776A7813029F5EF018F011E
S11331500E5F1F4FC8010E94AB088A8D9091C01763
S1133160981710F48093C0172BE0829FC00111249C
S1133170B8018E5F974E0E944D08E0912E18F09191
S11331802F189A8D828D891740F40E94800981E05E
S113319005C080E003C081E001C081E00F900FBE54
S11331A0DF91CF911F910F910895EF92FF920F93AA
S11331B01F93CF93DF93FC010115110549F083A5FB
S11331C094A5A5A5B6A5E80188839983AA83BB83A2
S11331D087A592E097A72230B1F018F4213031F09E
S11331E02AC02330E9F0243001F125C003A514A539
S11331F025A536A5402B512B622B732B43A754A72F
S113320065A776A718C043A554A565A576A54F5F05
S11332105F4F6F4F7F4F43A754A765A776A70BC097
S113322043A754A765A776A706C08230D9F143A760
S113323054A765A776A78130B9F5EF018091B4173B
S1133240811117C08F010E5F1F4FC8010E94AB0888
S11332508A8D9091C017981710F48093C017EBE0F3
S11332608E9FC0011124B8018E5F974E0E944D08B5
S113327007C0BF01625F7F4F8DED97E10E944D084B
S1133280E0912E18F0912F189A8D828D891770F481
S1133290E114F10419F081E0E701888381E080936F
S11332A0BD1705C080E003C081E001C081E0DF916B
S11332B0CF911F910F91FF90EF900895009721F403
S11332C080912E1890912F180FB6F8940F92FC014C
S11332D027A5223019F417A681E001C080E00F90E1
S11332E00FBE0895CF92DF92EF92FF920F931F9338
S11332F0FC01428353836483758393878287041715
S1133300150726073707C0F00C191D092E093F09B8
S113331086859785A089B189081719072A073B076D
S113332000F5BF016E5F7F4F809138189091391876
S11333300E946E0880E018C00C151D052E053F057F
S113334028F44C155D056E057F0568F4BF016E5FBA
S11333507F4F80913A1890913B180E946E0880E04C
S113336003C081E001C081E01F910F91FF90EF90B5
S1133370DF90CF9008950FB6F8940F92809136188D
S113338090913718892BE9F487E498E10E94380872
S11333908CE398E10E94380887E498E190933B1805
S11333A080933A188CE398E19093391880933818F5
S11333B040E067E08AE00E945C0B909337188093AA
S11333C036180F900FBE0895EF92FF920F93D3DF3C
S11333D08091361890913718892B91F00F2EF4E3D1
S11333E0EF2EF8E1FF2EF02D03E020E030E045E57C
S11333F050E06AEF73E084E091E00E94851101C01F
S113340080E00F91FF90EF9008958F929F92AF927A
S1133410BF92CF92DF92EF92FF920F931F93CF93BD
S1133420DF93CDB7DEB727970FB6F894DEBF0FBE94
S1133430CDBFE0913618F0913718309781F1698348
S11334402A833B834C835D839F838E836630F4F4AD
S113345068DC823069F400E0A7019601BE016F5F69
S11334607F4F80913618909137180E948A0B18C0AC
S113347000E020E030E0A901BE016F5F7F4F809142
S11334803618909137180E948A0B0AC020E0A801D0
S1133490BE016F5F7F4FCF010E94450C01C080E0E9
S11334A027960FB6F894DEBF0FBECDBFDF91CF9144
S11334B01F910F91FF90EF90DF90CF90BF90AF904E
S11334C09F908F9008952F923F924F925F926F92A8
S11334D07F928F929F92AF92BF92CF92DF92EF92A0
S11334E0FF920F931F93CF93DF931C016FD82B018F
S11334F03C018091301890913118A0913218B0910C
S11335003318481659066A067B0608F053C03BC0B8
S11335100780F085E02D80809180A280B380C085F3
S1133520D1858E010E5F1F4FC8010E94AB08EC8944
S1133530FD89CE0119958F8982FF25C08E859F85CF
S1133540A889B989880D991DAA1DBB1D88169906DD
S1133550AA06BB0670F48A839B83AC83BD83DB8796
S1133560CA87B80180913A1890913B180E946E085E
S11335700AC0C12CD12C760100E010E0A501940111
S113358060E0CE0142DFE0913A18F0913B1880816F
S11335908111BECF809138189091391890933B18BF
S11335A080933A18F0933918E093381881E0F101C8
S11335B0808302C0F1011082409230185092311879
S11335C06092321870923318C301B201DF91CF9127
S11335D01F910F91FF90EF90DF90CF90BF90AF902D
S11335E09F908F907F906F905F904F903F902F901F
S11335F008950895279A2F9A2FEF80E792E021509B
S113360080409040E1F700C000001F9AF5CF279A50
S11336102F9A2FEF87EA91E6215080409040E1F7FE
S113362000C000001F9AF5CF0F2EF4EFCF2EDD243B
S1133630D394E12CF12CF02D01E021E042E050E0A4
S113364060E070E08091B4199091B5190E94A805CA
S113365061FFEACFD1D190E09093F6198093F519E8
S1133660892B69F062E370E080E090E06CD9C4D10A
S113367090E09093F6198093F519892B99F76CE3F0
S113368070E080E090E05FD9CCD190E09093F6199F
S11336908093F519892B69F062E370E080E090E093
S11336A052D9BFD190E09093F6198093F519892BE4
S11336B099F764E170E080E090E045D9C3D10E94BD
S11336C0C004D5D10E94060548E050E060E070E0F7
S11336D08091B0199091B1190E946806A5CFEF921C
S11336E0FF920F9371D1E12CF12C02E020E030E045
S11336F042EF50E062E074E084E19BE10E948511B6
S11337000F91FF90EF9008950F938091B9199091C4
S1133710BA19892B89F481E00E942A0C9093BA1972
S11337208093B919009741F000E020E030E0A9014E
S113373060E070E00E948A0B8091AE199091AF19FD
S1133740892B89F481E00E942A0C9093AF1980930D
S1133750AE19009741F000E020E030E0A90160E0FC
S113376070E00E948A0B8091B7199091B819892B47
S113377089F481E00E942A0C9093B8198093B719B8
S1133780009741F000E020E030E0A90160E070E043
S11337900E948A0B0E9435050E943D05A0DF0E940D
S11337A0A3020E945C040F9108950E9495059093D2
S11337B0B5198093B419892B21F48EE094E00E940A
S11337C02D2D0E9495059093B1198093B019892BE2
S11337D021F48EE094E00E942D2D40E066E18AE021
S11337E00E945C0B9093BC198093BB1908950E94AE
S11337F07F0580E00E94D22741E060E070E08CE227
S113380090E00E94E90E9093F4198093F319892BA8
S113381021F482E794E00E942D2DC7DF75DF85E057
S113382074D06091F3197091F41981E08FD383E01F
S11338300C94BC020895DBDF8FE894E00E942D2DE8
S11338400E94A412C5E9D4E0DF93CF930E941A2DFD
S11338500F900F90F9CF04D06894B11150C008951F
S113386033D088F09F5790F0B92F9927B751A0F023
S1133870D1F0660F771F881F991F1AF0BA95C9F700
S113388012C0B13081F03AD0B1E0089537C0672F4B
S1133890782F8827B85F39F0B93FCCF386957795B0
S11338A06795B395D9F73EF4909580957095619599
S11338B07F4F8F4F9F4F089557FD9058440F551FCA
S11338C059F05F3F71F04795880F97FB991F61F09E
S11338D09F3F79F087950895121613061406551F15
S11338E0F2CF4695F1DF08C0161617061806991F81
S11338F0F1CF86957105610508940895E894BB2776
S113390066277727CB0197F90895E7EFF9E12BEFC5
S113391032E2318320832EEF32E23383228329E0A3
S113392033E2358324832DE033E23783268323E196
S113393033E2318720872FE133E23387228724E281
S113394033E23587248720E333E23787268720E173
S113395033E2318B208B25E333E2338B228B22E459
S113396033E2358B248B682FCF013AC1089565303B
S1133970F1F4FA0180818F7390E0982F88272181D8
S1133980822B90930A02809309028281F0E48F9F34
S1133990C0011124FA01238126952695822B909348
S11339A008028093070281E08093521808956430DE
S11339B051F080E090E49093080280930702909382
S11339C00A028093090208950F931F9307EB1CE1E9
S11339D020E034E244EF50E060E087E20E940C28EB
S11339E0909354188093531821E0892B09F020E018
S11339F0822F1F910F91089580915318909154181C
S1133A00009759F040E060E070E00E945D28843047
S1133A1031F41092521880E0089582E0089583E012
S1133A2008958091531890915418009739F064E0E8
S1133A300E94A928853021F083E0089582E008954A
S1133A4080E008956091090270910A0280E090E09C
S1133A500E94872A20E030E048EC52E40E94EC2ADD
S1133A6020E038EF4FE756E40C941C2A0895609147
S1133A7007027091080280E090E00E94872A20E00B
S1133A8030E045E253E40E94EC2A20E038EF4FE7AF
S1133A9056E40E941C2A20E030E040E252E40C94F8
S1133AA0B5290895CF93DF9390E0FC01EE0FFF1F3B
S1133AB0E80FF91FEE0FFF1FEB5AF74E2381211178
S1133AC00AC0EF01E091FF19F091001A6A81888120
S1133AD09981199512C0DC01AA0FBB1FED01C80F13
S1133AE0D91FCC0FDD1FCB5AD74EE091091AF091A4
S1133AF00A1A6A81888199811995DF91CF91089575
S1133B00CF93DF9390E0FC01EE0FFF1FE80FF91F46
S1133B10EE0FFF1FEB5AF74E238121110AC0EF016C
S1133B20E091091AF0910A1A6A818881998119959C
S1133B3012C0DC01AA0FBB1FED01C80FD91FCC0FA7
S1133B40DD1FCB5AD74EE091FF19F091001A6A811C
S1133B50888199811995DF91CF9108950F2EF7EF00
S1133B60CF2EF9E1DF2EF02D04E0C5E5D8E110E019
S1133B708C81813069F0E8F0823039F5D6011C96E9
S1133B80ED91FC911D976A818881998119951DC0D9
S1133B908D818F5F8A3010F48D8317C01D82D6010A
S1133BA01C96ED91FC911D976A81888199811995E4
S1133BB00CC08D81882331F0812FA2DF8D8181504B
S1133BC08D8303C00C83812F6DDF1F5F2696143015
S1133BD079F665E070E080E090E00E94A314C5CF20
S1133BE0CF92DF92EF92FF920F931F93CF93DF93C5
S1133BF0062F0F2EF7EFEF2EF9E1FF2EF02DD70150
S1133C001896ED91FC91199766E087E290E019957A
S1133C10C5E5D8E10F2EF8E2CF2ED12CF02DD982B4
S1133C20C88286E08A831B8214E01C8380E03ADF2A
S1133C30D7011896ED91FC91199767E087E290E01F
S1133C401995DF82CE8287E0888719861A8781E0FA
S1133C5029DFD7011896ED91FC91199765E083E36C
S1133C6090E01995D7011896ED91FC91199761E0B0
S1133C7084E390E0199584E390E09D878C8785E048
S1133C808E871F86188B82E00DDFD7011896ED9181
S1133C90FC91199764E081E091E01995D701189699
S1133CA0ED91FC91199761E082E091E0199582E031
S1133CB091E09B8B8A8B1C8B1D8A1E8B83E0F2DE2A
S1133CC0E12CF12C20E030E040EC50E066EB74E0B5
S1133CD08EEA9DE10E948511DF91CF911F910F9192
S1133CE0FF90EF90DF90CF90089590E0FC01EE0FED
S1133CF0FF1FDF01A80FB91FAA0FBB1FAB5AB74E96
S1133D0024E015962C931597FD01148208950F93C2
S1133D101F93CF93DF931F921F92CDB7DEB78C0111
S1133D2019822DC0E091D118EC3250F481E08E0F4D
S1133D308093D118F0E0ED5FF64E8A81808302C053
S1133D401092D1188A818A30D1F44091D11850E070
S1133D50FA01EF5FF64E1082415051099E012F5F28
S1133D603F4F63E079E18091D4189091D5180E9477
S1133D70FF0F898181110E9480091092D118BE0120
S1133D806E5F7F4FC8017CD6882361F20F900F903D
S1133D90DF91CF911F910F9108950F931F93CF93AC
S1133DA0DF938C01EB018091D4189091D5180E9477
S1133DB0150FB8018DE698E10E94FB2C209779F04D
S1133DC0EDE6F8E101900020E9F7319780E290E018
S1133DD091838083BE018DE698E10E94F02CEDE68C
S1133DE0F8E1DF010D900020E9F711978DE09AE0EA
S1133DF011969C938E9312961C9201900020E9F7E1
S1133E003197ED56F841AE2F8DE698E1AC016A2F5B
S1133E108091D6189091D718E3D5811111C008E28A
S1133E2015E020E030E04DE250E06DE579E180916D
S1133E30D4189091D5180E9442108DE599E102C0E2
S1133E4080E090E0DF91CF911F910F9108952F9220
S1133E503F924F925F926F927F928F929F92AF9216
S1133E60BF92CF92DF92EF92FF920F931F93CF9363
S1133E70DF935C01FC0101900020E9F731976F01A9
S1133E80C81AD90A5C2C0F2EF7E58F2EF7E09F2E67
S1133E90F02DE12CF12C4C2C3701F401018112811D
S1133EA0E80109900020E9F72197C01BD10B3C2EB3
S1133EB0F9E0CF16D10458F0F4012080FEE02F126F
S1133EC006C0B801C5010E94CB2C892B09F5442DED
S1133ED0351408F44C2F50E0B801C5010E94022D9E
S1133EE0892B49F4F301EE0FFF1FE60DF71DE95A84
S1133EF0F84F20800DC08FEFE81AF80AE3E08E0E29
S1133F00911CF1E1EF16F10439F66894222424F8A7
S1133F10822DDF91CF911F910F91FF90EF90DF9051
S1133F20CF90BF90AF909F908F907F906F905F9055
S1133F304F903F902F90089530DF89CF089580915E
S1133F40D4189091D5180C94150F08958F929F92C0
S1133F50AF92CF92EF920F931F93CF93C82F8B0101
S1133F6041E060E070E088EC90E00E94E90E9093FC
S1133F70D5188093D4181093D3180093D2180F2E09
S1133F80F7E88F2EFEE19F2EF02D6894AA24A6F860
S1133F906894CC24C6F8E12C00E023E040E051EE24
S1133FA060E070E08C2F60D49093D7188093D6187B
S1133FB0E091FF19F091001A64E087E091E019950F
S1133FC0CF911F910F91EF90CF90AF909F908F90D2
S1133FD00895882349F0E091091AF0910A1A64E0DF
S1133FE088E091E019950895E091FF19F091001A85
S1133FF064E088E091E01995089560E070E08DED4B
S113400094E0CBDEEDE5F9E101900020E9F731978A
S1134010ED55F94181E0759708F080E00895CF935C
S1134020DF93EC0160E070E08EEE94E0B6DEEDE547
S1134030F9E101900020E9F7EE56F94139F46DE514
S113404079E1CE010E94FB2C80E002C0188281E05D
S1134050DF91CF910895FC0101900020E9F79F01C1
S1134060215131092817390729F4BC018CE195E065
S113407063CF089589E00895FC0101900020E9F7D9
S11340809F01215131092817390729F4BC018BE21A
S113409095E052CF089589E00895FC010190002035
S11340A0E9F79F01215231092817390729F4BC0186
S11340B08AE395E041CF089589E0089560E070E0D7
S11340C089E795E039CF08950F931F93E82FF0E027
S11340D0EE0FFF1FED5AF84F6081718182E895E081
S11340E02BDF811114C008E215E020E030E04DE23E
S11340F050E06DE579E18091D4189091D5180E9433
S11341004210882321F08DE599E1A1DE03C08DE5FD
S113411099E19DDE1F910F9108950F931F93CF9303
S1134120DF931F92CDB7DEB7DB0111969C911197F7
S1134130953108F0B4C0992381F160E070E0272F35
S113414030E0462F50E0FD01E40FF51F9281929577
S11341509F709A3010F0995C01C0905DF901E251B2
S1134160F74E90832F5F3F4FFD01E40FF51F9281BF
S11341709F70492F50E04A30510514F0995C01C0FA
S1134180905DF901E251F74E90837E5F6F5F119667
S11341909C911197691798F201C070E0E72FF0E045
S11341A0E251F74E10824C91811103C08BE895E0E7
S11341B002C08DE895E02EEE38E13F932F931F92D5
S11341C04F939F938F9381E995E09F938F9380E31F
S11341D099E19F938F930E945D2D60E070E080E3EE
S11341E099E1AADE0FB6F894DEBF0FBECDBF8111F0
S11341F059C008E215E020E030E04DE250E06DE502
S113420079E18091D4189091D5180E9442108823A6
S113421009F447C08DE599E11ADE8E3009F042C0F9
S113422087E089838091D2189091D318892BA9F1C2
S1134230BE016F5F7F4F8DE599E168D18093D818F7
S1134240E981F0E0E35AF64EDF010D900020E9F732
S11342501197AE1BBF0BAA2391F0BB27CD01019789
S11342609C0112F42F5F3F4F359527952093D91861
S1134270AF014F5F5F4F64E18AED98E173D101E0D4
S113428010E020E030E046E150E068ED78E1809114
S1134290D2189091D3180E94540F8EE003C084E189
S11342A001C080E00F90DF91CF911F910F9108958D
S11342B0813019F061EA75E002C06AE776E085EAC8
S11342C095E03ACE08959F938F9386ED95E09F9362
S11342D08F9380E399E19F938F930E945D2D60E01B
S11342E070E080E399E128DE0F900F900F900F901B
S11342F00F900F9008952F923F924F925F926F927A
S11343007F928F929F92AF92BF92CF92DF92EF9261
S1134310FF920F931F93CF93DF93CDB7DEB7A09790
S11343200FB6F894DEBF0FBECDBF63E076E08FE03A
S113433096E033DD8CDD8111A3C080E2E2E2F2E09D
S1134340DE01119601900D928A95E1F79E012F5F8F
S11343503F4F6901E12CF12C0F2EFBE1AF2EF6E06B
S1134360BF2EF02D00E319E10F2EF4E34F2EF6E0FB
S11343705F2EF02D0F2EFBE48F2EF6E09F2EF02DF6
S11343800F2EF5E66F2EF6E07F2EF02D3E2C2F2C0F
S1134390FF92EF92BF92AF921F930F930E945D2DF5
S11343A060E070E0C801F9DC52DD0F900F900F90CF
S11343B00F900F900F90811163C032E03E15E8F426
S11343C0F60183818F9382818F9381818F93808182
S11343D08F93FF92EF925F924F921F930F930E94DD
S11343E05D2D60E070E0C801D8DC31DD0FB6F894D3
S11343F0DEBF0FBECDBF811143C02F923F929F926B
S11344008F921F930F930E945D2D60E070E0C801AE
S1134410C4DC1DDD0F900F900F900F900F900F9044
S113442081112EC02F923F927F926F921F930F9310
S11344300E945D2D60E070E0C801AFDC08DD0F90E4
S11344400F900F900F900F900F90811119C03FEFB4
S1134450E31AF30A84E0C80ED11C98E0E916F104CB
S113446009F094CF60E070E08DE796E096DCEFDC35
S1134470811106C060E070E08EE896E08EDCE7DC37
S1134480A0960FB6F894DEBF0FBECDBFDF91CF91DB
S11344901F910F91FF90EF90DF90CF90BF90AF905E
S11344A09F908F907F906F905F904F903F902F9050
S11344B00895EF92FF920F931F93CF93DF93EC0134
S11344C08B017A0181E0F4DE81110DC0CE01D4DDCF
S11344D0811109C0C801E1DD811105C0C701BBDD3F
S11344E0811101C0EBDDDF91CF911F910F91FF90FE
S11344F0EF90089590E0FC01EE0FFF1F8E0F9F1FB9
S1134500FC01E95AF84F818192810895DC010097FA
S113451029F1FB012081FC0101900020E9F731978A
S1134520E81BF90B822F90E0E817F907C8F080E048
S113453008C0880F382F330F330F830F8053890F30
S11345402F5FFD01E20FF11D908130ED390F3A30FC
S113455010F49111EECFFB012083089580E00895BB
S113456080E008950F931F93CF93DF93DC01EA015A
S11345702097E1F1FA0101900020E9F73197E41B5B
S1134580F50B329710F532C08D01040F151F30E082
S1134590AE01420F531FFA019081913428F09753D2
S11345A0592F5295507F03C0592F5295507F2C0F8D
S11345B03D1FF9019181913410F0975301C090533C
S11345C0950FF80190838F5F01C080E0282F220FA0
S11345D0482F50E0FE0101900020E9F73197EC1BD1
S11345E0FD0B4E175F0710F48613CECFDF91CF91EA
S11345F01F910F910895FC0180810895FC01208191
S113460081E090E002C0880F991F6A95E2F7822347
S11346100895FC01808186230895FC016083089538
S1134620FC0110820895FC01408121E030E002C0C9
S1134630220F331F6A95E2F7242B20830895FC018F
S11346402081622B60830895FC01408121E030E0E9
S113465002C0220F331F6A95E2F7242720830895AE
S1134660FC012081622760830895FC01908121E090
S113467030E002C0220F331F6A95E2F72095292308
S113468020830895FC0190816095692360830895D7
S113469080918D19860F80938D1990919019913086
S11346A079F028F09230A9F0933019F108956F3F12
S11346B009F048C010928D1981E0809390190895F3
S11346C0663809F03FC010928C1982E080939019EB
S11346D00895E0918C1981E08E0F80938C19F0E09D
S11346E0E657F64E6083823069F583E08093901933
S11346F0089590918C1921E0290F20938C199630FC
S113470009F581110EC0EAE8F9E1808190E0982F63
S113471088272181820F911D90939219809391197A
S113472004C0109292191092911910929019E0916C
S11347308E19F0918F19309729F0809191199091E9
S11347409219199508958F929F92AF92CF92EF92FA
S11347500F93CF93DF93EB010F2EF8E48F2EF3E248
S11347609F2EF02D6894AA24A4F86894CC24C4F84D
S1134770E12C00E023E040E855E260E070E074D012
S11347809093941980939319D0938F19C0938E1991
S1134790DF91CF910F91EF90CF90AF909F908F903A
S11347A00895CF93DF93CDB7DEB729970FB6F8946A
S11347B0DEBF0FBECDBF89E0E2E4F2E09E012F5FD1
S11347C03F4FD90101900D928A95E1F71092921909
S11347D0109291198091931990919419009731F046
S11347E0422F532F69E0FCD080E001C082E029967B
S11347F00FB6F894DEBF0FBECDBFDF91CF91089501
S113480065360CF064E66C390CF46CE996EF6902D9
S1134810B00111246854744F811105C070932901AB
S113482060932801089570932B0160932A010895E1
S1134830EAE0F1E08081886180838FE39CE99093D2
S113484027018093260160E080E0DADF60E081E008
S1134850D7DFE0E2F1E08081826A8083E1E2F1E087
S113486080818A61808308952F923F924F925F9254
S11348706F927F928F929F92AF92CF92EF92FF921C
S11348800F931F93CF93DF93CDB7DEB7F82E2A0192
S11348903B0188E090E04AD78C018F2D90E0880F8F
S11348A0991FFC01EB56F64E11830083FC01E55F72
S11348B0FD4F80819181D8018D939C936C2D70E084
S11348C084E090E019D71C0161E070E086E090E09C
S11348D013D77C014C2DB1012CD5F801F582E4826B
S11348E06A2D70E084E090E007D71C0161E070E07D
S11348F086E090E001D77C014A2DB1011AD5D80198
S11349001396FC92EE92129717969C928E9216979B
S1134910FFB6F894ED91FC911197369780818260EF
S113492080838D909C90C301B201F1D520E030E0EA
S113493040E051E451D69B01AC0160E074E284E7AD
S11349409BE47AD520E030E040E85FE30ED50E9496
S1134950301CF40132976083D801ED91FC911197DA
S1134960359788E98083ED91FC91349786E08083C4
S1134970FFBEC801DF91CF911F910F91FF90EF907F
S1134980CF90AF909F908F907F906F905F904F905B
S11349903F902F900895CF93DF93EC01EA81FB8140
S11349A0938182812581981B922384819817A1F099
S11349B0938126952923A081B181A20FB11D6C9307
S11349C09F5F258192239383E881F98135978081C4
S11349D08062808380E001C082E0DF91CF910895FE
S11349E0EF92FF920F931F93CF93DF937C01DC012F
S11349F01296ED91FC91139793818281981B858186
S1134A0098238481891B861798F1662341F1842FAA
S1134A10952FDC016150462F50E04F5F5F4F480FE8
S1134A20591FE701EA81FB81938182812581981BCB
S1134A3092238481981779F08C9193812695292368
S1134A40608171818B01020F111DE80188839F5FD2
S1134A508581982393831196A417B50711F7D7017D
S1134A60ED91FC91359780818062808380E001C064
S1134A7082E0DF91CF911F910F91FF90EF90089505
S1134A80DC011496ED91FC9115979381828198171E
S1134A9089F09281858186958923A081B181A80FAF
S1134AA0B11D8C91DB018C939F5F85819823928348
S1134AB080E0089583E008951F920F920FB60F923D
S1134AC011240BB60F922F933F934F935F936F93E1
S1134AD07F938F939F93AF93BF93CF93DF93EF9382
S1134AE0FF93A0919519B0919619109711F16091C7
S1134AF0C6001496ED91FC911597938182812581CE
S1134B00981B92238481981761F08381269528232A
S1134B10C081D181C20FD11D68838F5F95818923A4
S1134B2083831696ED91FC911797309711F0CD0180
S1134B301995FF91EF91DF91CF91BF91AF919F9123
S1134B408F917F916F915F914F913F912F910F9032
S1134B500BBE0F900FBE0F901F9018951F920F92CF
S1134B600FB60F9211240BB60F922F938F939F932E
S1134B70AF93BF93EF93FF93E0919519F09196193A
S1134B803097B9F00280F381E02D938182819817E8
S1134B90B1F092818581282F26952923A081B181A6
S1134BA0A20FB11D2C919F5F892382832093C6009D
S1134BB00BC0E1ECF0E080818F7D808305C0E1ECE7
S1134BC0F0E080818F7D8083FF91EF91BF91AF9161
S1134BD09F918F912F910F900BBE0F900FBE0F904E
S1134BE01F9018951F920F920FB60F9211240BB6B7
S1134BF00F922F933F934F935F936F937F938F9372
S1134C009F93AF93BF93CF93DF93EF93FF93A091C1
S1134C109719B0919819109711F16091CE001496DC
S1134C20ED91FC911597938182812581981B9223A4
S1134C308481981761F0838126952823C081D181CE
S1134C40C20FD11D68838F5F958189238383169654
S1134C50ED91FC911797309711F0CD011995FF91C3
S1134C60EF91DF91CF91BF91AF919F918F917F9100
S1134C706F915F914F913F912F910F900BBE0F90C9
S1134C800FBE0F901F9018951F920F920FB60F92A0
S1134C9011240BB60F922F938F939F93AF93BF93CF
S1134CA0EF93FF93E0919719F09198193097B9F029
S1134CB00280F381E02D938182819817B1F0928173
S1134CC08581282F26952923A081B181A20FB11DAA
S1134CD02C919F5F892382832093CE000BC0E9EC43
S1134CE0F0E080818F7D808305C0E9ECF0E0808175
S1134CF08F7D8083FF91EF91BF91AF919F918F91B1
S1134D002F910F900BBE0F900FBE0F901F90189510
S1134D101F920F920FB60F9211240BB60F922F937E
S1134D203F934F935F936F937F938F939F93AF932F
S1134D30BF93CF93DF93EF93FF93A0919919B09111
S1134D409A19109711F16091D6001496ED91FC9187
S1134D501597938182812581981B922384819817CA
S1134D6061F0838126952823C081D181C20FD11D92
S1134D7068838F5F9581892383831696ED91FC91D7
S1134D801797309711F0CD011995FF91EF91DF91AD
S1134D90CF91BF91AF919F918F917F916F915F91CF
S1134DA04F913F912F910F900BBE0F900FBE0F901C
S1134DB01F9018951F920F920FB60F9211240BB6E5
S1134DC00F922F938F939F93AF93BF93EF93FF9380
S1134DD0E0919919F0919A193097B9F00280F38112
S1134DE0E02D938182819817B1F092818581282FDB
S1134DF026952923A081B181A20FB11D2C919F5F1B
S1134E00892382832093D6000BC0E1EDF0E08081FA
S1134E108F7D808305C0E1EDF0E080818F7D80830C
S1134E20FF91EF91BF91AF919F918F912F910F902F
S1134E300BBE0F900FBE0F901F9018951F920F92EC
S1134E400FB60F9211240BB60F922F933F934F93EB
S1134E505F936F937F938F939F93AF93BF93CF93FE
S1134E60DF93EF93FF93A0919B19B0919C19109736
S1134E7011F1609136011496ED91FC91159793818F
S1134E8082812581981B92238481981761F0838104
S1134E9026952823C081D181C20FD11D68838F5FDD
S1134EA09581892383831696ED91FC91179730970A
S1134EB011F0CD011995FF91EF91DF91CF91BF9141
S1134EC0AF919F918F917F916F915F914F913F919E
S1134ED02F910F900BBE0F900FBE0F901F9018953F
S1134EE01F920F920FB60F9211240BB60F922F93AD
S1134EF08F939F93AF93BF93EF93FF93E0919B198D
S1134F00F0919C193097B9F00280F381E02D9381E0
S1134F1082819817B1F092818581282F26952923C3
S1134F20A081B181A20FB11D2C919F5F892382833F
S1134F30209336010BC0E1E3F1E080818F7D808313
S1134F4005C0E1E3F1E080818F7D8083FF91EF91E3
S1134F50BF91AF919F918F912F910F900BBE0F90A6
S1134F600FBE0F901F901895CF93DF931F92CDB76C
S1134F70DEB7BE016F5F7F4F80919D1990919E199E
S1134F807FDD8111F6CF898190E00F90DF91CF9181
S1134F900895682F80919D1990919E19FCDC80E002
S1134FA090E008958F929F92AF92CF92EF920F93D9
S1134FB0812C912C6894AA24A7F86894CC24C7F86F
S1134FC0E12C00E023E040E051EE60E070E04CDCD6
S1134FD090939E1980939D19E1E1FAE183E192E0B7
S1134FE091838083938382830F91EF90CF90AF90CE
S1134FF09F908F9008958091AD1981110CC08CE021
S11350008093B8008FEF8093BB0084E08093BC0052
S113501081E08093AD190895AF92BF92CF92DF9251
S1135020EF92FF920F931F93CF93DF93A82EB62E88
S113503069017A0184E090E079D3EC01892B61F174
S1135040A88281E0B81212C0C701B60120EA36E88E
S113505041E050E027D3DA01C9014097A109B10921
S1135060B695A79597958795898311C0C701B60111
S113507020E83AE146E050E015D3DA01C90140974F
S1135080A109B109B695A7959795879589831B833F
S11350900A838C2F9D2F02C080E090E0DF91CF9196
S11350A01F910F91FF90EF90DF90CF90BF90AF9042
S11350B008958091BC0081700895FF920F931F930F
S11350C0CF93DF930097D1F14A30D0F5F42E8B01C2
S11350D0EC01EFDF811136C08091A0199091A119E4
S11350E0C817D90741F087DF89818093B800D0932E
S11350F0A119C093A01981E08F0D8093A219888112
S1135100880F8093A319FF2089F0F801A4EAB9E17C
S11351104FEF4F0D642F70E0CB010196B801680F7B
S1135120791F81918D93E617F707D9F788EF80935C
S1135130210285EA8093BC0084E005C086E003C0B8
S113514087E001C082E0DF91CF911F910F91FF9022
S113515008951F93CF93DF93009729F16B3028F5BF
S1135160162FEC01A6DF811122C08091A019909125
S1135170A119C817D90741F03EDF89818093B8008F
S1135180D093A119C093A0191093A2198881880FF4
S113519081608093A31988EF8093210285EA80932C
S11351A0BC0085E005C086E003C087E001C082E062
S11351B0DF91CF911F9108951F920F920FB60F9216
S11351C011240BB60F922F933F934F935F936F93DA
S11351D07F938F939F93AF93BF93EF93FF93E0914C
S11351E0B9008E2F90E0FC013897E135F10508F005
S11351F075C08827E458FF4F8F4F76C210929F19CD
S1135200E0919F198091A219E81770F481E08E0F44
S113521080939F19F0E0ED55F64E80818093BB009A
S113522085E88093BC0072C084E98093BC008091BF
S1135230A0199091A119DC011296ED91FC9113979C
S1135240309709F463C020E040E050E064E0199531
S11352505DC0E0919F1981E08E0F80939F1980912A
S1135260BB00F0E0ED55F64E80838091B9008034A8
S113527011F410929F1920919F1930E08091A21986
S113528090E001972817390724F485EC8093BC003B
S11352903DC085E88093BC0039C08091BB00E0919B
S11352A09F19F0E0ED55F64E808384E98093BC00AD
S11352B08091A0199091A119DC011296ED91FC91B5
S11352C01397309719F12091A21943EA59E165E047
S11352D019951CC085EA8093BC0018C08091B90060
S11352E08093210284E08093BC008091A019909166
S11352F0A119DC011296ED91FC911397309731F0CE
S113530020E040E050E0609121021995FF91EF9177
S1135310BF91AF919F918F917F916F915F914F91C9
S11353203F912F910F900BBE0F900FBE0F901F90C7
S11353301895FC01411101C01AD3842F90E09C01FF
S11353402150310982239323892B09F010D341384A
S113535008F00DD3128213824483440F41504583D5
S11353607183608380E090E008955058BB27AA279A
S11353700ED021C112D130F017D120F031F49F3F6B
S113538011F41EF407C10EF4E095E7FBFDC0E92F0C
S11353900E945C1C78F3BA176207730784079507A9
S11353A020F079F4A6F50C947E1C0EF4E0950B2EF7
S11353B0BA2FA02D0B01B90190010C01CA01A00163
S11353C01124FF27591B99F0593F50F4503E68F1BE
S11353D01A16F040A22F232F342F4427585FF3CFFF
S11353E0469537952795A795F0405395C9F77EF4D0
S11353F01F16BA0B620B730B840BBAF09150A1F019
S1135400FF0FBB1F661F771F881FC2F70EC0BA0F9E
S1135410621F731F841F48F4879577956795B79526
S1135420F7959E3F08F0B1CF9395880F08F0992720
S1135430EE0F9795879508950DD0BDC0B5D048F06F
S1135440ACD038F021F45F3F21F09EC051110C9490
S11354507F1CA0C00E945C1C88F39923B9F35523D8
S1135460A1F3951B550BBB27AA2762177307840763
S113547038F09F5F5F4F220F331F441FAA1FA9F309
S113548034D00E2E3AF0E0E831D091505040E695F9
S1135490001CCAF72AD0FE2F28D0660F771F881F5A
S11354A0BB1F261737074807AB07B0E809F0BB0B4B
S11354B0802DBF01FF2793585F4F32F09E3F510567
S11354C070F062C00C947F1C5F3FE4F3983ED4F309
S11354D0869577956795B795F7959F5FC9F7880F78
S11354E0911D9695879597F90895E1E0660F771FCA
S11354F0881FBB1F621773078407BA0720F0621B5B
S1135500730B840BBA0BEE1F88F7E0950895E894AB
S113551009C097FB3EF490958095709561957F4FF7
S11355208F4F9F4F9923A9F0F92F96E9BB279395A5
S1135530F695879577956795B795F111F8CFFAF4B5
S1135540BB0F11F460FF1BC06F5F7F4F8F4F9F4FE6
S113555016C0882311F096E911C0772321F09EE844
S1135560872F762F05C0662371F096E8862F70E0AA
S113557060E02AF09A95660F771F881FDAF7880F84
S11355809695879597F9089597F99F6780E870E055
S113559060E008959FEF80EC089500240A941616A5
S11355A0170618060906089500240A94121613060D
S11355B0140605060895092E0394000C11F488239B
S11355C052F0BB0F40F4BF2B11F460FF04C06F5FB7
S11355D07F4F8F4F9F4F08950CD0EDCFDEDF28F023
S11355E0E3DF18F0952309F0CFCFD4CF11240C9426
S11355F07F1C0E945C1C90F3959FC1F3950F50E0B3
S1135600551F629FF001729FBB27F00DB11D639F70
S1135610AA27F00DB11DAA1F649F6627B00DA11D16
S1135620661F829F2227B00DA11D621F739FB00DBC
S1135630A11D621F839FA00D611D221F749F33272C
S1135640A00D611D231F849F600D211D822F762FC5
S11356506A2F11249F57504092F0E9F088234AF0B2
S1135660EE0FFF1FBB1F661F771F881F915050400E
S1135670A9F79E3F510578F087CF0C947F1C5F3FBC
S1135680E4F3983ED4F3869577956795B795F795A7
S1135690E7959F5FC1F7FE2B880F911D969587951F
S11356A097F90895A1E21A2EAA1BBB1BFD010DC098
S11356B0AA1FBB1FEE1FFF1FA217B307E407F507BE
S11356C020F0A21BB30BE40BF50B661F771F881F9A
S11356D0991F1A9469F760957095809590959B0130
S11356E0AC01BD01CF010895EE0FFF1F881F8BBFD2
S11356F00790F691E02D19940F931F93CF93DF93A6
S1135700869F8001879F100D969F100D1124C8015C
S11357100DD0EC01009721F0A80160E070E034D1D5
S1135720CE01DF91CF911F910F9108950F931F9395
S1135730CF93DF938230910510F482E090E0E09102
S11357400F1AF091101A20E030E0A0E0B0E030979A
S113575019F1408151810281138148175907C8F01A
S11357608417950769F4109731F012960C931297E9
S113577013961C9327C000930F1A1093101A22C07B
S11357802115310519F04217530718F49A01BD0188
S1135790EF01DF01F801DBCF21153105F9F0281BFA
S11357A0390B2430310580F48A819B8161157105A0
S11357B021F0FB019383828304C09093101A809399
S11357C00F1AFE01329644C0FE01E20FF31F8193CB
S11357D0919322503109398328833AC020910D1ABC
S11357E030910E1A232B41F42091020230910302CE
S11357F030930E1A20930D1A209100023091010269
S11358002115310541F42DB73EB740910402509162
S11358100502241B350BE0910D1AF0910E1AE217C4
S1135820F307A0F42E1B3F0B2817390778F0AC01BF
S11358304E5F5F4F2417350748F04E0F5F1F50939C
S11358400E1A40930D1A8193919302C0E0E0F0E0A8
S1135850CF01DF91CF911F910F910895CF93DF93E3
S1135860009709F481C0FC01329713821282A0913F
S11358700F1AB091101A109781F420813181820F90
S1135880931F20910D1A30910E1A2817390751F5DC
S1135890F0930E1AE0930D1A67C0ED0120E030E09A
S11358A0CE17DF0740F44A815B819E014115510503
S11358B0F1F0EA01F5CFD383C28340815181840F93
S11358C0951FC817D90759F488819981840F951FAA
S11358D00296918380838A819B819383828321159D
S11358E0310529F4F093101AE0930F1A3DC0E90131
S11358F0FB83EA8349915991C40FD51FEC17FD0727
S113590061F480819181840F951F0296E901998346
S11359108883828193819B838A83E0E0F0E01296FE
S11359208D919C911397009719F0FD01DC01F7CF3D
S11359308D919C9111979D012E5F3F4F820F931F74
S113594020910D1A30910E1A2817390769F43097EF
S113595029F41092101A10920F1A02C013821282A4
S1135960B0930E1AA0930D1ADF91CF91089581E0A0
S113597090E0F8947DC3FB01DC0102C001900D921C
S113598041505040D8F70895DC0101C06D93415057
S11359905040E0F70895FB0151915523B1F0BF0148
S11359A0DC01052E4D91442369F010D0D9F7CD01C7
S11359B00190002049F04D91411108D0C9F3FB0139
S11359C04111EECF81E090E001970895402539F030
S11359D0403229F440294B57465E08F01894089544
S11359E0FB01DC010D900020E9F7119701900D9265
S11359F00020E1F70895FB01DC0101900D920020E5
S1135A00E1F70895FB01DC014150504088F08D918D
S1135A1081341CF08B350CF4805E619161341CF090
S1135A206B350CF4605E861B611171F3990B08955C
S1135A30881BFCCFCF93DF93CDB7DEB7AE014A5FAF
S1135A405F4FFA0161917191AF018091131A9091A6
S1135A50141A61D0DF91CF9108950F931F93CF93C0
S1135A60DF93E091131AF091141A238121FF1BC0D4
S1135A708C01D0E0C0E0F80181918F016091131A8C
S1135A807091141ADB011896ED91FC9119978823F3
S1135A9031F01995892B79F3DFEFCFEFECCF8AE062
S1135AA01995892B19F08FEF9FEF02C08D2F9C2F32
S1135AB0DF91CF911F910F9108950F931F93CF936F
S1135AC0DF93CDB7DEB72E970FB6F894DEBF0FBEC7
S1135AD0CDBF0E891F8986E08C831A8309838FEFDB
S1135AE09FE79E838D83AE01465E5F4F688D798DFF
S1135AF0CE01019610D0EF81F885E00FF11F1082DE
S1135B002E960FB6F894DEBF0FBECDBFDF91CF91B6
S1135B101F910F9108952F923F924F925F926F922F
S1135B207F928F929F92AF92BF92CF92DF92EF9229
S1135B30FF920F931F93CF93DF93CDB7DEB72B97CD
S1135B400FB6F894DEBF0FBECDBF6C017B018A0196
S1135B50FC0117821682838181FFBFC1CE010196A9
S1135B603C01F6019381F70193FD859193FF8191A7
S1135B707F01882309F4ADC1853239F493FD859101
S1135B8093FF81917F01853221F4B60190E0D6D153
S1135B90E8CF912C212C312CFFE1F315D8F08B3276
S1135BA079F038F4803279F08332A1F4232D206126
S1135BB01DC08D3261F0803369F4232D216016C03D
S1135BC0832D8260382EE32DE4603E2E2AC0F32D0F
S1135BD0F8601DC037FC2DC020ED280F2A3040F09E
S1135BE08E32B9F436FC75C1232D2064322E19C0CF
S1135BF036FE06C08AE0989E200D1124922E11C014
S1135C00EAE02E9E200D1124222EF32DF0623F2E69
S1135C1008C08C3621F4832D8068382E02C0883663
S1135C2041F4F70193FD859193FF81917F018111E7
S1135C30B3CF982F9F7D9554933028F40C5F1F4F5A
S1135C409FE399830DC0833631F0833771F0833538
S1135C5009F055C020C0F801808189830E5F1F4F71
S1135C6088248394912C530112C02801F2E04F0E32
S1135C70511CF801A080B18036FE03C0692D70E08C
S1135C8002C06FEF7FEFC5014ED14C018201F32DAD
S1135C90FF773F2E15C0280122E0420E511CF80167
S1135CA0A080B18036FE03C0692D70E002C06FEFA2
S1135CB07FEFC5012DD14C01F32DF0683F2E8201F9
S1135CC033FC19C0822D90E088169906A0F4B60121
S1135CD080E290E033D12A94F5CFF50137FC859129
S1135CE037FE81915F01B60190E028D121102A94FA
