S0120000494F545F746573745F332E7372656375
S113000049C2000068C2000066C2000064C2000069
S113001062C2000060C200005EC200005CC2000058
S11300205AC2000058C2000056C2000054C2000068
S11300300C94EC0950C200004EC200004CC20000F7
S11300404AC2000048C2000046C2000044C2000088
S113005042C2000040C200003EC200003CC2000098
S11300603AC200000C9474250C94C62534C20000D6
S113007032C2000030C200002EC200002CC20000B8
S11300802AC2000028C2000026C2000024C20000C8
S11300900C940A260C945C261EC200000C94F428CE
S11300A01AC2000018C2000016C2000014C20000E8
S11300B012C2000010C200000EC200000CC20000F8
S11300C00AC2000008C2000006C200000C94A02668
S11300D00C94F22600C200000C9436270C94882756
S11300E0FAC10000C001C001C001FA0102021802F5
S11300F0C001C001FA01020216298629862986292F
S113010086298629862986291629862986298629E3
S113011086298629862986291829862986298629D1
S11301208629862986298629862986298629862953
S113013086298629862986291829862986298629B1
S11301408629862986298629862986298629862933
S11301508629862986298629822986298629862927
S113016086298629862986294D298629862986294C
S11301708629862986298629862986298629862903
S11301808629862986298629412986298629862938
S1130190862986298629862965290FE918E10F2EE3
S11301A0FFECEF2EF8E1FF2EF02D80919E188823AE
S11301B011F10FB6F8940F92D8011796ED91FC91B6
S11301C01897C085D185CE0102966BD7809192187D
S11301D081508093921880919E18815080939E182C
S11301E00F900FBE8B8D9C8DB8D6CE01B6D6809164
S11301F09E188111DECFF7018081823010F00E94B9
S113020026090E949F1AD1CFCF93DF93CDB7DEB7D3
S113021060970FB6F894DEBF0FBECDBFCE01019636
S11302209A878987812C912CA12CB12C69847A849A
S1130230E0910719F09108198081882309F410C10D
S11302400780F085E02D20803180428053800E9419
S11302508612CE0101960E94091A6B877C878D87CE
S11302609E878981811165C08B859C85AD85BE85FE
S113027082159305A405B50508F444C00E946F13C4
S1130280E0910719F09108190780F085E02DA08509
S1130290B185B88BAF87CD01029603D7EF85F88976
S11302A0878982FF21C04685578560897189420DFF
S11302B0531D641D751D720161010B851C852D85FF
S11302C03E85CF010E941819882399F0C82CD92C97
S11302D0EA2CFB2C00E010E0A201910160E08F8584
S11302E098890E94AB1905C08E7FAF85B88957964F
S11302F08C93AF85B8895496ED91FC915597CD01B7
S113030019959FC020E0B201A1018B859C85AD8524
S1130310BE85481B590B6A0B7B0B80910319909186
S113032004190E948A0D0E946F1381118AC08ED70E
S113033088C00E946F1385C0898188230CF481C012
S11303404E805F80D2011C968D919C911D97892BC4
S113035019F0C2010296A5D6CE0108960E94091A88
S11303608B019C01E9810E2E000CFF0BEA30F10594
S113037008F067C08827EE58FF4F8F4F0C948C2BE2
S1130380F20187898160878BCA80DB80EC80FD80E5
S113039046855785608971894C0D5D1D6E1D7F1DD5
S11303A0C2010E941819882309F44BC0D201549643
S11303B0ED91FC915597C2011995F201878982FF4D
S11303C040C04A815B816C817D8186859785A08947
S11303D0B1899A01AB01280F391F4A1F5B1FC82C32
S11303E0D92CEA2CFB2C00E010E060E0C2010E9452
S11303F0AB1927C0D20157968C9157978E7F579689
S11304008C931FC0F20187898160878B4A815B814D
S11304106C817D8146875787608B718B400F511F9C
S1130420621F731F68017901C2010E94181909C073
S1130430F201878981FD03C0C2018FD502C08E7F7E
S1130440878B282D392D4A2D5B2D662D772D809194
S11304500319909104190E94240C81116DCFE8CEE8
S11304600E948612CE0101960E94091A6B877C872E
S11304708D879E87898181115CCFE0910519F09168
S11304800619808121E0811120E0282C392C4A2C86
S11304905B2C39CF11241FBECFEFD1E2DEBFCDBF1D
S11304A000E00CBF18E0A0E0B2E0E4EAF0E600E00F
S11304B00BBF02C007900D92A835B107D9F72AE106
S11304C0A8E5B8E001C01D92A23BB207E1F70E9483
S11304D0101C0C94503094CD0F2EFEE68F2EF2E0BB
S11304E09F2EF02D0F2EFDE7AF2EF2E0BF2EF02D44
S11304F0C9EAD2E00F2EF1EB6F2EF2E07F2EF02D41
S11305000F2EFBEC4F2EF2E05F2EF02D0F2EF4EFAA
S1130510CF2EDD24D394E12CF12CF02D01E021E049
S113052041E050E060E070E080917F1A9091801A81
S1130530B5D260FFEBCF0E941D248093811A8823DB
S1130540F9F09F928F921F928F93BF92AF92DF9395
S1130550CF930E94322D62E370E080E090E00E942D
S113056049140E941D248093811A2DB73EB7285F39
S11305703F4F0FB6F8943EBF0FBE2DBF8111E1CFA0
S113058064E170E080E090E00E94491492D19F936E
S11305908F937F926F925F924F920E94322D44E02C
S11305A050E060E070E080917D1A90917E1A36D31D
S11305B00F900F900F900F900F900F90A7CFEF9286
S11305C0FF920F936CE674E083E00E94EF23E12C2A
S11305D0F12C03E020E030E048E851E061ED72E006
S11305E08CE692E00E942B110F91FF90EF900895FA
S11305F0CF93DF9300D01F92CDB7DEB781E00E9486
S1130600352062E070E080E090E00E94491480E0D0
S11306100E94352066E970E080E090E00E94491471
S11306200E94EB1F0E9449200E94C6229F938F9331
S11306308DED92E09F938F930E94322D0E94C721EB
S11306400E94C6229F938F9380EF92E09F938F9393
S11306500E94322D8EE698E00E945B200E94C62202
S11306600EE618E01F930F939F938F9389E093E016
S11306709F938F930E94322DC8010E9477200E947D
S1130680C6229F938F931F930F938DE193E09F93C3
S11306908F930E94322DA80162E373E083E593E017
S11306A00E94A5220E94C6229F938F931F930F93AB
S11306B082E393E09F938F9383E593E09F938F93DB
S11306C084E693E09F938F930E94322D0E94AA2088
S11306D00E94C6229F938F938AE993E09F938F93FE
S11306E00E94322D0FB6F894DEBF0FBECDBF81E05D
S11306F00E94A4210E94C6229F938F9389EA93E0CB
S11307009F938F930E94322D84EF91E00E94AF213A
S11307100E94C6229F938F9381E08F9384EF8F93DF
S11307208AEC93E09F938F930E94322D0FB6F89436
S1130730DEBF0FBECDBF03E010E00F2EFAEEEF2EAA
S1130740F3E0FF2EF02D80E00E94B020B82E0E942E
S1130750C6229F938F931F930F93FF92EF920E9451
S1130760322D0F900F900F900F900F900F90F8E094
S1130770BF1609F46EC080E00E94AF1E66E371E00C
S113078080E090E00E94491401501109E1F65AC03A
S11307905DD5FECF44E457E060E070E0CE01019601
S11307A00E94EB1343E050E060E070E080917F1A18
S11307B09091801A33D20F2EF4EFCF2EDD24D394F0
S11307C0E12CF12CF02D01E021E04CE050E060E060
S11307D070E080917D1A90917E1A60D1DC01CB018A
S11307E08C709927AA27BB270C97A105B10591F610
S11307F099D00E94201CF62EE72EDAD00E94201CED
S1130800162F072F56D0F501E282F3820483158355
S113081096838783B50180E00E94D92083E00E94FB
S1130820C11EB50180E00E94D9200E94C6229F9378
S11308308F939F928F920E94322D0F900F900F9062
S11308400F90A8CF81E00E94A01E80E00E946A1E43
S11308509FCF81E00E94911EE8E5F8E086E0818365
S113086082E080830E948C1269837A838B839C83C9
S11308700F2EF8E5AF2EF8E0BF2EF02D0F2EFBE083
S11308808F2EF4E09F2EF02D85CFEF92FF920F93E1
S1130890E12CF12C082F20E030E048E851E060E240
S11308A074E088EF92E00E942B110F91FF90EF907B
S11308B008958091D408882351F062E370E080E0C9
S11308C090E00E9449148091D4088111F6CF809160
S11308D08A1A90918B1A08950F93CF93DF93EC01AA
S11308E048EE53E060E070E08091841A9091851A9C
S11308F00E94BD0C81E08093D408D0938B1AC093DE
S11309008A1A00E020E030E0A90160E070E0809104
S1130910841A9091851AA4D61092D408DF91CF91AD
S11309200F9108958091D308882351F062E370E019
S113093080E090E00E9449148091D3088111F6CFA1
S113094060918C1A70918D1A80918E1A90918F1AE1
S11309500895CF92DF92EF92FF920F936B017C0187
S113096048EE53E060E070E080917B1A90917C1A2D
S11309700E94BD0C81E08093D308C0928C1AD0925F
S11309808D1AE0928E1AF0928F1A00E020E030E087
S1130990A90160E070E080917B1A90917C1A60D686
S11309A01092D3080F91FF90EF90DF90CF900895AD
S11309B08091D208882351F062E370E080E090E0F7
S11309C00E9449148091D2088111F6CF6091861A51
S11309D07091871A8091881A9091891A0895CF92FC
S11309E0DF92EF92FF920F936B017C0148EE53E08C
S11309F060E070E08091821A9091831ABED781E002
S1130A008093D208C092861AD092871AE092881AEC
S1130A10F092891A00E020E030E0A90160E070E083
S1130A208091821A9091831A1BD61092D2080F914A
S1130A30FF90EF90DF90CF90089582E090E0D4D1C2
S1130A4090938B1A80938A1A0895E7E0F1E08081ED
S1130A508F6080830895E8E0F1E09081907F908337
S1130A6090818F70982B90830895E8E0F1E0808165
S1130A70807F80830895CF93DF9380E190E0B4D1A9
S1130A80EC01009739F0FC0111921192119211922C
S1130A90CF0194D2CE01DF91CF9108952F923F924E
S1130AA04F925F926F927F928F929F92AF92BF927A
S1130AB0CF92DF92EF92FF920F931F93CF93DF9326
S1130AC0EC014A015B01622E702E0E94861228807E
S1130AD039804A805B8001110DC081E0B201A1011F
S1130AE0482159216A217B21452B462B472B79F438
S1130AF080E00DC081E0B201A101482159216A21A1
S1130B007B21481559056A057B0509F080E0882397
S1130B1081F0662009F46BC080949094A094B09402
S1130B2082209320A420B52088829982AA82BB8245
S1130B305EC0C114D104E104F10409F458C0662074
S1130B4029F040E050E060E071E003C040E050E094
S1130B50BA0171107460482959296A297B299701BF
S1130B608601CE0104960E94F8140E946F1381112D
S1130B7001C06CD30E943F1791FD35C00FB6F894A5
S1130B800F92688179818A819B8171100DC021E067
S1130B9075016401C622D722E822F922CD28CE2885
S1130BA0CF2879F420E00DC021E075016401C6224C
S1130BB0D722E822F922C814D904EA04FB0409F074
S1130BC020E0222371F0662061F080949094A09438
S1130BD0B09486229722A822B92288829982AA8276
S1130BE0BB820F900FBE1B012C01552402C00E9432
S1130BF06F13C201B101DF91CF911F910F91FF904B
S1130C00EF90DF90CF90BF90AF909F908F907F90A8
S1130C106F905F904F903F902F9008954F925F9206
S1130C206F927F928F929F92AF92BF92CF92DF92F8
S1130C30EF92FF920F931F93CF93DF93EC016A011E
S1130C407B018C01095F1F4F0E948612EB85FC8596
S1130C5088819981AA81BB81C82AD92AEA2AFB2AD8
S1130C60C882D982EA82FB820E171F0709F445C0A5
S1130C70C12CD12C760199249394812CA480B58025
S1130C8080819181A281B381AC01BD017727B2FD3E
S1130C900FC0488059806A807B8044225522662296
S1130CA07722292D45284628472889F4282D0FC066
S1130CB0488059806A807B804422552266227722AC
S1130CC0292D441655066606770609F0282D222399
S1130CD071F0B0FF04C0C42AD52AE62AF72A488155
S1130CE059816A817B817260CF010E947E15EA2D51
S1130CF0FB2D0E171F0711F603C0C12CD12C760152
S1130D00C094D094E094F09488819981AA81BB81A5
S1130D10C822D922EA22FB22C882D982EA82FB8233
S1130D200E946F13688179818A819B81DF91CF91C1
S1130D301F910F91FF90EF90DF90CF90BF90AF90F5
S1130D409F908F907F906F905F904F900895CF9376
S1130D50DF93DC01EDEDF8E001C0F9012081318180
S1130D602A173B07D0F382819381AF01480F591FA3
S1130D70A417B50749F412964D915C911397840F0B
S1130D80951F93838283DF0112968D919C91139713
S1130D90ED01C80FD91F2C173D07D9F42091DB08AA
S1130DA03091DC08C217D30781F02A813B81820F7E
S1130DB0931F13969C938E931297C081D18188813F
S1130DC0998111969C938E9307C01196DC93CE93D0
S1130DD003C011963C932E93AE17BF0711F0B18355
S1130DE0A083DF91CF910895CF92DF92EF92FF928B
S1130DF00F931F93CF93DF93EC010E94861280918F
S1130E00DB089091DC08892B41F5EDEDF8E0A1EECB
S1130E10B8E0B183A08313821282EDE7F8E1F09386
S1130E20DC08E093DB0813821282118210828CE9C1
S1130E309FE013969C938E931297ED93FC9390935B
S1130E40D8088093D7089093DA088093D90880E073
S1130E5090E89093D6088093D508E090D508F09058
S1130E60D608C7018C239D23892B09F066C02097DF
S1130E7009F466C0AE014C5F5F4F09F45EC0009197
S1130E80D9081091DA080417150708F456C0C09160
S1130E90DD08D091DE08EDEDF8E002C0FE01E901C5
S1130EA02A813B812417350728F4288139812115AB
S1130EB03105A1F78091DB089091DC08C817D907A8
S1130EC0E1F1C080D18084E0C80ED11C8881998171
S1130ED0918380832A813B81241B350B2930310582
S1130EE048F0CE01840F951FFC01338322835B837A
S1130EF04A832DDF8A819B81081B190B1093DA0822
S1130F000093D9082091D7083091D8080217130705
S1130F1020F41093D8080093D708E82AF92AFB8212
S1130F20EA82198218820E946F13C114D10459F401
S1130F300E94A01AC12CD12C06C00E946F13F8CFB6
S1130F400E946F13F5CFC601DF91CF911F910F91CE
S1130F50FF90EF90DF90CF900895CF93DF930097A9
S1130F6051F1FC013497228133814091D50850918D
S1130F70D608B90164237523672BE9F06081718178
S1130F80672BC9F4EF01409550952423352333830F
S1130F9022830E9486122091D9083091DA088A812E
S1130FA09B81820F931F9093DA088093D908CE0116
S1130FB0CEDE0E946F13DF91CF910895FC0103965A
S1130FC0928381834FEF5FEFBA0143835483658338
S1130FD07683908787839287818710820895FC01A6
S1130FE0138612860895CF93DF939C01FB01DC01E5
S1130FF01196CD91DC911297D583C4838E819F8104
S1131000978386838E819F81DC0115967C936E93F2
S113101014977F836E8333872287F90180818F5FE2
S11310208083DF91CF9108950F931F93CF93DF9324
S1131030EB01088119812A813B810F3F4FEF14078F
S11310402407340721F4FC01A185B28511C0DC0119
S1131050139601C0DF011496ED91FC911597408120
S1131060518162817381041715072607370790F7AA
S11310701496ED91FC911597FD83EC83D783C68379
S1131080BF83AE831596DC93CE9314979B878A8790
S1131090FC0120812F5F2083DF91CF911F910F915D
S11310A00895CF93DF93FC01A285B385C481D581D4
S11310B0868197819F838E83C681D7818481958120
S11310C09D838C8311968D919C911297E817F90753
S11310D031F48681978112969C938E93119713868F
S11310E012868C9181508C938C91DF91CF910895CD
S11310F031E1FC013083319722E220833197A3E36D
S1131100A083319760833197708331971082319730
S11311101082319760E86083319710823197108292
S113112031971082319762E06083319763E0608386
S1131130319764E06083319765E06083319766E0BE
S11311406083319767E06083319768E0608331970B
S113115069E06083319760E1608331973083319730
S113116032E13083319733E13083319734E1308396
S1131170319735E13083319736E13083319737E168
S11311803083319738E13083319739E130833197B7
S113119030E23083319731E23083319720833197C5
S11311A023E220833197408331975083319726E29D
S11311B02083319727E22083319728E220833197D7
S11311C029E22083319720E32083319721E3208390
S11311D089970895A89590EC88E10FB6F894A8959E
S11311E0809360000FBE90936000A091FB18B091B3
S11311F0FC18CD91CDBFDD91DEBFFF91EF91DF9162
S1131200CF91BF91AF919F918F917F916F915F919A
S11312104F913F912F911F910F91FF90EF90DF908D
S1131220CF90BF90AF909F908F907F906F905F9082
S11312304F903F902F901F900F900CBE0F900BBEBD
S11312400F900FBE0F90089581E008950F920FB68E
S1131250F8940F920BB60F920CB60F921F921124B2
S11312602F923F924F925F926F927F928F929F92B2
S1131270AF92BF92CF92DF92EF92FF920F931F93A0
S11312802F933F934F935F936F937F938F939F938A
S1131290AF93BF93CF93DF93EF93FF93A091FB188A
S11312A0B091FC180DB60D920EB60D920E94621408
S11312B0A091FB18B091FC18CD91CDBFDD91DEBF9C
S11312C0FF91EF91DF91CF91BF91AF919F918F915A
S11312D07F916F915F914F913F912F911F910F914A
S11312E0FF90EF90DF90CF90BF90AF909F908F9042
S11312F07F906F905F904F903F902F901F900F9032
S11313000CBE0F900BBE0F900FBE0F9008950F925E
S11313100FB6F8940F920BB60F920CB60F921F9261
S113132011242F923F924F925F926F927F928F92ED
S11313309F92AF92BF92CF92DF92EF92FF920F9360
S11313401F932F933F934F935F936F937F938F9349
S11313509F93AF93BF93CF93DF93EF93FF93A091AA
S1131360FB18B091FC180DB60D920EB60D9213BE7B
S11313700E949A1281110E946214A091FB18B091EC
S1131380FC18CD91CDBFDD91DEBFFF91EF91DF91D0
S1131390CF91BF91AF919F918F917F916F915F9109
S11313A04F913F912F911F910F91FF90EF90DF90FC
S11313B0CF90BF90AF909F908F907F906F905F90F1
S11313C04F903F902F901F900F900CBE0F900BBE2C
S11313D00F900FBE0F9008959ADF18950FB6F894EA
S11313E00F92FC01968D0F900FBE81E0911180E069
S11313F008950F931F93CF93DF93EC01042F1E8D59
S113140048A141110CC088819981892B09F042C0FF
S11314108C819D810E94B3161D821C8242C00111E1
S113142017C050E08A819B810E94D32C28A18A8115
S11314309B81820F911D9B838A832C813D8182171E
S1131440930750F1888199819B838A8380E029C026
S113145050E08E819F810E94D32C88A190E09195C9
S1131460819591092E813F81280F391F3F832E8357
S1131470488159812417350730F42C813D81820F2E
S1131480931F9F838E83023049F4112349F0115036
S113149080E007C080E005C080E003C080E001C0B8
S11314A080E01F5F1E8FDF91CF911F910F910895F0
S11314B0FC0140A14423A9F050E026813781240F88
S11314C0351F37832683848195812817390720F0B7
S11314D08081918197838683CB01668177810C9487
S11314E0D32C0895EF92FF920F931F93CF938C0107
S11314F00FB6F8940F92FC01C2A11C16ACF48389B8
S1131500811106C011C0F8018389811105C00CC086
S11315107801F3E1EF0EF11CC7010E943C15811123
S11315200E942E16C15079F78FEFF80182A30F9015
S11315300FBE0FB6F8940F92C1A11C16ACF48085AF
S1131540811106C011C0F8018085811105C00CC04D
S11315507801F8E0EF0EF11CC7010E943C158111DF
S11315600E942E16C15079F78FEFF80181A30F90D6
S11315700FBECF911F910F91FF90EF900895CF93DD
S1131580DF93EC010FB6F8940F92E881F9818F8D07
S113159028A190E030E0829FA001839F500D929F8C
S11315A0500D11244E0F5F1F5D834C831E8EFB83F1
S11315B0EA830197829FA001839F500D929F500D53
S11315C01124CF01840F951F9F838E838FEF89A3EE
S11315D08AA361110BC08885882371F0CE01089617
S11315E00E943C15882341F031DE06C0CE010896E6
S11315F0E5DCCE014396E2DC0F900FBE81E0DF9183
S1131600CF910895FF920F931F93CF93DF93082FE9
S1131610162FF42E6623B9F0869FC00111248596F7
S1131620E3DBEC01009741F414C00F8F18A361E0D1
S1131630CE01A5DFFCA20DC0859699838883F5CFE2
S1131640D983C883F2CF85E290E0CEDBEC01892B0D
S1131650B9F7CE01DF91CF911F910F91FF900895BB
S11316609F92AF92BF92CF92DF92EF92FF920F932D
S11316701F93CF93DF93CDB7DEB729970FB6F894B6
S1131680DEBF0FBECDBF7C015B012E833F83488745
S1131690598710E0992493946C0188E0C80ED11CFA
S11316A00FB6F8940F92F701968D878D981710F066
S11316B00230B1F4402FB501C7019BDEF7019389D5
S11316C0992341F0C70143960E943C15882321F0D9
S11316D0BDDD02C08111BADD0F900FBE81E04EC0A6
S11316E08E819F81A885B985892B8A2B8B2B21F428
S11316F00F900FBE80E042C0111105C0CE010196CB
S11317000E94C815192D0F900FBE00D70FB6F8947C
S11317100F92F70181A18F3F09F411A2F70182A171
S11317208F3F09F412A20F900FBEBE016A5F7F4F74
S1131730CE0101960E94D91581111CC00FB6F894F0
S11317400F92F701968D878D0F900FBE98130EC0E0
S11317504E815F8168857985C6010E94E114C701C5
S1131760C1DEBDD781119CCF71DD9ACFC701BADE2E
S1131770B6D796CFC701B6DEB2D780E029960FB6AA
S1131780F894DEBF0FBECDBFDF91CF911F910F91B3
S1131790FF90EF90DF90CF90BF90AF909F9008950F
S11317A00F93CF93DF93482F60E081E02BDFEC01B0
S11317B0009761F01D821C82198218821E8200E04B
S11317C020E030E0A90160E070E04ADFCE01DF9163
S11317D0CF910F910895EF92FF920F931F93CF93A0
S11317E0DF938A01FC01568D378D531710F0223098
S11317F0E9F4422F7801EC011AA1FBDD1F3F81F4CB
S11318008B898823A9F0CE0143960E943C15882336
S113181089F0E114F10481F081E0F70180830DC0C7
S1131820FF24F394F10EFAA281E007C080E005C022
S113183081E003C081E001C081E0DF91CF911F917D
S11318400F91FF90EF9008959F92AF92BF92CF9225
S1131850DF92EF92FF920F931F93CF93DF93CDB755
S1131860DEB729970FB6F894DEBF0FBECDBF8C014B
S11318705B012E833F8348875987E12C99249394F5
S11318806C0183E1C80ED11C0FB6F8940F92F801D5
S1131890F68CFF2099F0B501C8010ADEFA94F8012C
S11318A0F68E8085882331F0C80108960E943C1585
S11318B08111CCDC0F900FBE81E04DC08E819F81E1
S11318C0A885B985892B8A2B8B2B21F40F900FBE09
S11318D080E041C0E11005C0CE0101960E94C81508
S11318E0E92C0F900FBE12D60FB6F8940F92F801A0
S11318F081A18F3F09F411A2F80182A18F3F09F45D
S113190012A20F900FBEBE016A5F7F4FCE010196F7
S11319100E94D915811116C0C80160DD882371F0B9
S11319204E815F8168857985C6010E94E114C801F2
S1131930D9DDD5D68111A8CF89DCA6CFC801D2DDE7
S1131940CED6A2CFC801CEDDCAD6C80147DD8823D2
S113195009F49ACF80E029960FB6F894DEBF0FBE43
S1131960CDBFDF91CF911F910F91FF90EF90DF904A
S1131970CF90BF90AF909F900895BF92CF92DF9287
S1131980EF92FF920F931F93CF93DF93CDB7DEB700
S113199029970FB6F894DEBF0FBECDBF8C014E83DE
S11319A05F8368877987B12CD12CCC24C3947C01C4
S11319B083E1E80EF11C0FB6F8940F92D8015E96FD
S11319C08C915E978823E1F081505E968C935E97AC
S11319D08D919C91892B29F40E946717F8019583B6
S11319E08483D80118968C91882331F0C801089615
S11319F00E943C1581112ADC0F900FBE81E07AC051
S1131A008E819F81A885B985892B8A2B8B2B21F404
S1131A100F900FBE80E06EC0D11005C0CE010196BC
S1131A200E94C815DC2C0F900FBE70D50FB6F89429
S1131A300F92F80181A18F3F09F411A2D801929667
S1131A408C9192978F3F11F492961C920F900FBE37
S1131A50BE016A5F7F4FCE0101960E94D9158111A4
S1131A6024C0C801BBDC8823E1F0F80180819181A6
S1131A70892B51F40FB6F8940F92848195810E94BA
S1131A804516B82E0F900FBE4E815F81688579850B
S1131A90C70197D7C80126DD22D681118CCFD6DBAA
S1131AA08ACFC8011FDD1BD686CFC8011BDD17D620
S1131AB0C80194DC882309F47ECFBB20D1F00FB693
S1131AC0F8940F92F8018389882339F0028CF38DFE
S1131AD0E02D808164E0681B01C060E0D8011496A9
S1131AE08D919C9115970E94F3160F900FBE80E084
S1131AF001C080E029960FB6F894DEBF0FBECDBFBB
S1131B00DF91CF911F910F91FF90EF90DF90CF90D5
S1131B10BF900895CF93DF93EC010FB6F8940F9222
S1131B2089A18F3F09F419A28AA18F3F09F41AA24F
S1131B300F900FBE8E8D811103C0CE0143967CD7CA
S1131B40CE01D0DCDF91CF910895FC014481558111
S1131B5022813381240F351F80819181B901681B53
S1131B60790BCB016417750710F0841B950B08954E
S1131B70AF92BF92CF92DF92EF92FF920F931F9397
S1131B80CF93DF936C015B017A01FC01C281D381A5
S1131B90048115810C1B1D0B4017510708F48A01A1
S1131BA0F60184859585A801B5018C0F9D1F0E94BF
S1131BB0D32C0E151F0558F4A701401B510BB5017A
S1131BC0600F711FF601848595850E94D32CCE0188
S1131BD08E0D9F1DF601248135818217930710F025
S1131BE0821B930BF60193838283C701DF91CF910C
S1131BF01F910F91FF90EF90DF90CF90BF90AF9027
S1131C000895CF92DF92EF92FF920F931F93CF9399
S1131C10DF931F921F92CDB7DEB75A8349832115F4
S1131C203105C9F06B017C01FC01868580FD08C08B
S1131C30CA012417350708F4C9019A83898311C09E
S1131C402017310758F042E050E0BE016F5F7F4F2C
S1131C50C7018EDF06C080E090E008C080E090E01D
S1131C6005C049815A81B601C70182DF0F900F90E8
S1131C70DF91CF911F910F91FF90EF90DF90CF9064
S1131C800895AF92BF92CF92DF92EF92FF920F939B
S1131C901F93CF93DF937C015B01E9014217530744
S1131CA008F4EA01209779F1F70100811181C480D9
S1131CB0D580C01AD10ACC15DD0508F46E01F701F0
S1131CC064857585600F711FA601C5010E94D32C20
S1131CD0CC16DD0658F4AE014C195D09F701648594
S1131CE07585C5018C0D9D1D0E94D32C0C0F1D1FE5
S1131CF0F701848195810817190710F0081B190B47
S1131D00F70111830083CE01DF91CF911F910F91D1
S1131D10FF90EF90DF90CF90BF90AF900895EF9237
S1131D20FF921F93CF93DF93EB0111E0413009F051
S1131D3010E0209711F4C1E0D0E07C012FEFE21A0B
S1131D40F20A419651D8009781F020E1FC011192EA
S1131D502A95E9F79C01205F3F4FFC0135872487D2
S1131D60F582E482D783C6831687DF91CF911F91D2
S1131D70FF90EF900895CF93DF93FC0127850FB672
S1131D80F8940F9280859185892BD1F4828593856F
S1131D90892BC1F486854681578164817581A48528
S1131DA0B58590E1EF0119929A95E9F7B587A48773
S1131DB075836483578346838687278781E003C0BE
S1131DC080E001C080E00F900FBEDF91CF910895B5
S1131DD0FC01248135818081918142815381820F6C
S1131DE0931F0197841B950B8217930710F0821B96
S1131DF0930B08952F923F924F925F926F927F922E
S1131E008F929F92AF92BF92CF92DF92EF92FF9206
S1131E100F931F93CF93DF93CDB7DEB729970FB6F8
S1131E20F894DEBF0FBECDBF5C011B012A010E83F7
S1131E301F8328873987FC01868580FF05C03A0106
S1131E40F2E06F0E711C01C03A018E819F81A8855A
S1131E50B985892B8A2B8B2B09F435C0CE010196C9
S1131E6081D60FB6F8940F92C501B2DF4C018615E6
S1131E70970520F580E090E00E940419F3D6F5015F
S1131E80938782870F900FBECE80DF80E884F98429
S1131E9000E010E020E030E0A90160E070E0CB0158
S1131EA00E947917F50113861286BE016A5F7F4F7F
S1131EB0CE0101967ED68823A1F202C00F900FBEF8
S1131EC08114910419F4C50183DF4C018301940149
S1131ED0A201B101C50195DE7C01892BE1F0C501A8
S1131EE034DEF5012681378182179307A0F00ED3E3
S1131EF0F50180859185892B69F08085918500E0C5
S1131F0010E020E040E050E0BA010E940318F5011F
S1131F1011861086E4D3C70129960FB6F894DEBF64
S1131F200FBECDBFDF91CF911F910F91FF90EF9026
S1131F30DF90CF90BF90AF909F908F907F906F90E5
S1131F405F904F903F902F900895AF92BF92CF92A1
S1131F50DF92EF92FF920F931F93CF93DF93EC01E5
S1131F605B016A0179018E8580FF04C08A010E5FDE
S1131F701F4F01C08A01CE012BDF9C01A601B501D0
S1131F80CE013FDE6C01892BB9F0CE01DEDD2E815E
S1131F903F818217930780F088859985892B61F0AA
S1131FA08885998500E010E020E040E050E0BA0127
S1131FB00E947B1819861886C601DF91CF911F9164
S1131FC00F91FF90EF90DF90CF90BF90AF90089566
S1131FD04F925F926F927F928F929F92AF92BF9235
S1131FE0CF92DF92EF92FF920F931F93CF93DF93E1
S1131FF01F921F92CDB7DEB75C012B013A01680135
S11320007901FC01868580FD03C0812C912C04C0DC
S11320106894882481F8912CC114D104E104F1045A
S113202031F10FB6F8940F92C5018FDD8C0188163B
S1132030990640F080E090E00E94041913D6F5015F
S1132040918780870F900FBE80169106B0F000E054
S113205010E020E030E0A90160E070E0CB0149D756
S1132060F50111861086C50170DD8C0103C0C50120
S11320706CDD8C0180169106B8F581149104C1F0D1
S1132080F501E080F1809801A401BE016F5F7F4FEC
S1132090C501F7DD89819A8108191909681679063D
S11320A030F4F501F182E082612C712C01C03C0115
S11320B09801A301B201C501E4DD7C01892BB1F0D3
S11320C025D2F50182859385892B61F082859385DC
S11320D000E010E020E040E050E0BA0194D7F501C0
S11320E013861286FCD202C0E12CF12CC7010F909A
S11320F00F90DF91CF911F910F91FF90EF90DF90A0
S1132100CF90BF90AF909F908F907F906F905F9093
S11321104F900895E091B718F091B818808181111B
S11321200CC08FEF9FEFDC01809384189093851887
S1132130A0938618B09387180895E091B718F0918A
S1132140B8180780F085E02D0084F185E02D8281A8
S11321509381A481B5818093841890938518A0936A
S11321608618B093871808958F929F92AF92BF926A
S1132170CF92DF92EF92FF92CF936B017C01C42F39
S113218080908E1890908F18A0909018B09091180D
S11321908091FB189091FC1802960E9451088FEFD1
S11321A0C816D806E806F80669F4CC2359F06091FD
S11321B0FB187091FC186E5F7F4F83E998E10E94D1
S11321C0F3073FC0C80CD91CEA1CFB1CE091FB18A8
S11321D0F091FC18C282D382E482F582C814D90437
S11321E0EA04FB0468F46091FB187091FC18809178
S11321F0B5189091B6186E5F7F4F0E94140821C0E5
S11322006091FB187091FC188091B7189091B818E0
S11322106E5F7F4F0E9414088091841890918518F6
S1132220A0918618B0918718C816D906EA06FB064D
S113223040F4C0928418D0928518E0928618F092E7
S11322408718CF91FF90EF90DF90CF90BF90AF9021
S11322509F908F9008954F925F926F927F928F928A
S11322609F92AF92BF92CF92DF92EF92FF920F9321
S1132270CF93DF934C016B015A012901CA010E94DB
S1132280F4063C01892B09F4F4C080E390E00E9439
S1132290F406EC01892B99F07C8E6B8EA50165EA1E
S11322A070E0C3010E94DC2C21E0A21AB1088B8DDE
S11322B09C8DA80EB91EC114D10429F420C0C301F9
S11322C00E94AD07D6C0D6018C918D8F8C91882346
S11322D0A1F0AE01425E5F4FF6013196B8E0CB0E3D
S11322E0D11CCF012191DA012D93AD01DC018C9138
S11322F0882319F0EC15FD05A1F71CA201C01D8E61
S1132300043008F003E00A8F0FA318A66E01B2E0B0
S1132310CB0ED11CC6010E94EF07CE010E960E947F
S1132320EF07DB87CA8784E090E0A0E0B0E0801B81
S11323309109A109B1098E879F87A88BB98BDF8B7F
S1132340CE8B1AA619A61BA61CA61DA61EA61FA6E2
S1132350A201B401C5010E94780899838883E1141D
S1132360F10419F0F701D183C0830FB6F8940F92EA
S1132370809192188F5F809392188091FB189091AE
S1132380FC18892BD1F5D093FC18C093FB188091CD
S11323909218813009F041C08FEC98E10E94DE0769
S11323A08AED98E10E94DE0785EE98E10E94DE073F
S11323B080EF98E10E94DE0784EC98E10E94DE073A
S11323C089EB98E10E94DE078AEA98E10E94DE0721
S11323D08FE998E10E94DE0783E998E10E94DE0715
S11323E084EC98E19093B8188093B71889EB98E13E
S11323F09093B6188093B51810C080918C188111F1
S11324000CC0E091FB18F091FC18928D8A8D89170D
S113241020F0D093FC18C093FB18809188188F5F2C
S1132420809388188DA38A8D90918D18981710F435
S113243080938D18FBE08F9FC0011124B601815356
S1132440974E0E94F3070F900FBE80918C1888233B
S113245061F0E091FB18F091FC18928D8A8D981729
S113246030F40E94260981E005C081E003C081E0C8
S113247001C08FEFDF91CF910F91FF90EF90DF902C
S1132480CF90BF90AF909F908F907F906F905F9010
S11324904F900895EF92FF920F930F2EF2E8EF2ED4
S11324A0F8E1FF2EF02D00E020E030E040EC50E0B9
S11324B067E274E08DEC90E0CEDE813019F52AD726
S11324C0813001F5F8948FEF9FEFDC01809384183D
S11324D090938518A0938618B093871881E0809311
S11324E08C1810928E1810928F18109290181092C7
S11324F09118E091FB18F091FC1881A50E942B051E
S11325000E94EA080F91FF90EF900895809181183E
S11325108F5F8093811808950FB6F8940F9260919D
S11325208E1870918F1880919018909191180F9037
S11325300FBE08959F92AF92BF92CF92DF92EF9217
S1132540FF920F931F93CF93DF9380918118811192
S1132550ADC0C0908E18D0908F18E0909018F09075
S113256091188FEFC81AD80AE80AF80AC0928E1890
S1132570D0928F18E0929018F0929118C114D1045F
S1132580E104F104B1F48091B7189091B818209146
S1132590B5183091B6183093B8182093B7189093A3
S11325A0B6188093B518809189188F5F8093891825
S11325B0B1DD8091841890918518A0918618B0910E
S11325C08718C816D906EA06FB0610F4B12C5DC0BC
S11325D0B12C0F2EFBE0AF2EF02D99249394E091B3
S11325E0B718F091B818808181110CC08FEF9FEF5C
S11325F0DC018093841890938518A0938618B09377
S1132600871843C0E091B718F091B8180780F08597
S1132610E02DC085D1858A819B81AC81BD81C8169E
S1132620D906EA06FB0648F480938418909385182B
S1132630A0938618B093871828C08E010E5F1F4F91
S1132640C8010E945108888D998D892B21F0CE01F3
S11326500E960E9451088A8D90918D18981710F447
S113266080938D18A89EC0011124B8018153974E00
S11326700E94F307E091FB18F091FC189A8D828D6B
S1132680981708F4ACCFB92CAACFE091FB18F091BD
S1132690FC18E28D8BE0E89FF0011124E153F74E22
S11326A08081823048F0BB24B39406C080918B189B
S11326B08F5F80938B18B12C80918A18882311F036
S11326C0BB24B3948B2DDF91CF911F910F91FF9079
S11326D0EF90DF90CF90BF90AF909F900895CF92EE
S11326E0DF92EF92FF920F931F93CF93DF930FB676
S11326F0F8940F9280918118815080938118809171
S1132700811881115AC08091921881112CC058C02F
S1132710D7011796ED91FC911897C085D185CE010C
S11327200E960E9451088E010E5F1F4FC8010E9431
S113273051088A8D90918D18981710F480938D18F4
S1132740D89EC0011124B8018153974E0E94F3070B
S1132750E091FB18F091FC189A8D828D981788F0FF
S1132760C0928A180EC0C0E0D0E00F2EFAEAEF2E15
S1132770F8E1FF2EF02D0F2EFBE0DF2EF02DCC2400
S1132780C394F70180818111C3CFCD2B09F0C2DC42
S1132790C0918B18CC2349F0D1E0CCDE8111D093C9
S11327A08A18C150D1F710928B1880918A18882307
S11327B031F00E94260981E003C080E001C080E07E
S11327C00F900FBEDF91CF911F910F91FF90EF906B
S11327D0DF90CF900895CF92DF92EF92FF920F9304
S11327E01F93CF93DF93EC016A017B018FDE00918D
S11327F08E1810918F18209190183091911888811B
S11328009981AA81BB81AC01BD014C0D5D1D6E1D7A
S11328107F1D081719072A073B0778F4481759073B
S11328206A077B0740F5488359836A837B830417CF
S1132830150726073707A0F40BC0481759076A077E
S11328407B07A0F0041715072607370778F013C095
S1132850CB01BA01601B710B820B930B40E084DC4B
S11328603EDF81110DC00E9426090AC048835983A6
S11328706A837B83EDCF488359836A837B83F0CF5C
S1132880DF91CF911F910F91FF90EF90DF90CF9048
S11328900895CF92DF92EF92FF926B017C01672B38
S11328A0682B692B41F032DE40E0C701B6015CDCE5
S11328B016DF811102C00E942609FF90EF90DF907D
S11328C0CF90089580918118882321F081E080932E
S11328D08A18089510928A18E091FB18F091FC1858
S11328E081A50E943505A091FB18B091FC18E091D8
S11328F0FB18F091FC182D913C91838D948D8217D7
S1132900930758F06091FB187091FC188091FB18A4
S11329109091FC18635E7F4F20D680918D18282FEC
S113292030E09BE0899FF0011124E153F74E908140
S113293091110EC04BE08150282F30E0429FF001EE
S1132940439FF00D1124E153F74E9081992399F39D
S11329509BE0929FA001939F500D1124DA01A15393
S1132960B74E1196ED91FC9112970480F581E02DFC
S11329701296FC93EE9311974E52574EE417F507B7
S113298029F444815581FD01528341839BE0929F48
S1132990F001939FF00D1124E153F74E0180F28171
S11329A0E02D208531853093FC182093FB1880930B
S11329B08D18E091FB18F091FC1881A50C942B055F
S11329C00895CF92DF92EF92FF926A017B016091AA
S11329D0FB187091FC18625F7F4F0E94140841E05D
S11329E0C701B601C1DBFF90EF90DF90CF9008954F
S11329F0CF92DF92EF92FF920F931F9368017901B8
S1132A00E091FB18F091FC18706846875787608B3B
S1132A10718B6091FB187091FC18625F7F4F0E946C
S1132A20F30741E0C701B6019FDB1F910F91FF90AF
S1132A30EF90DF90CF900895CF92DF92EF92FF92C4
S1132A40CF936A017B01C22F6091FB187091FC182F
S1132A50625F7F4F0E94F307CC2321F0CC24CA94F9
S1132A60DC2C76014C2FC701B6017EDBCF91FF90A1
S1132A70EF90DF90CF9008950F931F93CF93DF9340
S1132A80DC011796ED91FC911897C085D1858E01D4
S1132A90025F1F4FC8010E94510880918118811163
S1132AA016C00C501109C8010E9451088A8D9091DA
S1132AB08D18981710F480938D18BBE08B9FC0017C
S1132AC01124B8018153974E0E94F30705C0B80141
S1132AD08AEA98E10E94F307E091FB18F091FC1850
S1132AE09A8D828D891720F481E080938A1801C021
S1132AF080E0DF91CF911F910F9108950F931F9361
S1132B00CF93DF937068FC014083518362837383A6
S1132B10C085D1850E9451088E010E5F1F4FC801E8
S1132B200E9451088A8D90918D18981710F4809303
S1132B308D18FBE08F9FC0011124B8018153974E7B
S1132B400E94F307E091FB18F091FC189A8D828D96
S1132B50891718F481E080938A18DF91CF911F912F
S1132B600F9108950FB6F8940F9220918918FC01E3
S1132B70208340918E1850918F1860919018709115
S1132B80911841835283638374830F900FBE089519
S1132B9020918918FC01208340918E1850918F1840
S1132BA06091901870919118418352836383748368
S1132BB00895CF92DF92EF92FF920F931F93CF93DA
S1132BC0DF93FB010FB6F8940F9240918E18509149
S1132BD08F18609190187091911800811181228151
S1132BE033810F3FAFEF1A072A073A0749F1EC0187
S1132BF0C980DA80EB80FC80A0918918B881BA176B
S1132C0029F04C155D056E057F05E0F44C195D094E
S1132C106E097F09401751076207730758F4041BB4
S1132C20150B260B370B0083118322833383B0DF0C
S1132C3080E009C0108211821282138281E003C0F5
S1132C4080E001C081E00F900FBEDF91CF911F9112
S1132C500F91FF90EF90DF90CF90089581E08093E3
S1132C608A1808958091FB189091FC18089580911A
S1132C708C18882331F080918118882321F080E01A
S1132C80089581E0089582E008950F931F93CF93F0
S1132C90DF93FC01892B09F460C0828DA091FB189D
S1132CA0B091FC185A969C91891708F04AC0468541
S1132CB0578560897189772394F0A091FB18B091AE
S1132CC0FC185A969C9144E050E060E070E0491B87
S1132CD051096109710946875787608B718B2BE015
S1132CE0829FC00111248153974E2485358528176E
S1132CF03907F1F48F01EF012296CE010E945108A9
S1132D00E091FB18F091FC18828DF801828F90916C
S1132D108D18981710F480938D18FBE08F9FC001D5
S1132D201124BE018153974E0E94F30781E016C01F
S1132D30A091FB18B091FC185A968C91828F81E077
S1132D400DC0A091FB18B091FC1881E027A15A9600
S1132D509C91291718F080E001C080E0DF91CF91A9
S1132D601F910F9108950F931F93CF93DF93FC014D
S1132D70892B79F180A5815080A7228D97A12917ED
S1132D8051F181112AC0EF018F010E5F1F4FC8015D
S1132D900E9451088FA18A8F44E050E060E070E007
S1132DA0481B5109610971094E875F87688B798BCC
S1132DB090918D18981710F480938D182BE0829FB2
S1132DC0C0011124B8018153974E0E94F30781E09A
S1132DD005C080E003C080E001C080E0DF91CF91B6
S1132DE01F910F9108950F931F93CF93DF93FC01CD
S1132DF0892B09F43FC087A1861708F4862F928D8A
S1132E009817C1F120A52130A9F5828F46855785F1
S1132E1060897189772364F044E050E060E070E0F9
S1132E20481B51096109710946875787608B718B6B
S1132E302BE0929FC00111248153974E2485358540
S1132E4028173907B9F4EF018F010E5F1F4FC8012E
S1132E500E9451088A8D90918D18981710F48093D0
S1132E608D182BE0829FC0011124B8018153974E25
S1132E700E94F307DF91CF911F910F910895CF9294
S1132E80DF92EF92FF92E091FB18F091FC186685B7
S1132E90778580899189E091FB18F091FC18A091C5
S1132EA0FB18B091FC185A962C91C12CD12C7601A8
S1132EB06894C2F8C21AD108E108F108C686D78618
S1132EC0E08AF18AFF90EF90DF90CF90089580918F
S1132ED0FB189091FC18892B39F0E091FB18F091C4
S1132EE0FC1880A58F5F80A78091FB189091FC1837
S1132EF008954F925F926F927F928F929F92AF92BA
S1132F00BF92CF92DF92EF92FF920F931F934901EA
S1132F105A010FB6F8940F92E091FB18F091FC1847
S1132F2027A5223039F1E091FB18F091FC1843A455
S1132F3054A465A476A4DC01CB0180959095A0955A
S1132F40B09584219521A621B72183A794A7A5A78D
S1132F50B6A7E091FB18F091FC1881E087A7C11493
S1132F60D104E104F10431F041E0C701B601FCD819
S1132F700E9426090F900FBE0FB6F8940F92011508
S1132F80110569F0E091FB18F091FC1883A594A554
S1132F90A5A5B6A5F80180839183A283B383E091AC
S1132FA0FB18F091FC1887A58230B1F4E091FB186E
S1132FB0F091FC1883A594A5A5A5B6A5809490943A
S1132FC0A094B09488229922AA22BB2283A694A614
S1132FD0A5A6B6A681E001C080E0E091FB18F091BF
S1132FE0FC1817A60F900FBE1F910F91FF90EF9042
S1132FF0DF90CF90BF90AF909F908F907F906F9015
S11330005F904F9008950F931F93CF93DF93FC012C
S11330100FB6F8940F920115110549F083A594A5F4
S1133020A5A5B6A5E80188839983AA83BB8387A550
S113303092E097A72230B1F018F4213031F02AC081
S11330402330E9F0243001F125C003A514A525A5FA
S113305036A5402B512B622B732B43A754A765A78E
S113306076A718C043A554A565A576A54F5F5F4F05
S11330706F4F7F4F43A754A765A776A70BC043A7FD
S113308054A765A776A706C0823049F143A754A781
S113309065A776A7813029F5EF018F010E5F1F4FD9
S11330A0C8010E9451088A8D90918D18981710F4C8
S11330B080938D182BE0829FC0011124B8018153A5
S11330C0974E0E94F307E091FB18F091FC189A8D3B
S11330D0828D891740F40E94260981E005C080E0B2
S11330E003C081E001C081E00F900FBEDF91CF915A
S11330F01F910F910895EF92FF920F931F93CF9317
S1133100DF93FC010115110549F083A594A5A5A53C
S1133110B6A5E80188839983AA83BB8387A592E037
S113312097A72230B1F018F4213031F02AC02330AF
S1133130E9F0243001F125C003A514A525A536A581
S1133140402B512B622B732B43A754A765A776A75B
S113315018C043A554A565A576A54F5F5F4F6F4F73
S11331607F4F43A754A765A776A70BC043A754A7CF
S113317065A776A706C08230D9F143A754A765A7EF
S113318076A78130B9F5EF0180918118811117C0BC
S11331908F010E5F1F4FC8010E9451088A8D9091C4
S11331A08D18981710F480938D18EBE08E9FC00152
S11331B01124B8018153974E0E94F30707C0BF0141
S11331C0625F7F4F8AEA98E10E94F307E091FB185F
S11331D0F091FC189A8D828D891770F4E114F10432
S11331E019F081E0E701888381E080938A1805C0A3
S11331F080E003C081E001C081E0DF91CF911F91A5
S11332000F91FF90EF900895009721F48091FB189F
S11332109091FC180FB6F8940F92FC0127A5223068
S113322019F417A681E001C080E00F900FBE089545
S1133230CF92DF92EF92FF920F931F93FC01428390
S1133240538364837583938782870417150726073E
S11332503707C0F00C191D092E093F09868597858B
S1133260A089B189081719072A073B0700F5BF0190
S11332706E5F7F4F80910519909106190E94140882
S113328080E018C00C151D052E053F0528F44C15CB
S11332905D056E057F0568F4BF016E5F7F4F809109
S11332A00719909108190E94140880E003C081E076
S11332B001C081E01F910F91FF90EF90DF90CF90BC
S11332C008950FB6F8940F92809103199091041900
S11332D0892BE9F484E199E10E94DE0789E099E110
S11332E00E94DE0784E199E19093081980930719FD
S11332F089E099E1909306198093051940E067E00D
S11333008AE00E94020B90930419809303190F9092
S11333100FBE0895EF92FF920F93D3DF80910319AC
S113332090910419892B91F00F2EF1E0EF2EF9E121
S1133330FF2EF02D03E020E030E045E550E06CE2A4
S113334074E084E091E00E942B1101C080E00F91B1
S1133350FF90EF9008958F929F92AF92BF92CF9279
S1133360DF92EF92FF920F931F93CF93DF93CDB72A
S1133370DEB727970FB6F894DEBF0FBECDBFE0913E
S11333800319F0910419309781F169832A833B83EF
S11333904C835D839F838E836630F4F468DC8230D3
S11333A069F400E0A7019601BE016F5F7F4F809131
S11333B00319909104190E94300B18C000E020E01A
S11333C030E0A901BE016F5F7F4F80910319909196
S11333D004190E94300B0AC020E0A801BE016F5FEF
S11333E07F4FCF010E94EB0B01C080E027960FB600
S11333F0F894DEBF0FBECDBFDF91CF911F910F9127
S1133400FF90EF90DF90CF90BF90AF909F908F9000
S113341008952F923F924F925F926F927F928F9274
S11334209F92AF92BF92CF92DF92EF92FF920F934F
S11334301F93CF93DF931C016FD82B013C01809124
S1133440FD189091FE18A091FF18B091001948162C
S113345059066A067B0608F053C03BC00780F08516
S1133460E02D80809180A280B380C085D1858E01BB
S11334700E5F1F4FC8010E945108EC89FD89CE01DF
S113348019958F8982FF25C08E859F85A889B98962
S1133490880D991DAA1DBB1D88169906AA06BB0690
S11334A070F48A839B83AC83BD83DB87CA87B801AE
S11334B080910719909108190E9414080AC0C12C20
S11334C0D12C760100E010E0A501940160E0CE016A
S11334D042DFE0910719F091081980818111BECF74
S11334E080910519909106199093081980930719F2
S11334F0F0930619E093051981E0F101808302C07D
S1133500F10110824092FD185092FE186092FF184B
S113351070920019C301B201DF91CF911F910F91F5
S1133520FF90EF90DF90CF90BF90AF909F908F90DF
S11335307F906F905F904F903F902F9008950895E3
S1133540279A2F9A2FEF80E792E0215080409040F5
S1133550E1F700C000001F9AF5CF279A2F9A2FEFAA
S113356087EA91E6215080409040E1F700C00000D6
S11335701F9AF5CF0F2EFEE6AF2EF2E0BF2EF02DF0
S11335800F2EF4E38F2EF4E09F2EF02DC9EAD2E043
S11335900F2EF6E76F2EF4E07F2EF02D0F2EF9EBB1
S11335A04F2EF4E05F2EF02D0F2EFBEB2F2EF4E0C8
S11335B03F2EF02D0F2EF4EFCF2EDD24D394E12CEB
S11335C0F12CF02D01E021E042E050E060E070E0F9
S11335D080917F1A9091801A0E944E0561FFEACF74
S11335E000D290E09093911A8093901A009701F181
S11335F0BF92AF929F938F939F928F92DF93CF93BB
S11336000E94322D62E370E080E090E042D9E9D17B
S113361090E09093911A8093901A2DB73EB7285F4B
S11336203F4F0FB6F8943EBF0FBE2DBF009701F772
S11336306CE370E080E090E02CD9E8D190E09093C6
S1133640911A8093901A009701F1BF92AF929F93C1
S11336508F937F926F92DF93CF930E94322D62E318
S113366070E080E090E015D9D1D190E09093911A68
S11336708093901A2DB73EB7285F3F4F0FB6F8944A
S11336803EBF0FBE2DBF009701F764E170E080E0FC
S113369090E0FFD8CCD10E94A904DED10E94EF04AF
S11336A00E9492045F924F92CBD07F936F933F928C
S11336B02F92DF93CF930E94322D0E94D80424EDE1
S11336C034E03F932F93BCD07F936F9386ED94E0C7
S11336D09F938F93DF93CF930E94322D48E050E065
S11336E060E070E080917D1A90917E1A0E940E062F
S11336F08DB79EB740960FB6F8949EBF0FBE8DBF90
S113370059CFEF92FF920F9354D1E12CF12C03E0A7
S113371020E030E048E851E06CEE74E08AEB9AE196
S11337200E942B110F91FF90EF9008950F938091B9
S1133730841A9091851A892B89F481E00E94D00B18
S11337409093851A8093841A009741F000E020E05A
S113375030E0A90160E070E00E94300B80917B1A98
S113376090917C1A892B89F481E00E94D00B90936C
S11337707C1A80937B1A009741F000E020E030E04F
S1133780A90160E070E00E94300B8091821A909150
S1133790831A892B89F481E00E94D00B9093831AB9
S11337A08093821A009741F000E020E030E0A90104
S11337B060E070E00E94300B0E941D05A2DF0E94B1
S11337C0DF020F9108950E943B059093801A809325
S11337D07F1A892B21F488EF94E00E94452D0E94E2
S11337E03B0590937E1A80937D1A892B21F488EFF0
S11337F094E00C94452D089581B1816881B90E94AB
S1133800250580E00E94EA27DEDF90DF85E072D0A4
S113381060E070E081E0E6D383E00C944504089511
S1133820EBDF8CE595E00E94452D0E944A12C2E62A
S1133830D5E0DF93CF930E94322D0F900F90F9CFF4
S113384004D06894B11150C0089533D088F09F57C4
S113385090F0B92F9927B751A0F0D1F0660F771FD8
S1133860881F991F1AF0BA95C9F712C0B13081F0B8
S11338703AD0B1E0089537C0672F782F8827B85F12
S113388039F0B93FCCF3869577956795B395D9F719
S11338903EF490958095709561957F4F8F4F9F4F23
S11338A0089557FD9058440F551F59F05F3F71F02C
S11338B04795880F97FB991F61F09F3F79F0879593
S11338C00895121613061406551FF2CF4695F1DF1C
S11338D008C0161617061806991FF1CF86957105AC
S11338E0610508940895E894BB2766277727CB01E0
S11338F097F90895E2E9FAE127E433E2318320837A
S11339002AE433E23383228325E533E235832483B7
S113391029E533E2378326832FE533E23187208795
S11339202BE633E23387228720E733E23587248787
S11339302CE733E2378726872CE533E2318B208B63
S113394021E833E2338B228B2EE833E2358B248B50
S1133950682FCF013AC108956530F1F4FA018081EE
S11339608F7390E0982F88272181822B90930902EE
S1133970809308028281F0E48F9FC0011124FA0130
S1133980238126952695822B909307028093060225
S113399081E080931F190895643051F080E090E431
S11339A09093070280930602909309028093080281
S11339B008950F931F930CEA1CE120E034E244EFD6
S11339C050E060E087E20E942428909321198093BC
S11339D0201921E0892B09F020E0822F1F910F91FB
S11339E008958091201990912119009759F040E091
S11339F060E070E00E947528843031F410921F1941
S1133A0080E0089582E0089583E00895809120196C
S1133A1090912119009739F064E00E94C128853003
S1133A2021F083E0089582E0089580E00895609194
S1133A3008027091090280E090E00E949F2A20E031
S1133A4030E048EC52E40E94042B20E038EF4FE7CA
S1133A5056E40C94342A089560910602709107028A
S1133A6080E090E00E949F2A20E030E045E253E4A9
S1133A700E94042B20E038EF4FE756E40E94342ADA
S1133A8020E030E040E252E40C94CD290895CF9335
S1133A90DF9390E0FC01EE0FFF1FE80FF91FEE0F1C
S1133AA0FF1FEE5DF64E238121110AC0EF01E09164
S1133AB09A1AF0919B1A6A8188819981199512C08A
S1133AC0DC01AA0FBB1FED01C80FD91FCC0FDD1FEE
S1133AD0CE5DD64EE091A41AF091A51A6A81888130
S1133AE099811995DF91CF910895CF93DF9390E059
S1133AF0FC01EE0FFF1FE80FF91FEE0FFF1FEE5D35
S1133B00F64E238121110AC0EF01E091A41AF0912D
S1133B10A51A6A8188819981199512C0DC01AA0FBE
S1133B20BB1FED01C80FD91FCC0FDD1FCE5DD64ED4
S1133B30E0919A1AF0919B1A6A818881998119956A
S1133B40DF91CF9108950F2EF2E9CF2EFAE1DF2E07
S1133B50F02D04E0C2E2D9E110E08C81813069F0FB
S1133B60E8F0823039F5D6011C96ED91FC911D9751
S1133B706A818881998119951DC08D818F5F8A30F2
S1133B8010F48D8317C01D82D6011C96ED91FC9113
S1133B901D976A818881998119950CC08D8188232C
S1133BA031F0812FA2DF8D8181508D8303C00C837E
S1133BB0812F6DDF1F5F2696143079F665E070E083
S1133BC080E090E00E944914C5CFCF92DF92EF923B
S1133BD0FF920F931F93CF93DF93062F0F2EF2E9DB
S1133BE0EF2EFAE1FF2EF02DD7011896ED91FC91FE
S1133BF0199766E087E290E01995C2E2D9E10F2EA9
S1133C00F8E2CF2ED12CF02DD982C88286E08A83A7
S1133C101B8214E01C8380E03ADFD7011896ED91F3
S1133C20FC91199767E087E290E01995DF82CE82D4
S1133C3087E0888719861A8781E029DFD7011896DB
S1133C40ED91FC91199765E083E390E01995D70114
S1133C501896ED91FC91199761E084E390E0199531
S1133C6084E390E09D878C8785E08E871F86188B80
S1133C7082E00DDFD7011896ED91FC91199764E06D
S1133C8081E091E01995D7011896ED91FC9119976F
S1133C9061E082E091E0199582E091E09B8B8A8B50
S1133CA01C8B1D8A1E8B83E0F2DEE12CF12C20E0BC
S1133CB030E040EC50E063E875E083EA9DE10E9467
S1133CC02B11DF91CF911F910F91FF90EF90DF9017
S1133CD0CF9008950F931F93CF93DF93C82FD0E015
S1133CE08E01000F111FD801AC0FBD1FAA0FBB1FFF
S1133CF0AE5DB64EE0919E1AF0919F1A12966C91A9
S1133D0012978D919C911995C00FD11FCC0FDD1F77
S1133D10CE5DD64E82E08C83DF91CF911F910F91BF
S1133D200895282F30E0F901EE0FFF1FE20FF31F73
S1133D30EE0FFF1FEE5DF64E93E09483D6CE08950A
S1133D40282F30E0F901EE0FFF1FE20FF31FEE0FF3
S1133D50FF1FEE5DF64E94E0948399CE089590E0B3
S1133D60FC01EE0FFF1FDF01A80FB91FAA0FBB1F35
S1133D70AE5DB64E24E015962C931597FD01148282
S1133D80089590E0FC01EE0FFF1FDF01A80FB91F9B
S1133D90AA0FBB1FAE5DB64E21E015962C93159766
S1133DA0FD01148208950F931F93CF93DF931F9205
S1133DB01F92CDB7DEB78C0119822DC0E0919E19F8
S1133DC0EC3250F481E08E0F80939E19F0E0E053C2
S1133DD0F64E8A81808302C010929E198A818A30AD
S1133DE0D1F440919E1950E0FA01E253F64E10824C
S1133DF0415051099E012F5F3F4F60ED79E1809161
S1133E00A1199091A2190E94A50F898181110E9484
S1133E10260910929E19BE016E5F7F4FC80148D6D5
S1133E20882361F20F900F90DF91CF911F910F9132
S1133E3008950F931F93CF93DF938C01EB0180912F
S1133E40A1199091A2190E94BB0EB8018AE399E1CD
S1133E500E94132D209779F0EAE3F9E10190002004
S1133E60E9F7319780E290E091838083BE018AE391
S1133E7099E10E94082DEAE3F9E1DF010D900020A9
S1133E80E9F711978DE09AE011969C938E93129620
S1133E901C9201900020E9F73197EA53F941AE2FC3
S1133EA08AE399E1AC016A2F8091A3199091A41936
S1133EB0AFD5811111C008E215E020E030E04DE2F9
S1133EC050E06AE27AE18091A1199091A2190E94CE
S1133ED0E80F8AE29AE102C080E090E0DF91CF919E
S1133EE01F910F9108952F923F924F925F926F927C
S1133EF07F928F929F92AF92BF92CF92DF92EF9276
S1133F00FF920F931F93CF93DF935C01FC01019009
S1133F100020E9F731976F01C81AD90A5C2C0F2EDB
S1133F20F4E28F2EF8E09F2EF02DE12CF12C4C2C96
S1133F303701F40101811281E80109900020E9F7B9
S1133F402197C01BD10B3C2EF9E0CF16D10458F0B9
S1133F50F4012080FEE02F1206C0B801C5010E94C2
S1133F60E32C892B09F5442D351408F44C2F50E02B
S1133F70B801C5010E941A2D892B49F4F301EE0FF3
S1133F80FF1FE60DF71DEC5DF74F20800DC08FEF8E
S1133F90E81AF80AE3E08E0E911CF1E1EF16F10441
S1133FA039F66894222424F8822DDF91CF911F9151
S1133FB00F91FF90EF90DF90CF90BF90AF909F90C4
S1133FC08F907F906F905F904F903F902F900895C7
S1133FD030DF89CF08958091A1199091A2190C9492
S1133FE0BB0E08958F929F92AF92CF92EF920F9350
S1133FF01F93CF93C82F8B0141E060E070E088EC01
S113400090E00E948F0E9093A2198093A1191093AF
S1134010A01900939F190F2EF3ED8F2EFEE19F2E12
S1134020F02D6894AA24A6F86894CC24C6F8E12C50
S113403000E023E040E051EE60E070E08C2F2CD4EF
S11340409093A4198093A319E0919A1AF0919B1A62
S113405064E087E091E01995CF911F910F91EF9063
S1134060CF90AF909F908F900895882349F0E0916E
S1134070A41AF091A51A64E088E091E019950895D6
S1134080E0919A1AF0919B1A64E088E091E0199506
S1134090089560E070E08AEA95E0CBDEEAE2FAE1B6
S11340A001900020E9F73197EA52FA4181E07597CF
S11340B008F080E00895CF93DF93EC0160E070E0B6
S11340C08BEB95E0B6DEEAE2FAE101900020E9F735
S11340D0EB53FA4139F46AE27AE1CE010E94132DDE
S11340E080E002C0188281E0DF91CF910895FC0145
S11340F001900020E9F79F01215131092817390760
S113410029F4BC0189EE95E063CF089589E0089510
S1134110FC0101900020E9F79F0121513109281782
S1134120390729F4BC0188EF95E052CF089589E05E
S11341300895FC0101900020E9F79F012152310903
S11341402817390729F4BC0187E096E041CF089588
S113415089E0089560E070E086E496E039CF089540
S11341600F931F93E82FF0E0EE0FFF1FE05EF74F71
S1134170608171818FE496E02BDF811114C008E225
S113418015E020E030E04DE250E06AE27AE180910F
S1134190A1199091A2190E94E80F882321F08AE2C4
S11341A09AE1A1DE03C08AE29AE19DDE1F910F919C
S11341B008950F931F93CF93DF931F92CDB7DEB76C
S11341C0DB0111969C911197953108F0B4C09923A5
S11341D081F160E070E0272F30E0462F50E0FD01D0
S11341E0E40FF51F928192959F709A3010F0995CBC
S11341F001C0905DF901E554F64E90832F5F3F4F67
S1134200FD01E40FF51F92819F70492F50E04A3061
S1134210510514F0995C01C0905DF901E554F64E26
S113422090837E5F6F5F11969C911197691798F246
S113423001C070E0E72FF0E0E554F64E10824C9197
S1134240811103C088E596E002C08AE596E02BEB75
S113425039E13F932F931F924F939F938F938EE552
S113426096E09F938F938DEF99E19F938F930E9494
S1134270752D60E070E08DEF99E1AADE0FB6F89439
S1134280DEBF0FBECDBF811159C008E215E020E0AA
S113429030E04DE250E06AE27AE18091A119909118
S11342A0A2190E94E80F882309F447C08AE29AE120
S11342B01ADE8E3009F042C087E0898380919F190D
S11342C09091A019892BA9F1BE016F5F7F4F8AE2FB
S11342D09AE168D18093A519E981F0E0E65DF54E95
S11342E0DF010D900020E9F71197AE1BBF0BAA2345
S11342F091F0BB27CD0101979C0112F42F5F3F4F32
S1134300359527952093A619AF014F5F5F4F64E160
S113431087EA99E173D101E010E020E030E046E162
S113432050E065EA79E180919F199091A0190E946B
S1134330FA0E8EE003C084E101C080E00F90DF91AB
S1134340CF911F910F910895813019F06EE676E0B8
S113435002C067E477E082E796E03ACE08959F933F
S11343608F9383EA96E09F938F938DEF99E19F93C8
S11343708F930E94752D60E070E08DEF99E128DE47
S11343800F900F900F900F900F900F9008952F9211
S11343903F924F925F926F927F928F929F92AF92D1
S11343A0BF92CF92DF92EF92FF920F931F93CF931E
S11343B0DF93CDB7DEB7A0970FB6F894DEBF0FBE7C
S11343C0CDBF60ED76E08CED96E033DD8CDD8111C0
S11343D0A3C080E2E1E2F2E0DE01119601900D92C9
S11343E08A95E1F79E012F5F3F4F6901E12CF12C83
S11343F00F2EF8EEAF2EF6E0BF2EF02D0DEF19E1E3
S11344000F2EF1E04F2EF7E05F2EF02D0F2EF8E186
S11344108F2EF7E09F2EF02D0F2EF2E36F2EF7E094
S11344207F2EF02D3E2C2F2CFF92EF92BF92AF9255
S11344301F930F930E94752D60E070E0C801F9DCB2
S113444052DD0F900F900F900F900F900F908111ED
S113445063C032E03E15E8F4F60183818F938281D4
S11344608F9381818F9380818F93FF92EF925F92DC
S11344704F921F930F930E94752D60E070E0C80166
S1134480D8DC31DD0FB6F894DEBF0FBECDBF81118D
S113449043C02F923F929F928F921F930F930E943B
S11344A0752D60E070E0C801C4DC1DDD0F900F9035
S11344B00F900F900F900F9081112EC02F923F926A
S11344C07F926F921F930F930E94752D60E070E0AE
S11344D0C801AFDC08DD0F900F900F900F900F9084
S11344E00F90811119C03FEFE31AF30A84E0C80E5C
S11344F0D11C98E0E916F10409F094CF60E070E073
S11345008AE497E096DCEFDC811106C060E070E09D
S11345108BE597E08EDCE7DCA0960FB6F894DEBF5F
S11345200FBECDBFDF91CF911F910F91FF90EF9000
S1134530DF90CF90BF90AF909F908F907F906F90BF
S11345405F904F903F902F900895EF92FF920F93BA
S11345501F93CF93DF93EC018B017A0181E0F4DEAA
S113456081110DC0CE01D4DD811109C0C801E1DD86
S1134570811105C0C701BBDD811101C0EBDDDF91F5
S1134580CF911F910F91FF90EF90089590E0FC015F
S1134590EE0FFF1F8E0F9F1FFC01EC5DF74F818113
S11345A092810895DC01009729F1FB012081FC012F
S11345B001900020E9F73197E81BF90B822F90E076
S11345C0E817F907C8F080E008C0880F382F330FC8
S11345D0330F830F8053890F2F5FFD01E20FF11D0D
S11345E0908130ED390F3A3010F49111EECFFB0188
S11345F02083089580E0089580E008950F931F9329
S1134600CF93DF93DC01EA012097E1F1FA010190F5
S11346100020E9F73197E41BF50B329710F532C00F
S11346208D01040F151F30E0AE01420F531FFA0134
S11346309081913428F09753592F5295507F03C09D
S1134640592F5295507F2C0F3D1FF90191819134C0
S113465010F0975301C09053950FF80190838F5F2A
S113466001C080E0282F220F482F50E0FE01019066
S11346700020E9F73197EC1BFD0B4E175F0710F490
S11346808613CECFDF91CF911F910F910895FC0136
S113469080810895FC01208181E090E002C0880FB0
S11346A0991F6A95E2F782230895FC01808186238D
S11346B00895FC0160830895FC0110820895FC01B3
S11346C0408121E030E002C0220F331F6A95E2F7F7
S11346D0242B20830895FC012081622B608308959C
S11346E0FC01408121E030E002C0220F331F6A95B3
S11346F0E2F7242720830895FC0120816227608348
S11347000895FC01908121E030E002C0220F331FA4
S11347106A95E2F72095292320830895FC0190816E
S1134720609569236083089580915A1A860F809357
S11347305A1A90915D1A913079F028F09230A9F0CC
S1134740933019F108956F3F09F048C010925A1A36
S113475081E080935D1A0895663809F03FC0109295
S1134760591A82E080935D1A0895E091591A81E004
S11347708E0F8093591AF0E0E95AF54E6083823027
S113478069F583E080935D1A08959091591A21E0A8
S1134790290F2093591A963009F581110EC0E7E5C7
S11347A0FAE1808190E0982F88272181820F911D62
S11347B090935F1A80935E1A04C010925F1A10924D
S11347C05E1A10925D1AE0915B1AF0915C1A3097B0
S11347D029F080915E1A90915F1A199508958F922D
S11347E09F92AF92CF92EF920F93CF93DF93EB010F
S11347F00F2EF4E98F2EF3E29F2EF02D6894AA2455
S1134800A4F86894CC24C4F8E12C00E023E040E848
S113481055E260E070E040D09093611A8093601A92
S1134820D0935C1AC0935B1ADF91CF910F91EF90F4
S1134830CF90AF909F908F900895CF93DF93CDB793
S1134840DEB729970FB6F894DEBF0FBECDBF89E05F
S1134850E1E4F2E09E012F5F3F4FD90101900D92F8
S11348608A95E1F710925F1A10925E1A8091601A8D
S11348709091611A009731F0422F532F69E0C8D00C
S113488080E001C082E029960FB6F894DEBF0FBE27
S1134890CDBFDF91CF9108952F923F924F925F92B7
S11348A06F927F928F929F92AF92CF92EF92FF92EC
S11348B00F931F93CF93DF93CDB7DEB7F82E2A0162
S11348C03B0188E090E04AD78C018F2D90E0880F5F
S11348D0991FFC01EE59F54E11830083FC01E65F3C
S11348E0FD4F80819181D8018D939C936C2D70E054
S11348F084E090E019D71C0161E070E086E090E06C
S113490013D77C014C2DB1012CD5F801F582E4823A
S11349106A2D70E084E090E007D71C0161E070E04C
S113492086E090E001D77C014A2DB1011AD5D80167
S11349301396FC92EE92129717969C928E9216976B
S1134940FFB6F894ED91FC911197369780818260BF
S113495080838D909C90C301B201F1D520E030E0BA
S113496040E051E451D69B01AC0160E074E284E77D
S11349709BE47AD520E030E040E85FE30ED50E9466
S1134980251CF40132976083D801ED91FC911197B5
S1134990359788E98083ED91FC91349786E0808394
S11349A0FFBEC801DF91CF911F910F91FF90EF904F
S11349B0CF90AF909F908F907F906F905F904F902B
S11349C03F902F900895CF93DF93EC01EA81FB8110
S11349D0938182812581981B922384819817A1F069
S11349E0938126952923A081B181A20FB11D6C93D7
S11349F09F5F258192239383E881F9813597808194
S1134A008062808380E001C082E0DF91CF910895CD
S1134A10EF92FF920F931F93CF93DF937C01DC01FE
S1134A201296ED91FC91139793818281981B858155
S1134A3098238481891B861798F1662341F1842F7A
S1134A40952FDC016150462F50E04F5F5F4F480FB8
S1134A50591FE701EA81FB81938182812581981B9B
S1134A6092238481981779F08C9193812695292338
S1134A70608171818B01020F111DE80188839F5FA2
S1134A808581982393831196A417B50711F7D7014D
S1134A90ED91FC91359780818062808380E001C034
S1134AA082E0DF91CF911F910F91FF90EF900895D5
S1134AB0DC011496ED91FC911597938182819817EE
S1134AC089F09281858186958923A081B181A80F7F
S1134AD0B11D8C91DB018C939F5F85819823928318
S1134AE080E0089583E008951F920F920FB60F920D
S1134AF011240BB60F922F933F934F935F936F93B1
S1134B007F938F939F93AF93BF93CF93DF93EF9351
S1134B10FF93A091621AB091631A109711F16091FA
S1134B20C6001496ED91FC9115979381828125819D
S1134B30981B92238481981761F0838126952823FA
S1134B40C081D181C20FD11D68838F5F9581892374
S1134B5083831696ED91FC911797309711F0CD0150
S1134B601995FF91EF91DF91CF91BF91AF919F91F3
S1134B708F917F916F915F914F913F912F910F9002
S1134B800BBE0F900FBE0F901F9018951F920F929F
S1134B900FB60F9211240BB60F922F938F939F93FE
S1134BA0AF93BF93EF93FF93E091621AF091631A6E
S1134BB03097B9F00280F381E02D938182819817B8
S1134BC0B1F092818581282F26952923A081B18176
S1134BD0A20FB11D2C919F5F892382832093C6006D
S1134BE00BC0E1ECF0E080818F7D808305C0E1ECB7
S1134BF0F0E080818F7D8083FF91EF91BF91AF9131
S1134C009F918F912F910F900BBE0F900FBE0F901D
S1134C101F9018951F920F920FB60F9211240BB686
S1134C200F922F933F934F935F936F937F938F9341
S1134C309F93AF93BF93CF93DF93EF93FF93A09191
S1134C40641AB091651A109711F16091CE00149610
S1134C50ED91FC911597938182812581981B922374
S1134C608481981761F0838126952823C081D1819E
S1134C70C20FD11D68838F5F958189238383169624
S1134C80ED91FC911797309711F0CD011995FF9193
S1134C90EF91DF91CF91BF91AF919F918F917F91D0
S1134CA06F915F914F913F912F910F900BBE0F9099
S1134CB00FBE0F901F9018951F920F920FB60F9270
S1134CC011240BB60F922F938F939F93AF93BF939F
S1134CD0EF93FF93E091641AF091651A3097B9F05D
S1134CE00280F381E02D938182819817B1F0928143
S1134CF08581282F26952923A081B181A20FB11D7A
S1134D002C919F5F892382832093CE000BC0E9EC12
S1134D10F0E080818F7D808305C0E9ECF0E0808144
S1134D208F7D8083FF91EF91BF91AF919F918F9180
S1134D302F910F900BBE0F900FBE0F901F901895E0
S1134D401F920F920FB60F9211240BB60F922F934E
S1134D503F934F935F936F937F938F939F93AF93FF
S1134D60BF93CF93DF93EF93FF93A091661AB09113
S1134D70671A109711F16091D6001496ED91FC9189
S1134D801597938182812581981B9223848198179A
S1134D9061F0838126952823C081D181C20FD11D62
S1134DA068838F5F9581892383831696ED91FC91A7
S1134DB01797309711F0CD011995FF91EF91DF917D
S1134DC0CF91BF91AF919F918F917F916F915F919F
S1134DD04F913F912F910F900BBE0F900FBE0F90EC
S1134DE01F9018951F920F920FB60F9211240BB6B5
S1134DF00F922F938F939F93AF93BF93EF93FF9350
S1134E00E091661AF091671A3097B9F00280F38145
S1134E10E02D938182819817B1F092818581282FAA
S1134E2026952923A081B181A20FB11D2C919F5FEA
S1134E30892382832093D6000BC0E1EDF0E08081CA
S1134E408F7D808305C0E1EDF0E080818F7D8083DC
S1134E50FF91EF91BF91AF919F918F912F910F90FF
S1134E600BBE0F900FBE0F901F9018951F920F92BC
S1134E700FB60F9211240BB60F922F933F934F93BB
S1134E805F936F937F938F939F93AF93BF93CF93CE
S1134E90DF93EF93FF93A091681AB091691A10976A
S1134EA011F1609136011496ED91FC91159793815F
S1134EB082812581981B92238481981761F08381D4
S1134EC026952823C081D181C20FD11D68838F5FAD
S1134ED09581892383831696ED91FC9117973097DA
S1134EE011F0CD011995FF91EF91DF91CF91BF9111
S1134EF0AF919F918F917F916F915F914F913F916E
S1134F002F910F900BBE0F900FBE0F901F9018950E
S1134F101F920F920FB60F9211240BB60F922F937C
S1134F208F939F93AF93BF93EF93FF93E091681A8E
S1134F30F091691A3097B9F00280F381E02D9381E2
S1134F4082819817B1F092818581282F2695292393
S1134F50A081B181A20FB11D2C919F5F892382830F
S1134F60209336010BC0E1E3F1E080818F7D8083E3
S1134F7005C0E1E3F1E080818F7D8083FF91EF91B3
S1134F80BF91AF919F918F912F910F900BBE0F9076
S1134F900FBE0F901F901895CF93DF931F92CDB73C
S1134FA0DEB7BE016F5F7F4F80916A1A90916B1AD2
S1134FB07FDD8111F6CF898190E00F90DF91CF9151
S1134FC00895682F80916A1A90916B1AFCDC80E036
S1134FD090E008958F929F92AF92CF92EF920F93A9
S1134FE0812C912C6894AA24A7F86894CC24C7F83F
S1134FF0E12C00E023E040E051EE60E070E04CDCA6
S113500090936B1A80936A1AECEAFAE182E192E0D7
S113501091838083938382830F91EF90CF90AF909D
S11350209F908F90089580917A1A81110CC08CE022
S11350308093B8008FEF8093BB0084E08093BC0022
S113504081E080937A1A0895AF92BF92CF92DF9253
S1135050EF92FF920F931F93CF93DF93A82EB62E58
S113506069017A0184E090E079D3EC01892B61F144
S1135070A88281E0B81212C0C701B60120EA36E85E
S113508041E050E027D3DA01C9014097A109B109F1
S1135090B695A79597958795898311C0C701B601E1
S11350A020E83AE146E050E015D3DA01C90140971F
S11350B0A109B109B695A7959795879589831B830F
S11350C00A838C2F9D2F02C080E090E0DF91CF9166
S11350D01F910F91FF90EF90DF90CF90BF90AF9012
S11350E008958091BC0081700895FF920F931F93DF
S11350F0CF93DF930097D1F14A30D0F5F42E8B0192
S1135100EC01EFDF811136C080916D1A90916E1A17
S1135110C817D90741F087DF89818093B800D093FD
S11351206E1AC0936D1A81E08F0D80936F1A888177
S1135130880F8093701AFF2089F0F801A1E7BAE183
S11351404FEF4F0D642F70E0CB010196B801680F4B
S1135150791F81918D93E617F707D9F788EF80932C
S1135160200285EA8093BC0084E005C086E003C089
S113517087E001C082E0DF91CF911F910F91FF90F2
S113518008951F93CF93DF93009729F16B3028F58F
S1135190162FEC01A6DF811122C080916D1A909127
S11351A06E1AC817D90741F03EDF89818093B80091
S11351B0D0936E1AC0936D1A10936F1A8881880F5A
S11351C081608093701A88EF8093200285EA80932F
S11351D0BC0085E005C086E003C087E001C082E032
S11351E0DF91CF911F9108951F920F920FB60F92E6
S11351F011240BB60F922F933F934F935F936F93AA
S11352007F938F939F93AF93BF93EF93FF93E0911B
S1135210B9008E2F90E0FC013897E135F10508F0D4
S113522075C08827E458FF4F8F4F76C210926C1ACE
S1135230E0916C1A80916F1AE81770F481E08E0F78
S113524080936C1AF0E0E059F54E80818093BB00A6
S113525085E88093BC0072C084E98093BC0080918F
S11352606D1A90916E1ADC011296ED91FC911397D0
S1135270309709F463C020E040E050E064E0199501
S11352805DC0E0916C1A81E08E0F80936C1A80915E
S1135290BB00F0E0E059F54E80838091B900803482
S11352A011F410926C1A20916C1A30E080916F1AEC
S11352B090E001972817390724F485EC8093BC000B
S11352C03DC085E88093BC0039C08091BB00E0916B
S11352D06C1AF0E0E059F54E808384E98093BC00B9
S11352E080916D1A90916E1ADC011296ED91FC91E9
S11352F01397309719F120916F1A40E75AE165E04E
S113530019951CC085EA8093BC0018C08091B9002F
S11353108093200284E08093BC0080916D1A909168
S11353206E1ADC011296ED91FC911397309731F0CF
S113533020E040E050E0609120021995FF91EF9148
S1135340BF91AF919F918F917F916F915F914F9199
S11353503F912F910F900BBE0F900FBE0F901F9097
S11353601895FC01411101C01AD3842F90E09C01CF
S11353702150310982239323892B09F010D341381A
S113538008F00DD3128213824483440F41504583A5
S11353907183608380E090E008955058BB27AA276A
S11353A00ED021C112D130F017D120F031F49F3F3B
S11353B011F41EF407C10EF4E095E7FBFDC0E92FDC
S11353C00E94511C78F3BA17620773078407950784
S11353D020F079F4A6F50C94731C0EF4E0950B2ED2
S11353E0BA2FA02D0B01B90190010C01CA01A00133
S11353F01124FF27591B99F0593F50F4503E68F18E
S11354001A16F040A22F232F342F4427585FF3CFCE
S1135410469537952795A795F0405395C9F77EF49F
S11354201F16BA0B620B730B840BBAF09150A1F0E8
S1135430FF0FBB1F661F771F881FC2F70EC0BA0F6E
S1135440621F731F841F48F4879577956795B795F6
S1135450F7959E3F08F0B1CF9395880F08F09927F0
S1135460EE0F9795879508950DD0BDC0B5D048F03F
S1135470ACD038F021F45F3F21F09EC051110C9460
S1135480741CA0C00E94511C88F39923B9F35523BE
S1135490A1F3951B550BBB27AA2762177307840733
S11354A038F09F5F5F4F220F331F441FAA1FA9F3D9
S11354B034D00E2E3AF0E0E831D091505040E695C9
S11354C0001CCAF72AD0FE2F28D0660F771F881F2A
S11354D0BB1F261737074807AB07B0E809F0BB0B1B
S11354E0802DBF01FF2793585F4F32F09E3F510537
S11354F070F062C00C94741C5F3FE4F3983ED4F3E4
S1135500869577956795B795F7959F5FC9F7880F47
S1135510911D9695879597F90895E1E0660F771F99
S1135520881FBB1F621773078407BA0720F0621B2A
S1135530730B840BBA0BEE1F88F7E0950895E8947B
S113554009C097FB3EF490958095709561957F4FC7
S11355508F4F9F4F9923A9F0F92F96E9BB27939575
S1135560F695879577956795B795F111F8CFFAF485
S1135570BB0F11F460FF1BC06F5F7F4F8F4F9F4FB6
S113558016C0882311F096E911C0772321F09EE814
S1135590872F762F05C0662371F096E8862F70E07A
S11355A060E02AF09A95660F771F881FDAF7880F54
S11355B09695879597F9089597F99F6780E870E025
S11355C060E008959FEF80EC089500240A94161675
S11355D0170618060906089500240A9412161306DD
S11355E0140605060895092E0394000C11F488236B
S11355F052F0BB0F40F4BF2B11F460FF04C06F5F87
S11356007F4F8F4F9F4F08950CD0EDCFDEDF28F0F2
S1135610E3DF18F0952309F0CFCFD4CF11240C94F5
S1135620741C0E94511C90F3959FC1F3950F50E098
S1135630551F629FF001729FBB27F00DB11D639F40
S1135640AA27F00DB11DAA1F649F6627B00DA11DE6
S1135650661F829F2227B00DA11D621F739FB00D8C
S1135660A11D621F839FA00D611D221F749F3327FC
S1135670A00D611D231F849F600D211D822F762F95
S11356806A2F11249F57504092F0E9F088234AF082
S1135690EE0FFF1FBB1F661F771F881F91505040DE
S11356A0A9F79E3F510578F087CF0C94741C5F3F97
S11356B0E4F3983ED4F3869577956795B795F79577
S11356C0E7959F5FC1F7FE2B880F911D96958795EF
S11356D097F90895A1E21A2EAA1BBB1BFD010DC068
S11356E0AA1FBB1FEE1FFF1FA217B307E407F5078E
S11356F020F0A21BB30BE40BF50B661F771F881F6A
S1135700991F1A9469F760957095809590959B01FF
S1135710AC01BD01CF010895EE0FFF1F881F8BBFA1
S11357200790F691E02D19940F931F93CF93DF9375
S1135730869F8001879F100D969F100D1124C8012C
S11357400DD0EC01009721F0A80160E070E034D1A5
S1135750CE01DF91CF911F910F9108950F931F9365
S1135760CF93DF938230910510F482E090E0E091D2
S1135770AA1AF091AB1A20E030E0A0E0B0E0309734
S113578019F1408151810281138148175907C8F0EA
S11357908417950769F4109731F012960C931297B9
S11357A013961C9327C00093AA1A1093AB1A22C015
S11357B02115310519F04217530718F49A01BD0158
S11357C0EF01DF01F801DBCF21153105F9F0281BCA
S11357D0390B2430310580F48A819B816115710570
S11357E021F0FB019383828304C09093AB1A8093CE
S11357F0AA1AFE01329644C0FE01E20FF31F819300
S1135800919322503109398328833AC02091A81AF0
S11358103091A91A232B41F4209102023091030202
S11358203093A91A2093A81A209100023091010202
S11358302115310541F42DB73EB740910402509132
S11358400502241B350BE091A81AF091A91AE2175E
S1135850F307A0F42E1B3F0B2817390778F0AC018F
S11358604E5F5F4F2417350748F04E0F5F1F50936C
S1135870A91A4093A81A8193919302C0E0E0F0E042
S1135880CF01DF91CF911F910F910895CF93DF93B3
S1135890009709F481C0FC01329713821282A0910F
S11358A0AA1AB091AB1A109781F420813181820F2A
S11358B0931F2091A81A3091A91A2817390751F576
S11358C0F093A91AE093A81A67C0ED0120E030E034
S11358D0CE17DF0740F44A815B819E0141155105D3
S11358E0F1F0EA01F5CFD383C28340815181840F63
S11358F0951FC817D90759F488819981840F951F7A
S11359000296918380838A819B819383828321156C
S1135910310529F4F093AB1AE093AA1A3DC0E901CA
S1135920FB83EA8349915991C40FD51FEC17FD07F6
S113593061F480819181840F951F0296E901998316
S11359408883828193819B838A83E0E0F0E01296CE
S11359508D919C911397009719F0FD01DC01F7CF0D
S11359608D919C9111979D012E5F3F4F820F931F44
S11359702091A81A3091A91A2817390769F4309789
S113598029F41092AB1A1092AA1A02C0138212823E
S1135990B093A91AA093A81ADF91CF91089581E03A
S11359A090E0F8947DC3FB01DC0102C001900D92EC
S11359B041505040D8F70895DC0101C06D93415027
S11359C05040E0F70895FB0151915523B1F0BF0118
S11359D0DC01052E4D91442369F010D0D9F7CD0197
S11359E00190002049F04D91411108D0C9F3FB0109
S11359F04111EECF81E090E001970895402539F000
S1135A00403229F440294B57465E08F01894089513
S1135A10FB01DC010D900020E9F7119701900D9234
S1135A200020E1F70895FB01DC0101900D920020B4
S1135A30E1F70895FB01DC014150504088F08D915D
S1135A4081341CF08B350CF4805E619161341CF060
S1135A506B350CF4605E861B611171F3990B08952C
S1135A60881BFCCFCF93DF93CDB7DEB7AE014A5F7F
S1135A705F4FFA0161917191AF018091AE1A9091DB
S1135A80AF1A61D0DF91CF9108950F931F93CF93F5
S1135A90DF93E091AE1AF091AF1A238121FF1BC06E
S1135AA08C01D0E0C0E0F80181918F016091AE1AC1
S1135AB07091AF1ADB011896ED91FC911997882328
S1135AC031F01995892B79F3DFEFCFEFECCF8AE032
S1135AD01995892B19F08FEF9FEF02C08D2F9C2F02
S1135AE0DF91CF911F910F9108950F931F93CF933F
S1135AF0DF93CDB7DEB72E970FB6F894DEBF0FBE97
S1135B00CDBF0E891F8986E08C831A8309838FEFAA
S1135B109FE79E838D83AE01465E5F4F688D798DCE
S1135B20CE01019610D0EF81F885E00FF11F1082AD
S1135B302E960FB6F894DEBF0FBECDBFDF91CF9186
S1135B401F910F9108952F923F924F925F926F92FF
S1135B507F928F929F92AF92BF92CF92DF92EF92F9
S1135B60FF920F931F93CF93DF93CDB7DEB72B979D
S1135B700FB6F894DEBF0FBECDBF6C017B018A0166
S1135B80FC0117821682838181FFBFC1CE01019679
S1135B903C01F6019381F70193FD859193FF819177
S1135BA07F01882309F4ADC1853239F493FD8591D1
S1135BB093FF81917F01853221F4B60190E0D6D123
S1135BC0E8CF912C212C312CFFE1F315D8F08B3246
S1135BD079F038F4803279F08332A1F4232D2061F6
S1135BE01DC08D3261F0803369F4232D216016C00D
S1135BF0832D8260382EE32DE4603E2E2AC0F32DDF
S1135C00F8601DC037FC2DC020ED280F2A3040F06D
S1135C108E32B9F436FC75C1232D2064322E19C09E
S1135C2036FE06C08AE0989E200D1124922E11C0E3
S1135C30EAE02E9E200D1124222EF32DF0623F2E39
S1135C4008C08C3621F4832D8068382E02C0883633
S1135C5041F4F70193FD859193FF81917F018111B7
S1135C60B3CF982F9F7D9554933028F40C5F1F4F2A
S1135C709FE399830DC0833631F0833771F0833508
S1135C8009F055C020C0F801808189830E5F1F4F41
S1135C9088248394912C530112C02801F2E04F0E02
S1135CA0511CF801A080B18036FE03C0692D70E05C
S1135CB002C06FEF7FEFC5014ED14C018201F32D7D
S1135CC0FF773F2E15C0280122E0420E511CF80137
S1135CD0A080B18036FE03C0692D70E002C06FEF72
S1135CE07FEFC5012DD14C01F32DF0683F2E8201C9
