S0120000494F545F746573745F332E7372656375
S113000049C2000068C2000066C2000064C2000069
S113001062C2000060C200005EC200005CC2000058
S11300205AC2000058C2000056C2000054C2000068
S11300300C94340A50C200004EC200004CC20000AE
S11300404AC2000048C2000046C2000044C2000088
S113005042C2000040C200003EC200003CC2000098
S11300603AC200000C9442250C94942534C200003A
S113007032C2000030C200002EC200002CC20000B8
S11300802AC2000028C2000026C2000024C20000C8
S11300900C94D8250C942A261EC200000C94C22865
S11300A01AC2000018C2000016C2000014C20000E8
S11300B012C2000010C200000EC200000CC20000F8
S11300C00AC2000008C2000006C200000C946E269A
S11300D00C94C02600C200000C9404270C945627EC
S11300E0FAC10000C001C001C001FA0102021802F5
S11300F0C001C001FA010202E428542954295429F8
S11301005429542954295429E42854295429542974
S11301105429542954295429E62854295429542962
S113012054295429542954295429542954295429E3
S11301305429542954295429E62854295429542942
S113014054295429542954295429542954295429C3
S113015054295429542954295029542954295429B7
S113016054295429542954291B29542954295429DC
S11301705429542954295429542954295429542993
S113018054295429542954290F29542954295429C8
S11301905429542954295429332902EB17E10F2EE9
S11301A0F2EEEF2EF7E1FF2EF02D8091B1178823A8
S11301B011F10FB6F8940F92D8011796ED91FC91B6
S11301C01897C085D185CE010296B3D78091A51723
S11301D081508093A5178091B11781508093B117F6
S11301E00F900FBE8B8D9C8D00D7CE01FED68091D3
S11301F0B1178111DECFF7018081823010F00E94A7
S11302006E090E94E71AD1CFCF93DF93CDB7DEB743
S113021060970FB6F894DEBF0FBECDBFCE01019636
S11302209A878987812C912CA12CB12C69847A849A
S1130230E0911A18F0911B188081882309F410C1E9
S11302400780F085E02D20803180428053800E9419
S1130250CE12CE0101960E94511A6B877C878D873E
S11302609E878981811165C08B859C85AD85BE85FE
S113027082159305A405B50508F444C00E94B7137C
S1130280E0911A18F0911B180780F085E02DA085E5
S1130290B185B88BAF87CD0102964BD7EF85F8892E
S11302A0878982FF21C04685578560897189420DFF
S11302B0531D641D751D720161010B851C852D85FF
S11302C03E85CF010E946019882399F0C82CD92C4F
S11302D0EA2CFB2C00E010E0A201910160E08F8584
S11302E098890E94F31905C08E7FAF85B889579607
S11302F08C93AF85B8895496ED91FC915597CD01B7
S113030019959FC020E0B201A1018B859C85AD8524
S1130310BE85481B590B6A0B7B0B80911618909174
S113032017180E94D20D0E94B71381118AC0D6D724
S113033088C00E94B71385C0898188230CF481C0CA
S11303404E805F80D2011C968D919C911D97892BC4
S113035019F0C2010296EDD6CE0108960E94511AF8
S11303608B019C01E9810E2E000CFF0BEA30F10594
S113037008F067C08827EE58FF4F8F4F0C945A2B14
S1130380F20187898160878BCA80DB80EC80FD80E5
S113039046855785608971894C0D5D1D6E1D7F1DD5
S11303A0C2010E946019882309F44BC0D2015496FB
S11303B0ED91FC915597C2011995F201878982FF4D
S11303C040C04A815B816C817D8186859785A08947
S11303D0B1899A01AB01280F391F4A1F5B1FC82C32
S11303E0D92CEA2CFB2C00E010E060E0C2010E9452
S11303F0F31927C0D20157968C9157978E7F579641
S11304008C931FC0F20187898160878B4A815B814D
S11304106C817D8146875787608B718B400F511F9C
S1130420621F731F68017901C2010E94601909C02B
S1130430F201878981FD03C0C201D7D502C08E7F36
S1130440878B282D392D4A2D5B2D662D772D809194
S11304501618909117180E946C0C81116DCFE8CE7C
S11304600E94CE12CE0101960E94511A6B877C879E
S11304708D879E87898181115CCFE0911818F09156
S11304801918808121E0811120E0282C392C4A2C74
S11304905B2C39CF11241FBECFEFD1E2DEBFCDBF1D
S11304A000E00CBF17E0A0E0B2E0E0E4F0E600E01A
S11304B00BBF02C007900D92AA36B107D9F729E104
S11304C0AAE6B7E001C01D92A53FB207E1F70E947A
S11304D0011C0C941E3094CD0F2EF4EFCF2EDD248E
S11304E0D394E12CF12CF02D01E021E041E050E027
S11304F060E070E0809192199091931917D360FF96
S1130500EBCF0E94B72380939419882361F062E3B0
S113051070E080E090E00E9491140E94B7238093E1
S113052094198111F4CF64E670E080E090E00E94B9
S1130530911444E050E060E070E080919019909153
S11305409119B4D3C9CFEF92FF920F936AE874E084
S113055083E00E948923E12CF12C02E020E030E0CA
S113056048E851E06FE672E08CE692E00E94731175
S11305700F91FF90EF900895EF92FF920F93082F41
S11305806091AF197091B01981E00E948C1FE12C29
S1130590F12C20E030E048E851E06BE772E081EABA
S11305A093E00E9473110F91FF90EF900895EF92E2
S11305B0FF921F93CF93DF930E94E31F0E94602258
S11305C09F938F9382E892E09F938F930E94002DD4
S11305D00E9461210E9460229F938F9385E992E09B
S11305E09F938F930E94002D81E897E00E94F51F4E
S11305F00E946022C1E8D7E0DF93CF939F938F934B
S11306008EEA92E09F938F930E94002DCE010E9468
S113061011200E9460229F938F93DF93CF9382ECEB
S113062092E09F938F930E94002DAE0167ED72E0DC
S113063088EF92E00E943F220E9460229F938F9352
S1130640DF93CF9387ED92E09F938F9388EF92E0AF
S11306509F938F9389E093E09F938F930E94002D43
S11306600E9444200E9460229F938F938FE393E023
S11306709F938F930E94002D8DB79EB782960FB6DD
S1130680F8949EBF0FBE8DBF81E00E943E210E9460
S113069060229F938F938EE493E09F938F930E94A5
S11306A0002D84EF91E00E9449210E9460229F93D3
S11306B08F9381E08F9384EF8F938FE693E09F93E2
S11306C08F930E94002D8DB79EB70A960FB6F894AB
S11306D09EBF0FBE8DBFC3E0D0E00F2EFFE8EF2E0C
S11306E0F3E0FF2EF02D80E00E944A20182F0E9494
S11306F060229F938F93DF93CF93FF92EF920E9498
S1130700002D0F900F900F900F900F900F901330BB
S113071079F0183079F080E00E945B1E66E371E0A6
S113072080E090E00E9491142197E9F680E003C0F4
S113073080E001C081E0DF91CF911F91FF90EF90A5
S11307400895CF93DF9300D01F92CDB7DEB70F2E5D
S1130750F0EBAF2EF3E0BF2EF02D81E00E94CF1F0F
S113076062E070E080E090E00E94911480E00E94DA
S1130770CF1F66E970E080E090E00E9491140E942F
S1130780851F15DF8823E9F30E94D41269837A83D5
S11307908B839C8344E457E060E070E0CE010196D3
S11307A00E94331443E050E060E070E080919219BD
S11307B0909193197BD20F2EF4EFCF2EDD24D39496
S11307C0E12CF12CF02D01E021E040E150E060E06B
S11307D070E08091901990919119A8D164FFDACFBB
S11307E02FEF3FEFA9016BE677E08091B11990916B
S11307F0B2190E946C0C813069F66BE677E080E0F8
S11308000E94732080936A070E9460229F938F93B3
S1130810BF92AF920E94002D0F900F900F900F90F7
S113082080916A07833009F0B5CF97CFC3EBD9E144
S11308300F2EF6E0AF2EF02D6894BB24B1F80F2EE6
S1130840F4EFCF2EDD24D394E12CF12CF02D01E034
S113085021E04CE050E060E070E0809190199091CC
S1130860911964D1DC01CB018C709927AA27BB278D
S11308700C97A105B10519F773D00E94111CF62E2F
S1130880E72EB4D00E94111C162F072F30D0A98256
S1130890B882EA82FB820C831D839E838F8300E0EF
S11308A02FEF3FEFA901BE018091B1199091B219C8
S11308B01FD740E150E060E070E080919019909182
S11308C09119F4D1BCCFEF92FF920F93E12CF12C4C
S11308D002E020E030E042EF50E065EC73E086E1B6
S11308E094E00E9473110F91FF90EF90089580910E
S11308F0E707882351F062E370E080E090E00E9413
S113090091148091E7078111F6CF8091CD199091D0
S1130910CE1908950F93CF93DF93EC0148EE53E083
S113092060E070E080919719909198190E94050DEC
S113093081E08093E707D093CE19C093CD1900E0EE
S113094020E030E0A90160E070E080919719909177
S11309509819CED61092E707DF91CF910F910895A1
S11309608091E607882351F062E370E080E090E034
S11309700E9491148091E6078111F6CF6091CF19FE
S11309807091D0198091D1199091D2190895CF9274
S1130990DF92EF92FF920F936B017C0148EE53E0DC
S11309A060E070E080918E1990918F190E94050D7E
S11309B081E08093E607C092CF19D092D019E092DB
S11309C0D119F092D21900E020E030E0A90160E0F2
S11309D070E080918E1990918F198AD61092E60753
S11309E00F91FF90EF90DF90CF9008958091E507ED
S11309F0882351F062E370E080E090E00E9491145B
S1130A008091E5078111F6CF6091C9197091CA19D7
S1130A108091CB199091CC190895CF92DF92EF92E7
S1130A20FF920F936B017C0148EE53E060E070E0AD
S1130A308091951990919619E8D781E08093E50704
S1130A40C092C919D092CA19E092CB19F092CC196C
S1130A5000E020E030E0A90160E070E080919519A9
S1130A609091961945D61092E5070F91FF90EF905B
S1130A70DF90CF9008950FEF1FEF980146E150E00B
S1130A8069E979E18091AF199091B0190E94301011
S1130A9080919919833041F46091060261956093C5
S1130AA0060280E00E94E6230E94851FE4CFEF92B5
S1130AB0FF920F930E94FE23E12CF12C03E020E02F
S1130AC030E042EF50E062ED73E08BE395E00E948A
S1130AD073110F91FF90EF900895E7E0F1E08081AA
S1130AE08F6080830895E8E0F1E09081907F9083A7
S1130AF090818F70982B90830895E8E0F1E08081D5
S1130B00807F80830895CF93DF9380E190E0B4D118
S1130B10EC01009739F0FC0111921192119211929B
S1130B20CF0194D2CE01DF91CF9108952F923F92BD
S1130B304F925F926F927F928F929F92AF92BF92E9
S1130B40CF92DF92EF92FF920F931F93CF93DF9395
S1130B50EC014A015B01622E702E0E94CE122880A5
S1130B6039804A805B8001110DC081E0B201A1018E
S1130B70482159216A217B21452B462B472B79F4A7
S1130B8080E00DC081E0B201A101482159216A2110
S1130B907B21481559056A057B0509F080E0882307
S1130BA081F0662009F46BC080949094A094B09472
S1130BB082209320A420B52088829982AA82BB82B5
S1130BC05EC0C114D104E104F10409F458C06620E4
S1130BD029F040E050E060E071E003C040E050E004
S1130BE0BA0171107460482959296A297B2997012F
S1130BF08601CE0104960E9440150E94B71381110C
S1130C0001C06CD30E94871791FD35C00FB6F894CC
S1130C100F92688179818A819B8171100DC021E0D6
S1130C2075016401C622D722E822F922CD28CE28F4
S1130C30CF2879F420E00DC021E075016401C622BB
S1130C40D722E822F922C814D904EA04FB0409F0E3
S1130C5020E0222371F0662061F080949094A094A7
S1130C60B09486229722A822B92288829982AA82E5
S1130C70BB820F900FBE1B012C01552402C00E94A1
S1130C80B713C201B101DF91CF911F910F91FF9072
S1130C90EF90DF90CF90BF90AF909F908F907F9018
S1130CA06F905F904F903F902F9008954F925F9276
S1130CB06F927F928F929F92AF92BF92CF92DF9268
S1130CC0EF92FF920F931F93CF93DF93EC016A018E
S1130CD07B018C01095F1F4F0E94CE12EB85FC85BE
S1130CE088819981AA81BB81C82AD92AEA2AFB2A48
S1130CF0C882D982EA82FB820E171F0709F445C015
S1130D00C12CD12C760199249394812CA480B58094
S1130D1080819181A281B381AC01BD017727B2FDAD
S1130D200FC0488059806A807B8044225522662205
S1130D307722292D45284628472889F4282D0FC0D5
S1130D40488059806A807B8044225522662277221B
S1130D50292D441655066606770609F0282D222308
S1130D6071F0B0FF04C0C42AD52AE62AF72A4881C4
S1130D7059816A817B817260CF010E94C615EA2D78
S1130D80FB2D0E171F0711F603C0C12CD12C7601C1
S1130D90C094D094E094F09488819981AA81BB8115
S1130DA0C822D922EA22FB22C882D982EA82FB82A3
S1130DB00E94B713688179818A819B81DF91CF91E9
S1130DC01F910F91FF90EF90DF90CF90BF90AF9065
S1130DD09F908F907F906F905F904F900895CF93E6
S1130DE0DF93DC01E0EFF7E001C0F90120813181FC
S1130DF02A173B07D0F382819381AF01480F591F13
S1130E00A417B50749F412964D915C911397840F7A
S1130E10951F93838283DF0112968D919C91139782
S1130E20ED01C80FD91F2C173D07D9F42091EE0707
S1130E303091EF07C217D30781F02A813B81820FDB
S1130E40931F13969C938E931297C081D1818881AE
S1130E50998111969C938E9307C01196DC93CE933F
S1130E6003C011963C932E93AE17BF0711F0B183C4
S1130E70A083DF91CF910895CF92DF92EF92FF92FA
S1130E800F931F93CF93DF93EC010E94CE128091B6
S1130E90EE079091EF07892B41F5E0EFF7E0A4EF1F
S1130EA0B7E0B183A08313821282E0E9F7E1F09303
S1130EB0EF07E093EE0713821282118210828CE90D
S1130EC09FE013969C938E931297ED93FC939093CB
S1130ED0EB078093EA079093ED078093EC0780E09B
S1130EE090E89093E9078093E807E090E807F09092
S1130EF0E907C7018C239D23892B09F066C020973D
S1130F0009F466C0AE014C5F5F4F09F45EC0009106
S1130F10EC071091ED070417150708F456C0C091AB
S1130F20F007D091F107E0EFF7E002C0FE01E9011C
S1130F302A813B812417350728F42881398121151A
S1130F403105A1F78091EE079091EF07C817D907F3
S1130F50E1F1C080D18084E0C80ED11C88819981E0
S1130F60918380832A813B81241B350B29303105F1
S1130F7048F0CE01840F951FFC01338322835B83E9
S1130F804A832DDF8A819B81081B190B1093ED077F
S1130F900093EC072091EA073091EB07021713073F
S1130FA020F41093EB070093EA07E82AF92AFB825E
S1130FB0EA82198218820E94B713C114D10459F429
S1130FC00E94E81AC12CD12C06C00E94B713F8CF96
S1130FD00E94B713F5CFC601DF91CF911F910F91F6
S1130FE0FF90EF90DF90CF900895CF93DF93009719
S1130FF051F1FC013497228133814091E8075091EB
S1131000E907B90164237523672BE9F060817181D5
S1131010672BC9F4EF01409550952423352333837E
S113102022830E94CE122091EC073091ED078A8131
S11310309B81820F931F9093ED078093EC07CE0161
S1131040CEDE0E94B713DF91CF910895FC01039681
S1131050928381834FEF5FEFBA01438354836583A7
S11310607683908787839287818710820895FC0115
S1131070138612860895CF93DF939C01FB01DC0154
S11310801196CD91DC911297D583C4838E819F8173
S1131090978386838E819F81DC0115967C936E9362
S11310A014977F836E8333872287F90180818F5F52
S11310B08083DF91CF9108950F931F93CF93DF9394
S11310C0EB01088119812A813B810F3F4FEF1407FF
S11310D02407340721F4FC01A185B28511C0DC0189
S11310E0139601C0DF011496ED91FC911597408190
S11310F0518162817381041715072607370790F71A
S11311001496ED91FC911597FD83EC83D783C683E8
S1131110BF83AE831596DC93CE9314979B878A87FF
S1131120FC0120812F5F2083DF91CF911F910F91CC
S11311300895CF93DF93FC01A285B385C481D58143
S1131140868197819F838E83C681D781848195818F
S11311509D838C8311968D919C911297E817F907C2
S113116031F48681978112969C938E9311971386FE
S113117012868C9181508C938C91DF91CF9108953C
S113118031E1FC013083319722E220833197A3E3DC
S1131190A0833197608331977083319710823197A0
S11311A01082319760E86083319710823197108202
S11311B031971082319762E06083319763E06083F6
S11311C0319764E06083319765E06083319766E02E
S11311D06083319767E06083319768E0608331977B
S11311E069E06083319760E16083319730833197A0
S11311F032E13083319733E13083319734E1308306
S1131200319735E13083319736E13083319737E1D7
S11312103083319738E13083319739E13083319726
S113122030E23083319731E2308331972083319734
S113123023E220833197408331975083319726E20C
S11312402083319727E22083319728E22083319746
S113125029E22083319720E32083319721E32083FF
S113126089970895A89590EC88E10FB6F894A8950D
S1131270809360000FBE90936000A0910E18B0910F
S11312800F18CD91CDBFDD91DEBFFF91EF91DF91BE
S1131290CF91BF91AF919F918F917F916F915F910A
S11312A04F913F912F911F910F91FF90EF90DF90FD
S11312B0CF90BF90AF909F908F907F906F905F90F2
S11312C04F903F902F901F900F900CBE0F900BBE2D
S11312D00F900FBE0F90089581E008950F920FB6FE
S11312E0F8940F920BB60F920CB60F921F92112422
S11312F02F923F924F925F926F927F928F929F9222
S1131300AF92BF92CF92DF92EF92FF920F931F930F
S11313102F933F934F935F936F937F938F939F93F9
S1131320AF93BF93CF93DF93EF93FF93A0910E18E6
S1131330B0910F180DB60D920EB60D920E94AA141C
S1131340A0910E18B0910F18CD91CDBFDD91DEBFE5
S1131350FF91EF91DF91CF91BF91AF919F918F91C9
S11313607F916F915F914F913F912F911F910F91B9
S1131370FF90EF90DF90CF90BF90AF909F908F90B1
S11313807F906F905F904F903F902F901F900F90A1
S11313900CBE0F900BBE0F900FBE0F9008950F92CE
S11313A00FB6F8940F920BB60F920CB60F921F92D1
S11313B011242F923F924F925F926F927F928F925D
S11313C09F92AF92BF92CF92DF92EF92FF920F93D0
S11313D01F932F933F934F935F936F937F938F93B9
S11313E09F93AF93BF93CF93DF93EF93FF93A0911A
S11313F00E18B0910F180DB60D920EB60D9213BEC5
S11314000E94E21281110E94AA14A0910E18B091B8
S11314100F18CD91CDBFDD91DEBFFF91EF91DF912C
S1131420CF91BF91AF919F918F917F916F915F9178
S11314304F913F912F911F910F91FF90EF90DF906B
S1131440CF90BF90AF909F908F907F906F905F9060
S11314504F903F902F901F900F900CBE0F900BBE9B
S11314600F900FBE0F9008959ADF18950FB6F89459
S11314700F92FC01968D0F900FBE81E0911180E0D8
S113148008950F931F93CF93DF93EC01042F1E8DC8
S113149048A141110CC088819981892B09F042C06F
S11314A08C819D810E94FB161D821C8242C0011109
S11314B017C050E08A819B810E94A12C28A18A81B7
S11314C09B81820F911D9B838A832C813D8182178E
S11314D0930750F1888199819B838A8380E029C096
S11314E050E08E819F810E94A12C88A190E091956B
S11314F0819591092E813F81280F391F3F832E83C7
S1131500488159812417350730F42C813D81820F9D
S1131510931F9F838E83023049F4112349F01150A5
S113152080E007C080E005C080E003C080E001C027
S113153080E01F5F1E8FDF91CF911F910F9108955F
S1131540FC0140A14423A9F050E026813781240FF7
S1131550351F37832683848195812817390720F026
S11315608081918197838683CB01668177810C94F6
S1131570A12C0895EF92FF920F931F93CF938C01A8
S11315800FB6F8940F92FC01C2A11C16ACF4838927
S1131590811106C011C0F8018389811105C00CC0F6
S11315A07801F3E1EF0EF11CC7010E94841581114B
S11315B00E947616C15079F78FEFF80182A30F903D
S11315C00FBE0FB6F8940F92C1A11C16ACF480851F
S11315D0811106C011C0F8018085811105C00CC0BD
S11315E07801F8E0EF0EF11CC7010E948415811107
S11315F00E947616C15079F78FEFF80181A30F90FE
S11316000FBECF911F910F91FF90EF900895CF934C
S1131610DF93EC010FB6F8940F92E881F9818F8D76
S113162028A190E030E0829FA001839F500D929FFB
S1131630500D11244E0F5F1F5D834C831E8EFB8360
S1131640EA830197829FA001839F500D929F500DC2
S11316501124CF01840F951F9F838E838FEF89A35D
S11316608AA361110BC08885882371F0CE01089686
S11316700E948415882341F031DE06C0CE0108960D
S1131680E5DCCE014396E2DC0F900FBE81E0DF91F2
S1131690CF910895FF920F931F93CF93DF93082F59
S11316A0162FF42E6623B9F0869FC0011124859667
S11316B0E3DBEC01009741F414C00F8F18A361E041
S11316C0CE01A5DFFCA20DC0859699838883F5CF52
S11316D0D983C883F2CF85E290E0CEDBEC01892B7D
S11316E0B9F7CE01DF91CF911F910F91FF9008952B
S11316F09F92AF92BF92CF92DF92EF92FF920F939D
S11317001F93CF93DF93CDB7DEB729970FB6F89425
S1131710DEBF0FBECDBF7C015B012E833F834887B4
S1131720598710E0992493946C0188E0C80ED11C69
S11317300FB6F8940F92F701968D878D981710F0D5
S11317400230B1F4402FB501C7019BDEF701938944
S1131750992341F0C70143960E948415882321F000
S1131760BDDD02C08111BADD0F900FBE81E04EC015
S11317708E819F81A885B985892B8A2B8B2B21F497
S11317800F900FBE80E042C0111105C0CE0101963A
S11317900E941016192D0F900FBE00D70FB6F894A3
S11317A00F92F70181A18F3F09F411A2F70182A1E1
S11317B08F3F09F412A20F900FBEBE016A5F7F4FE4
S11317C0CE0101960E94211681111CC00FB6F89417
S11317D00F92F701968D878D0F900FBE98130EC050
S11317E04E815F8168857985C6010E942915C701EC
S11317F0C1DEBDD781119CCF71DD9ACFC701BADE9E
S1131800B6D796CFC701B6DEB2D780E029960FB619
S1131810F894DEBF0FBECDBFDF91CF911F910F9122
S1131820FF90EF90DF90CF90BF90AF909F9008957E
S11318300F93CF93DF93482F60E081E02BDFEC011F
S1131840009761F01D821C82198218821E8200E0BA
S113185020E030E0A90160E070E04ADFCE01DF91D2
S1131860CF910F910895EF92FF920F931F93CF930F
S1131870DF938A01FC01568D378D531710F0223007
S1131880E9F4422F7801EC011AA1FBDD1F3F81F43A
S11318908B898823A9F0CE0143960E94841588235E
S11318A089F0E114F10481F081E0F70180830DC037
S11318B0FF24F394F10EFAA281E007C080E005C092
S11318C081E003C081E001C081E0DF91CF911F91ED
S11318D00F91FF90EF9008959F92AF92BF92CF9295
S11318E0DF92EF92FF920F931F93CF93DF93CDB7C5
S11318F0DEB729970FB6F894DEBF0FBECDBF8C01BB
S11319005B012E833F8348875987E12C9924939464
S11319106C0183E1C80ED11C0FB6F8940F92F80144
S1131920F68CFF2099F0B501C8010ADEFA94F8019B
S1131930F68E8085882331F0C80108960E948415AC
S11319408111CCDC0F900FBE81E04DC08E819F8150
S1131950A885B985892B8A2B8B2B21F40F900FBE78
S113196080E041C0E11005C0CE0101960E9410162E
S1131970E92C0F900FBE12D60FB6F8940F92F8010F
S113198081A18F3F09F411A2F80182A18F3F09F4CC
S113199012A20F900FBEBE016A5F7F4FCE01019667
S11319A00E942116811116C0C80160DD882371F0E0
S11319B04E815F8168857985C6010E942915C80119
S11319C0D9DDD5D68111A8CF89DCA6CFC801D2DD57
S11319D0CED6A2CFC801CEDDCAD6C80147DD882342
S11319E009F49ACF80E029960FB6F894DEBF0FBEB3
S11319F0CDBFDF91CF911F910F91FF90EF90DF90BA
S1131A00CF90BF90AF909F900895BF92CF92DF92F6
S1131A10EF92FF920F931F93CF93DF93CDB7DEB76F
S1131A2029970FB6F894DEBF0FBECDBF8C014E834D
S1131A305F8368877987B12CD12CCC24C3947C0133
S1131A4083E1E80EF11C0FB6F8940F92D8015E966C
S1131A508C915E978823E1F081505E968C935E971B
S1131A608D919C91892B29F40E94AF17F8019583DD
S1131A708483D80118968C91882331F0C801089684
S1131A800E94841581112ADC0F900FBE81E07AC078
S1131A908E819F81A885B985892B8A2B8B2B21F474
S1131AA00F900FBE80E06EC0D11005C0CE0101962C
S1131AB00E941016DC2C0F900FBE70D50FB6F89450
S1131AC00F92F80181A18F3F09F411A2D8019296D7
S1131AD08C9192978F3F11F492961C920F900FBEA7
S1131AE0BE016A5F7F4FCE0101960E9421168111CB
S1131AF024C0C801BBDC8823E1F0F8018081918116
S1131B00892B51F40FB6F8940F92848195810E9429
S1131B108D16B82E0F900FBE4E815F816885798532
S1131B20C70197D7C80126DD22D681118CCFD6DB19
S1131B308ACFC8011FDD1BD686CFC8011BDD17D68F
S1131B40C80194DC882309F47ECFBB20D1F00FB602
S1131B50F8940F92F8018389882339F0028CF38D6D
S1131B60E02D808164E0681B01C060E0D801149618
S1131B708D919C9115970E943B170F900FBE80E0AA
S1131B8001C080E029960FB6F894DEBF0FBECDBF2A
S1131B90DF91CF911F910F91FF90EF90DF90CF9045
S1131BA0BF900895CF93DF93EC010FB6F8940F9292
S1131BB089A18F3F09F419A28AA18F3F09F41AA2BF
S1131BC00F900FBE8E8D811103C0CE0143967CD73A
S1131BD0CE01D0DCDF91CF910895FC014481558181
S1131BE022813381240F351F80819181B901681BC3
S1131BF0790BCB016417750710F0841B950B0895BE
S1131C00AF92BF92CF92DF92EF92FF920F931F9306
S1131C10CF93DF936C015B017A01FC01C281D38114
S1131C20048115810C1B1D0B4017510708F48A0110
S1131C30F60184859585A801B5018C0F9D1F0E942E
S1131C40A12C0E151F0558F4A701401B510BB5011B
S1131C50600F711FF601848595850E94A12CCE0129
S1131C608E0D9F1DF601248135818217930710F094
S1131C70821B930BF60193838283C701DF91CF917B
S1131C801F910F91FF90EF90DF90CF90BF90AF9096
S1131C900895CF92DF92EF92FF920F931F93CF9309
S1131CA0DF931F921F92CDB7DEB75A834983211564
S1131CB03105C9F06B017C01FC01868580FD08C0FB
S1131CC0CA012417350708F4C9019A83898311C00E
S1131CD02017310758F042E050E0BE016F5F7F4F9C
S1131CE0C7018EDF06C080E090E008C080E090E08D
S1131CF005C049815A81B601C70182DF0F900F9058
S1131D00DF91CF911F910F91FF90EF90DF90CF90D3
S1131D100895AF92BF92CF92DF92EF92FF920F930A
S1131D201F93CF93DF937C015B01E90142175307B3
S1131D3008F4EA01209779F1F70100811181C48048
S1131D40D580C01AD10ACC15DD0508F46E01F7015F
S1131D5064857585600F711FA601C5010E94A12CC1
S1131D60CC16DD0658F4AE014C195D09F701648503
S1131D707585C5018C0D9D1D0E94A12C0C0F1D1F86
S1131D80F701848195810817190710F0081B190BB6
S1131D90F70111830083CE01DF91CF911F910F9141
S1131DA0FF90EF90DF90CF90BF90AF900895EF92A7
S1131DB0FF921F93CF93DF93EB0111E0413009F0C1
S1131DC010E0209711F4C1E0D0E07C012FEFE21A7B
S1131DD0F20A419651D8009781F020E1FC0111925A
S1131DE02A95E9F79C01205F3F4FFC013587248742
S1131DF0F582E482D783C6831687DF91CF911F9142
S1131E00FF90EF900895CF93DF93FC0127850FB6E1
S1131E10F8940F9280859185892BD1F482859385DE
S1131E20892BC1F486854681578164817581A48597
S1131E30B58590E1EF0119929A95E9F7B587A487E2
S1131E4075836483578346838687278781E003C02D
S1131E5080E001C080E00F900FBEDF91CF91089524
S1131E60FC01248135818081918142815381820FDB
S1131E70931F0197841B950B8217930710F0821B05
S1131E80930B08952F923F924F925F926F927F929D
S1131E908F929F92AF92BF92CF92DF92EF92FF9276
S1131EA00F931F93CF93DF93CDB7DEB729970FB668
S1131EB0F894DEBF0FBECDBF5C011B012A010E8367
S1131EC01F8328873987FC01868580FF05C03A0176
S1131ED0F2E06F0E711C01C03A018E819F81A885CA
S1131EE0B985892B8A2B8B2B09F435C0CE01019639
S1131EF081D60FB6F8940F92C501B2DF4C01861556
S1131F00970520F580E090E00E944C19F3D6F50186
S1131F10938782870F900FBECE80DF80E884F98498
S1131F2000E010E020E030E0A90160E070E0CB01C7
S1131F300E94C117F50113861286BE016A5F7F4FA6
S1131F40CE0101967ED68823A1F202C00F900FBE67
S1131F508114910419F4C50183DF4C0183019401B8
S1131F60A201B101C50195DE7C01892BE1F0C50117
S1131F7034DEF5012681378182179307A0F00ED352
S1131F80F50180859185892B69F08085918500E034
S1131F9010E020E040E050E0BA010E944B18F50147
S1131FA011861086E4D3C70129960FB6F894DEBFD4
S1131FB00FBECDBFDF91CF911F910F91FF90EF9096
S1131FC0DF90CF90BF90AF909F908F907F906F9055
S1131FD05F904F903F902F900895AF92BF92CF9211
S1131FE0DF92EF92FF920F931F93CF93DF93EC0155
S1131FF05B016A0179018E8580FF04C08A010E5F4E
S11320001F4F01C08A01CE012BDF9C01A601B5013F
S1132010CE013FDE6C01892BB9F0CE01DEDD2E81CD
S11320203F818217930780F088859985892B61F019
S11320308885998500E010E020E040E050E0BA0196
S11320400E94C31819861886C601DF91CF911F918B
S11320500F91FF90EF90DF90CF90BF90AF900895D5
S11320604F925F926F927F928F929F92AF92BF92A4
S1132070CF92DF92EF92FF920F931F93CF93DF9350
S11320801F921F92CDB7DEB75C012B013A016801A4
S11320907901FC01868580FD03C0812C912C04C04C
S11320A06894882481F8912CC114D104E104F104CA
S11320B031F10FB6F8940F92C5018FDD8C018816AB
S11320C0990640F080E090E00E944C1913D6F50187
S11320D0918780870F900FBE80169106B0F000E0C4
S11320E010E020E030E0A90160E070E0CB0149D7C6
S11320F0F50111861086C50170DD8C0103C0C50190
S11321006CDD8C0180169106B8F581149104C1F040
S1132110F501E080F1809801A401BE016F5F7F4F5B
S1132120C501F7DD89819A810819190968167906AC
S113213030F4F501F182E082612C712C01C03C0184
S11321409801A301B201C501E4DD7C01892BB1F042
S113215025D2F50182859385892B61F0828593854B
S113216000E010E020E040E050E0BA0194D7F5012F
S113217013861286FCD202C0E12CF12CC7010F9009
S11321800F90DF91CF911F910F91FF90EF90DF900F
S1132190CF90BF90AF909F908F907F906F905F9003
S11321A04F900895E091CA17F091CB178081811167
S11321B00CC08FEF9FEFDC018093971790939817D3
S11321C0A0939917B0939A170895E091CA17F091C4
S11321D0CB170780F085E02D0084F185E02D828106
S11321E09381A481B5818093971790939817A093B6
S11321F09917B0939A1708958F929F92AF92BF92B6
S1132200CF92DF92EF92FF92CF936B017C01C42FA8
S11322108090A1179090A217A090A317B090A41734
S113222080910E1890910F1802960E9499088FEFD2
S1132230C816D806E806F80669F4CC2359F060916C
S11322400E1870910F186E5F7F4F86EA97E10E9417
S11322503B083FC0C80CD91CEA1CFB1CE0910E18BB
S1132260F0910F18C282D382E482F582C814D90493
S1132270EA04FB0468F460910E1870910F188091C1
S1132280C8179091C9176E5F7F4F0E945C0821C0E8
S113229060910E1870910F188091CA179091CB1706
S11322A06E5F7F4F0E945C088091971790919817FA
S11322B0A0919917B0919A17C816D906EA06FB0699
S11322C040F4C0929717D0929817E0929917F09221
S11322D09A17CF91FF90EF90DF90CF90BF90AF907F
S11322E09F908F9008954F925F926F927F928F92FA
S11322F09F92AF92BF92CF92DF92EF92FF920F9391
S1132300CF93DF934C016B015A012901CA010E944A
S11323103C073C01892B09F4F4C080E390E00E945F
S11323203C07EC01892B99F07C8E6B8EA50165EA44
S113233070E0C3010E94AA2C21E0A21AB1088B8D7F
S11323409C8DA80EB91EC114D10429F420C0C30168
S11323500E94F507D6C0D6018C918D8F8C9188236D
S1132360A1F0AE01425E5F4FF6013196B8E0CB0EAC
S1132370D11CCF012191DA012D93AD01DC018C91A7
S1132380882319F0EC15FD05A1F71CA201C01D8ED0
S1132390043008F003E00A8F0FA318A66E01B2E020
S11323A0CB0ED11CC6010E943708CE010E960E94A6
S11323B03708DB87CA8784E090E0A0E0B0E0801BA8
S11323C09109A109B1098E879F87A88BB98BDF8BEF
S11323D0CE8B1AA619A61BA61CA61DA61EA61FA652
S11323E0A201B401C5010E94C00899838883E11445
S11323F0F10419F0F701D183C0830FB6F8940F925A
S11324008091A5178F5F8093A51780910E189091E6
S11324100F18892BD1F5D0930F18C0930E18809103
S1132420A517813009F041C082EE97E10E94260889
S11324308DEE97E10E94260888EF97E10E94260816
S113244083E098E10E94260887ED97E10E94260820
S11324508CEC97E10E9426088DEB97E10E942608F8
S113246082EB97E10E94260886EA97E10E942608FB
S113247087ED97E19093CB178093CA178CEC97E183
S11324809093C9178093C81710C080919F1781112A
S11324900CC0E0910E18F0910F18928D8A8D891757
S11324A020F0D0930F18C0930E1880919B178F5F64
S11324B080939B178DA38A8D9091A017981710F481
S11324C08093A017FBE08F9FC0011124B6018E51A9
S11324D0984E0E943B080F900FBE80919F1788234F
S11324E061F0E0910E18F0910F18928D8A8D981773
S11324F030F40E946E0981E005C081E003C081E0F0
S113250001C08FEFDF91CF910F91FF90EF90DF909B
S1132510CF90BF90AF909F908F907F906F905F907F
S11325204F900895EF92FF920F930F2EF5E9EF2E3F
S1132530F7E1FF2EF02D00E020E030E040EC50E029
S11325406DED73E08DEC90E0CEDE813019F52AD785
S1132550813001F5F8948FEF9FEFDC01809397179A
S113256090939817A0939917B0939A1781E080934A
S11325709F171092A1171092A2171092A3171092EE
S1132580A417E0910E18F0910F1881A50E9473050D
S11325900E9432090F91FF90EF9008958091941753
S11325A08F5F8093941708950FB6F8940F926091FB
S11325B0A1177091A2178091A3179091A4170F905F
S11325C00FBE08959F92AF92BF92CF92DF92EF9287
S11325D0FF920F931F93CF93DF93809194178111F0
S11325E0ADC0C090A117D090A217E090A317F090AF
S11325F0A4178FEFC81AD80AE80AF80AC092A117DC
S1132600D092A217E092A317F092A417C114D10498
S1132610E104F104B1F48091CA179091CB17209191
S1132620C8173091C9173093CB172093CA179093CA
S1132630C9178093C81780919C178F5F80939C174C
S1132640B1DD8091971790919817A0919917B09147
S11326509A17C816D906EA06FB0610F4B12C5DC019
S1132660B12C0F2EFBE0AF2EF02D99249394E09122
S1132670CA17F091CB17808181110CC08FEF9FEFA7
S1132680DC018093971790939817A0939917B093B0
S11326909A1743C0E091CA17F091CB170780F085D1
S11326A0E02DC085D1858A819B81AC81BD81C8160E
S11326B0D906EA06FB0648F4809397179093981777
S11326C0A0939917B0939A1728C08E010E5F1F4FDD
S11326D0C8010E949908888D998D892B21F0CE011B
S11326E00E960E9499088A8D9091A017981710F45D
S11326F08093A017A89EC0011124B8018E51984E52
S11327000E943B08E0910E18F0910F189A8D828D6B
S1132710981708F4ACCFB92CAACFE0910E18F09119
S11327200F18E28D8BE0E89FF0011124EE51F84E72
S11327308081823048F0BB24B39406C080919E17F8
S11327408F5F80939E17B12C80919D17882311F081
S1132750BB24B3948B2DDF91CF911F910F91FF90E8
S1132760EF90DF90CF90BF90AF909F900895CF925D
S1132770DF92EF92FF920F931F93CF93DF930FB6E5
S1132780F8940F92809194178150809394178091BC
S1132790941781115AC08091A51781112CC058C07B
S11327A0D7011796ED91FC911897C085D185CE017C
S11327B00E960E9499088E010E5F1F4FC8010E9459
S11327C099088A8D9091A017981710F48093A017F8
S11327D0D89EC0011124B8018E51984E0E943B0826
S11327E0E0910E18F0910F189A8D828D981788F049
S11327F0C0929D170EC0C0E0D0E00F2EFDEBEF2E6F
S1132800F7E1FF2EF02D0F2EFBE0DF2EF02DCC2470
S1132810C394F70180818111C3CFCD2B09F0C2DCB1
S1132820C0919E17CC2349F0D1E0CCDE8111D09326
S11328309D17C150D1F710929E1780919D17882340
S113284031F00E946E0981E003C080E001C080E0A5
S11328500F900FBEDF91CF911F910F91FF90EF90DA
S1132860DF90CF900895CF92DF92EF92FF920F9373
S11328701F93CF93DF93EC016A017B018FDE0091FC
S1132880A1171091A2172091A3173091A417888142
S11328909981AA81BB81AC01BD014C0D5D1D6E1DEA
S11328A07F1D081719072A073B0778F448175907AB
S11328B06A077B0740F5488359836A837B8304173F
S11328C0150726073707A0F40BC0481759076A07EE
S11328D07B07A0F0041715072607370778F013C005
S11328E0CB01BA01601B710B820B930B40E084DCBB
S11328F03EDF81110DC00E946E090AC048835983CE
S11329006A837B83EDCF488359836A837B83F0CFCB
S1132910DF91CF911F910F91FF90EF90DF90CF90B7
S11329200895CF92DF92EF92FF926B017C01672BA7
S1132930682B692B41F032DE40E0C701B6015CDC54
S113294016DF811102C00E946E09FF90EF90DF90A4
S1132950CF90089580919417882321F081E080938B
S11329609D17089510929D17E0910E18F0910F187D
S113297081A50E947D05A0910E18B0910F18E091D9
S11329800E18F0910F182D913C91838D948D821720
S1132990930758F060910E1870910F1880910E18DB
S11329A090910F18635E7F4F20D68091A017282F37
S11329B030E09BE0899FF0011124EE51F84E9081A4
S11329C091110EC04BE08150282F30E0429FF0015E
S11329D0439FF00D1124EE51F84E9081992399F301
S11329E09BE0929FA001939F500D1124DA01AE51F8
S11329F0B84E1196ED91FC9112970480F581E02D6B
S1132A001296FC93EE9311974B51584EE417F50729
S1132A1029F444815581FD01528341839BE0929FB7
S1132A20F001939FF00D1124EE51F84E0180F281D4
S1132A30E02D2085318530930F1820930E18809354
S1132A40A017E0910E18F0910F1881A50C9473054E
S1132A500895CF92DF92EF92FF926A017B01609119
S1132A600E1870910F18625F7F4F0E945C0841E05E
S1132A70C701B601C1DBFF90EF90DF90CF900895BE
S1132A80CF92DF92EF92FF920F931F936801790127
S1132A90E0910E18F0910F18706846875787608B85
S1132AA0718B60910E1870910F18625F7F4F0E94B6
S1132AB03B0841E0C701B6019FDB1F910F91FF90D6
S1132AC0EF90DF90CF900895CF92DF92EF92FF9234
S1132AD0CF936A017B01C22F60910E1870910F1879
S1132AE0625F7F4F0E943B08CC2321F0CC24CA9420
S1132AF0DC2C76014C2FC701B6017EDBCF91FF9011
S1132B00EF90DF90CF9008950F931F93CF93DF93AF
S1132B10DC011796ED91FC911897C085D1858E0143
S1132B20025F1F4FC8010E94990880919417811178
S1132B3016C00C501109C8010E9499088A8D909101
S1132B40A017981710F48093A017BBE08B9FC001C7
S1132B501124B8018E51984E0E943B0805C0B8015B
S1132B608DEB97E10E943B08E0910E18F0910F184D
S1132B709A8D828D891720F481E080939D1701C07E
S1132B8080E0DF91CF911F910F9108950F931F93D0
S1132B90CF93DF937068FC01408351836283738316
S1132BA0C085D1850E9499088E010E5F1F4FC80110
S1132BB00E9499088A8D9091A017981710F4809319
S1132BC0A017FBE08F9FC0011124B8018E51984ECD
S1132BD00E943B08E0910E18F0910F189A8D828D97
S1132BE0891718F481E080939D17DF91CF911F918D
S1132BF00F9108950FB6F8940F9220919C17FC0141
S1132C0020834091A1175091A2176091A31770914E
S1132C10A41741835283638374830F900FBE089576
S1132C2020919C17FC0120834091A1175091A21779
S1132C306091A3177091A4174183528363837483B3
S1132C400895CF92DF92EF92FF920F931F93CF9349
S1132C50DF93FB010FB6F8940F924091A1175091A6
S1132C60A2176091A3177091A4170081118122818A
S1132C7033810F3FAFEF1A072A073A0749F1EC01F6
S1132C80C980DA80EB80FC80A0919C17B881BA17C8
S1132C9029F04C155D056E057F05E0F44C195D09BE
S1132CA06E097F09401751076207730758F4041B24
S1132CB0150B260B370B0083118322833383B0DF7C
S1132CC080E009C0108211821282138281E003C065
S1132CD080E001C081E00F900FBEDF91CF911F9182
S1132CE00F91FF90EF90DF90CF90089581E0809353
S1132CF09D17089580910E1890910F180895809152
S1132D009F17882331F080919417882321F080E065
S1132D10089581E0089582E008950F931F93CF935F
S1132D20DF93FC01892B09F460C0828DA0910E18F9
S1132D30B0910F185A969C91891708F04AC046859D
S1132D40578560897189772394F0A0910E18B0910A
S1132D500F185A969C9144E050E060E070E0491BE3
S1132D6051096109710946875787608B718B2BE084
S1132D70829FC00111248E51984E248535852817D1
S1132D803907F1F48F01EF012296CE010E949908D0
S1132D90E0910E18F0910F18828DF801828F9091B6
S1132DA0A017981710F48093A017FBE08F9FC00121
S1132DB01124BE018E51984E0E943B0881E016C03A
S1132DC0A0910E18B0910F185A968C91828F81E0C1
S1132DD00DC0A0910E18B0910F1881E027A15A964A
S1132DE09C91291718F080E001C080E0DF91CF9119
S1132DF01F910F9108950F931F93CF93DF93FC01BD
S1132E00892B79F180A5815080A7228D97A129175C
S1132E1051F181112AC0EF018F010E5F1F4FC801CC
S1132E200E9499088FA18A8F44E050E060E070E02E
S1132E30481B5109610971094E875F87688B798B3B
S1132E409091A017981710F48093A0172BE0829FFD
S1132E50C0011124B8018E51984E0E943B0881E0B4
S1132E6005C080E003C080E001C080E0DF91CF9125
S1132E701F910F9108950F931F93CF93DF93FC013C
S1132E80892B09F43FC087A1861708F4862F928DF9
S1132E909817C1F120A52130A9F5828F4685578561
S1132EA060897189772364F044E050E060E070E069
S1132EB0481B51096109710946875787608B718BDB
S1132EC02BE0929FC00111248E51984E24853585A4
S1132ED028173907B9F4EF018F010E5F1F4FC8019E
S1132EE00E9499088A8D9091A017981710F48093E6
S1132EF0A0172BE0829FC0011124B8018E51984E77
S1132F000E943B08DF91CF911F910F910895CF92BA
S1132F10DF92EF92FF92E0910E18F0910F18668500
S1132F20778580899189E0910E18F0910F18A0910E
S1132F300E18B0910F185A962C91C12CD12C7601F1
S1132F406894C2F8C21AD108E108F108C686D78687
S1132F50E08AF18AFF90EF90DF90CF9008958091FE
S1132F600E1890910F18892B39F0E0910E18F091FA
S1132F700F1880A58F5F80A780910E1890910F186D
S1132F8008954F925F926F927F928F929F92AF9229
S1132F90BF92CF92DF92EF92FF920F931F9349015A
S1132FA05A010FB6F8940F92E0910E18F0910F1891
S1132FB027A5223039F1E0910E18F0910F1843A49F
S1132FC054A465A476A4DC01CB0180959095A095CA
S1132FD0B09584219521A621B72183A794A7A5A7FD
S1132FE0B6A7E0910E18F0910F1881E087A7C114DD
S1132FF0D104E104F10431F041E0C701B601FCD889
S11330000E946E090F900FBE0FB6F8940F9201152F
S1133010110569F0E0910E18F0910F1883A594A59D
S1133020A5A5B6A5F80180839183A283B383E0911B
S11330300E18F0910F1887A58230B1F4E0910E18A4
S1133040F0910F1883A594A5A5A5B6A58094909496
S1133050A094B09488229922AA22BB2283A694A683
S1133060A5A6B6A681E001C080E0E0910E18F0911B
S11330700F1817A60F900FBE1F910F91FF90EF909E
S1133080DF90CF90BF90AF909F908F907F906F9084
S11330905F904F9008950F931F93CF93DF93FC019C
S11330A00FB6F8940F920115110549F083A594A564
S11330B0A5A5B6A5E80188839983AA83BB8387A5C0
S11330C092E097A72230B1F018F4213031F02AC0F1
S11330D02330E9F0243001F125C003A514A525A56A
S11330E036A5402B512B622B732B43A754A765A7FE
S11330F076A718C043A554A565A576A54F5F5F4F75
S11331006F4F7F4F43A754A765A776A70BC043A76C
S113311054A765A776A706C0823049F143A754A7F0
S113312065A776A7813029F5EF018F010E5F1F4F48
S1133130C8010E9499088A8D9091A017981710F4DD
S11331408093A0172BE0829FC0011124B8018E51F7
S1133150984E0E943B08E0910E18F0910F189A8D3A
S1133160828D891740F40E946E0981E005C080E0D9
S113317003C081E001C081E00F900FBEDF91CF91C9
S11331801F910F910895EF92FF920F931F93CF9386
S1133190DF93FC010115110549F083A594A5A5A5AC
S11331A0B6A5E80188839983AA83BB8387A592E0A7
S11331B097A72230B1F018F4213031F02AC023301F
S11331C0E9F0243001F125C003A514A525A536A5F1
S11331D0402B512B622B732B43A754A765A776A7CB
S11331E018C043A554A565A576A54F5F5F4F6F4FE3
S11331F07F4F43A754A765A776A70BC043A754A73F
S113320065A776A706C08230D9F143A754A765A75E
S113321076A78130B9F5EF0180919417811117C019
S11332208F010E5F1F4FC8010E9499088A8D9091EB
S1133230A017981710F48093A017EBE08E9FC0019D
S11332401124B8018E51984E0E943B0807C0BF015B
S1133250625F7F4F8DEB97E10E943B08E0910E186F
S1133260F0910F189A8D828D891770F4E114F1048E
S113327019F081E0E701888381E080939D1705C000
S113328080E003C081E001C081E0DF91CF911F9114
S11332900F91FF90EF900895009721F480910E18FC
S11332A090910F180FB6F8940F92FC0127A52230C5
S11332B019F417A681E001C080E00F900FBE0895B5
S11332C0CF92DF92EF92FF920F931F93FC01428300
S11332D053836483758393878287041715072607AE
S11332E03707C0F00C191D092E093F0986859785FB
S11332F0A089B189081719072A073B0700F5BF0100
S11333006E5F7F4F80911818909119180E945C0885
S113331080E018C00C151D052E053F0528F44C153A
S11333205D056E057F0568F4BF016E5F7F4F809178
S11333301A1890911B180E945C0880E003C081E079
S113334001C081E01F910F91FF90EF90DF90CF902B
S113335008950FB6F8940F9280911618909117184B
S1133360892BE9F487E298E10E9426088CE198E130
S11333700E94260887E298E190931B1880931A18FC
S11333808CE198E1909319188093181840E067E055
S11333908AE00E944A0B90931718809316180F9096
S11333A00FBE0895EF92FF920F93D3DF809116180A
S11333B090911718892B91F00F2EF4E1EF2EF8E17C
S11333C0FF2EF02D03E020E030E045E550E062EE12
S11333D073E084E091E00E94731101C080E00F91DA
S11333E0FF90EF9008958F929F92AF92BF92CF92E9
S11333F0DF92EF92FF920F931F93CF93DF93CDB79A
S1133400DEB727970FB6F894DEBF0FBECDBFE091AD
S11334101618F0911718309781F169832A833B833A
S11334204C835D839F838E836630F4F468DC823042
S113343069F400E0A7019601BE016F5F7F4F8091A0
S11334401618909117180E94780B18C000E020E01D
S113345030E0A901BE016F5F7F4F809116189091F3
S113346017180E94780B0AC020E0A801BE016F5F04
S11334707F4FCF010E94330C01C080E027960FB626
S1133480F894DEBF0FBECDBFDF91CF911F910F9196
S1133490FF90EF90DF90CF90BF90AF909F908F9070
S11334A008952F923F924F925F926F927F928F92E4
S11334B09F92AF92BF92CF92DF92EF92FF920F93BF
S11334C01F93CF93DF931C016FD82B013C01809194
S11334D0101890911118A0911218B0911318481651
S11334E059066A067B0608F053C03BC00780F08586
S11334F0E02D80809180A280B380C085D1858E012B
S11335000E5F1F4FC8010E949908EC89FD89CE0106
S113351019958F8982FF25C08E859F85A889B989D1
S1133520880D991DAA1DBB1D88169906AA06BB06FF
S113353070F48A839B83AC83BD83DB87CA87B8011D
S113354080911A1890911B180E945C080AC0C12C23
S1133550D12C760100E010E0A501940160E0CE01D9
S113356042DFE0911A18F0911B1880818111BECFBF
S1133570809118189091191890931B1880931A1819
S1133580F0931918E093181881E0F101808302C0C8
S1133590F101108240921018509211186092121882
S11335A070921318C301B201DF91CF911F910F9153
S11335B0FF90EF90DF90CF90BF90AF909F908F904F
S11335C07F906F905F904F903F902F900895089553
S11335D0279A2F9A2FEF80E792E021508040904065
S11335E0E1F700C000001F9AF5CF279A2F9A2FEF1A
S11335F087EA91E6215080409040E1F700C0000046
S11336001F9AF5CF0F2EF4EFCF2EDD24D394E12CA7
S1133610F12CF02D01E021E042E050E060E070E0A8
S113362080919219909193190E94960561FFEACFB7
S1133630C9D190E09093D4198093D319892B69F060
S113364062E370E080E090E06CD9BCD190E09093AC
S1133650D4198093D319892B99F76CE370E080E037
S113366090E05FD9C4D190E09093D4198093D3199A
S1133670892B69F062E370E080E090E052D9B7D121
S113368090E09093D4198093D319892B99F764E12E
S113369070E080E090E045D9BBD10E94C704CDD151
S11336A00E940D0548E050E060E070E080919019C0
S11336B0909191190E945606A5CFEF92FF920F9315
S11336C069D1E12CF12C02E020E030E042EF50E03F
S11336D06AEE73E082E09BE10E9473110F91FF9008
S11336E0EF9008950E945705E8DF0E94A3020C940E
S11336F0630408950F9341E060E070E08CE290E091
S11337000E94D70E9093B0198093AF19892B21F49E
S113371086EF93E00E94132D809197199091981948
S1133720892B89F481E00E94180C90939819809356
S11337309719009741F000E020E030E0A90160E033
S113374070E00E94780B80918E1990918F19892BCB
S113375089F481E00E94180C90938F1980938E193C
S1133760009741F000E020E030E0A90160E070E063
S11337700E94780B8091951990919619892B89F460
S113378081E00E94180C90939619809395190097E4
S113379041F000E020E030E0A90160E070E00E9428
S11337A0780B0E9483059093931980939219892B27
S11337B021F483E194E00E94132D0E9483059093E9
S11337C0911980939019892B21F483E194E00E944C
S11337D0132D40E066E18AE00E944A0B9093B219EF
S11337E08093B1190F9108950E946D0580E00E94A5
S11337F0B82780DF77DF85E06ED083E00C94BC02CD
S11338000895F2DF87E794E00E94132D0E9492123C
S1133810CDE7D4E0DF93CF930E94002D0F900F905B
S1133820F9CF04D06894B11150C0089533D088F012
S11338309F5790F0B92F9927B751A0F0D1F0660F98
S1133840771F881F991F1AF0BA95C9F712C0B130B3
S113385081F03AD0B1E0089537C0672F782F8827D8
S1133860B85F39F0B93FCCF3869577956795B395F2
S1133870D9F73EF490958095709561957F4F8F4F61
S11338809F4F089557FD9058440F551F59F05F3FBF
S113389071F04795880F97FB991F61F09F3F79F06E
S11338A087950895121613061406551FF2CF4695F0
S11338B0F1DF08C0161617061806991FF1CF869572
S11338C07105610508940895E894BB276627772756
S11338D0CB0197F90895E5EDF9E121EE32E2318368
S11338E0208324EE32E2338322832FEE32E23583C7
S11338F0248323EF32E23783268329EF32E23187B0
S1133900208725E033E2338722872AE033E23587B4
S1133910248726E133E23787268726EF32E2318B8C
S1133920208B2BE133E2338B228B28E233E2358B7D
S1133930248B682FCF013AC108956530F1F4FA0160
S113394080818F7390E0982F88272181822B909318
S11339500A02809309028281F0E48F9FC00111243E
S1133960FA01238126952695822B90930802809351
S1133970070281E0809332180895643051F080E0AA
S113398090E4909308028093070290930A02809334
S1133990090208950F931F930DE91CE120E034E21E
S11339A044EF50E060E087E20E94F22790933418DD
S11339B08093331821E0892B09F020E0822F1F9196
S11339C00F9108958091331890913418009759F00D
S11339D040E060E070E00E944328843031F41092AB
S11339E0321880E0089582E0089583E0089580917C
S11339F0331890913418009739F064E00E948F28AE
S1133A00853021F083E0089582E0089580E00895F0
S1133A106091090270910A0280E090E00E946D2A90
S1133A2020E030E048EC52E40E94D22A20E038EF53
S1133A304FE756E40C94022A0895609107027091AE
S1133A40080280E090E00E946D2A20E030E045E228
S1133A5053E40E94D22A20E038EF4FE756E40E9454
S1133A60022A20E030E040E252E40C949B290895BD
S1133A70CF93DF9390E0FC01EE0FFF1FE80FF91FD7
S1133A80EE0FFF1FEB5CF74E238121110AC0EF01FB
S1133A90E091DD19F091DE196A8188819981199587
S1133AA012C0DC01AA0FBB1FED01C80FD91FCC0F38
S1133AB0DD1FCB5CD74EE091E719F091E8196A81DC
S1133AC0888199811995DF91CF910895CF93DF93E0
S1133AD090E0FC01EE0FFF1FE80FF91FEE0FFF1F30
S1133AE0EB5CF74E238121110AC0EF01E091E71945
S1133AF0F091E8196A8188819981199512C0DC01D5
S1133B00AA0FBB1FED01C80FD91FCC0FDD1FCB5C63
S1133B10D74EE091DD19F091DE196A81888199818F
S1133B201995DF91CF9108950F2EF5EDCF2EF9E180
S1133B30DF2EF02D04E0C5E3D8E110E08C81813064
S1133B4069F0E8F0823039F5D6011C96ED91FC91CC
S1133B501D976A818881998119951DC08D818F5F18
S1133B608A3010F48D8317C01D82D6011C96ED9106
S1133B70FC911D976A818881998119950CC08D816A
S1133B80882331F0812FA2DF8D8181508D8303C082
S1133B900C83812F6DDF1F5F2696143079F665E064
S1133BA070E080E090E00E949114C5CFCF92DF9244
S1133BB0EF92FF920F931F93CF93DF93062F0F2E55
S1133BC0F5EDEF2EF9E1FF2EF02DD7011896ED91CA
S1133BD0FC91199766E087E290E01995C5E3D8E176
S1133BE00F2EF8E2CF2ED12CF02DD982C88286E098
S1133BF08A831B8214E01C8380E03ADFD701189685
S1133C00ED91FC91199767E087E290E01995DF82C6
S1133C10CE8287E0888719861A8781E029DFD70159
S1133C201896ED91FC91199765E083E390E019955E
S1133C30D7011896ED91FC91199761E084E390E027
S1133C40199584E390E09D878C8785E08E871F8695
S1133C50188B82E00DDFD7011896ED91FC9119972E
S1133C6064E081E091E01995D7011896ED91FC91FB
S1133C70199761E082E091E0199582E091E09B8BD5
S1133C808A8B1C8B1D8A1E8B83E0F2DEE12CF12CC7
S1133C9020E030E040EC50E065E974E084E99DE127
S1133CA00E947311DF91CF911F910F91FF90EF90BC
S1133CB0DF90CF90089590E0FC01EE0FFF1FDF012D
S1133CC0A80FB91FAA0FBB1FAB5CB74E24E0159613
S1133CD02C931597FD01148208950F931F93CF938E
S1133CE0DF931F921F92CDB7DEB78C0119822DC0CE
S1133CF0E091B118EC3250F481E08E0F8093B1184A
S1133D00F0E0ED51F74E8A81808302C01092B11821
S1133D108A818A30D1F44091B11850E0FA01EF5110
S1133D20F74E1082415051099E012F5F3F4F63EEC1
S1133D3078E18091B4189091B5180E94ED0F8981B3
S1133D4081110E946E091092B118BE016E5F7F4FFF
S1133D50C8017CD6882361F20F900F90DF91CF9138
S1133D601F910F9108950F931F93CF93DF938C01AD
S1133D70EB018091B4189091B5180E94030FB8011B
S1133D808DE498E10E94E12C209779F0EDE4F8E1CC
S1133D9001900020E9F7319780E290E091838083DD
S1133DA0BE018DE498E10E94D62CEDE4F8E1DF0138
S1133DB00D900020E9F711978DE09AE011969C93FD
S1133DC08E9312961C9201900020E9F73197ED54DE
S1133DD0F841AE2F8DE498E1AC016A2F8091B618BA
S1133DE09091B718E3D5811111C008E215E020E0E5
S1133DF030E04DE250E06DE379E18091B4189091A8
S1133E00B5180E9430108DE399E102C080E090E083
S1133E10DF91CF911F910F9108952F923F924F926E
S1133E205F926F927F928F929F92AF92BF92CF9246
S1133E30DF92EF92FF920F931F93CF93DF935C0176
S1133E40FC0101900020E9F731976F01C81AD90AE3
S1133E505C2C0F2EF6E38F2EF7E09F2EF02DE12C35
S1133E60F12C4C2C3701F40101811281E8010990F5
S1133E700020E9F72197C01BD10B3C2EF9E0CF16A7
S1133E80D10458F0F4012080FEE02F1206C0B801DE
S1133E90C5010E94B12C892B09F5442D351408F471
S1133EA04C2F50E0B801C5010E94E82C892B49F43D
S1133EB0F301EE0FFF1FE60DF71DEA5CF84F2080BB
S1133EC00DC08FEFE81AF80AE3E08E0E911CF1E1C1
S1133ED0EF16F10439F66894222424F8822DDF9138
S1133EE0CF911F910F91FF90EF90DF90CF90BF90F3
S1133EF0AF909F908F907F906F905F904F903F9086
S1133F002F90089530DF89CF08958091B41890914F
S1133F10B5180C94030F08958F929F92AF92CF928D
S1133F20EF920F931F93CF93C82F8B0141E060E072
S1133F3070E088EC90E00E94D70E9093B5188093BF
S1133F40B4181093B3180093B2180F2EFDE68F2EF9
S1133F50FEE19F2EF02D6894AA24A6F86894CC2440
S1133F60C6F8E12C00E023E040E051EE60E070E0B0
S1133F708C2F60D49093B7188093B618E091DD1914
S1133F80F091DE1964E087E091E01995CF911F91DB
S1133F900F91EF90CF90AF909F908F9008958823CA
S1133FA049F0E091E719F091E81964E088E091E0C4
S1133FB019950895E091DD19F091DE1964E088E027
S1133FC091E01995089560E070E08CEB94E0CBDE0D
S1133FD0EDE3F9E101900020E9F73197ED53F94160
S1133FE081E0759708F080E00895CF93DF93EC01AA
S1133FF060E070E08DEC94E0B6DEEDE3F9E1019071
S11340000020E9F7EE54F94139F46DE379E1CE018A
S11340100E94E12C80E002C0188281E0DF91CF9100
S11340200895FC0101900020E9F79F012151310915
S11340302817390729F4BC018BEF94E063CF089566
S113404089E00895FC0101900020E9F79F012151C6
S113405031092817390729F4BC018AE095E052CFC9
S1134060089589E00895FC0101900020E9F79F017B
S1134070215231092817390729F4BC0189E195E057
S113408041CF089589E0089560E070E088E595E007
S113409039CF08950F931F93E82FF0E0EE0FFF1F21
S11340A0EE5CF84F6081718181E695E02BDF811130
S11340B014C008E215E020E030E04DE250E06DE38A
S11340C079E18091B4189091B5180E94301088233A
S11340D021F08DE399E1A1DE03C08DE399E19DDE3A
S11340E01F910F9108950F931F93CF93DF931F9206
S11340F0CDB7DEB7DB0111969C911197953108F08D
S1134100B4C0992381F160E070E0272F30E0462F9E
S113411050E0FD01E40FF51F928192959F709A3053
S113412010F0995C01C0905DF901E253F74E908361
S11341302F5F3F4FFD01E40FF51F92819F70492FC0
S113414050E04A30510514F0995C01C0905DF901CA
S1134150E253F74E90837E5F6F5F11969C911197A7
S1134160691798F201C070E0E72FF0E0E253F74ED0
S113417010824C91811103C08AE695E002C08CE65E
S113418095E02EEC38E13F932F931F924F939F932A
S11341908F9380E795E09F938F9380E199E19F93BC
S11341A08F930E94432D60E070E080E199E1AADEE4
S11341B00FB6F894DEBF0FBECDBF811159C008E21F
S11341C015E020E030E04DE250E06DE379E18091CC
S11341D0B4189091B5180E943010882309F447C090
S11341E08DE399E11ADE8E3009F042C087E08983BD
S11341F08091B2189091B318892BA9F1BE016F5F19
S11342007F4F8DE399E168D18093B818E981F0E09C
S1134210E35CF64EDF010D900020E9F71197AE1B29
S1134220BF0BAA2391F0BB27CD0101979C0112F487
S11342302F5F3F4F359527952093B918AF014F5FF6
S11342405F4F64E18AEB98E173D101E010E020E074
S113425030E046E150E068EB78E18091B21890914B
S1134260B3180E94420F8EE003C084E101C080E0D5
S11342700F90DF91CF911F910F910895813019F024
S113428060E875E002C069E576E084E895E03ACE3E
S113429008959F938F9385EB95E09F938F9380E18F
S11342A099E19F938F930E94432D60E070E080E139
S11342B099E128DE0F900F900F900F900F900F90C0
S11342C008952F923F924F925F926F927F928F92B6
S11342D09F92AF92BF92CF92DF92EF92FF920F9391
S11342E01F93CF93DF93CDB7DEB7A0970FB6F894A3
S11342F0DEBF0FBECDBF62EE75E08EEE95E033DD1E
S11343008CDD8111A3C080E2E2E2F2E0DE011196CD
S113431001900D928A95E1F79E012F5F3F4F69014D
S1134320E12CF12C0F2EFAEFAF2EF5E0BF2EF02D7D
S113433000E119E10F2EF3E14F2EF6E05F2EF02D90
S11343400F2EFAE28F2EF6E09F2EF02D0F2EF4E4BE
S11343506F2EF6E07F2EF02D3E2C2F2CFF92EF9245
S1134360BF92AF921F930F930E94432D60E070E0C1
S1134370C801F9DC52DD0F900F900F900F900F9051
S11343800F90811163C032E03E15E8F4F601838199
S11343908F9382818F9381818F9380818F93FF92FA
S11343A0EF925F924F921F930F930E94432D60E010
S11343B070E0C801D8DC31DD0FB6F894DEBF0FBE63
S11343C0CDBF811143C02F923F929F928F921F9332
S11343D00F930E94432D60E070E0C801C4DC1DDD32
S11343E00F900F900F900F900F900F9081112EC08F
S11343F02F923F927F926F921F930F930E94432DAF
S113440060E070E0C801AFDC08DD0F900F900F9002
S11344100F900F900F90811119C03FEFE31AF30A28
S113442084E0C80ED11C98E0E916F10409F094CF99
S113443060E070E08CE596E096DCEFDC811106C06C
S113444060E070E08DE696E08EDCE7DCA0960FB6C7
S1134450F894DEBF0FBECDBFDF91CF911F910F91B6
S1134460FF90EF90DF90CF90BF90AF909F908F9090
S11344707F906F905F904F903F902F900895EF92B0
S1134480FF920F931F93CF93DF93EC018B017A017B
S113449081E0F4DE81110DC0CE01D4DD811109C0AB
S11344A0C801E1DD811105C0C701BBDD811101C077
S11344B0EBDDDF91CF911F910F91FF90EF90089565
S11344C090E0FC01EE0FFF1F8E0F9F1FFC01EA5CC2
S11344D0F84F818192810895DC01009729F1FB0155
S11344E02081FC0101900020E9F73197E81BF90BCA
S11344F0822F90E0E817F907C8F080E008C0880F21
S1134500382F330F330F830F8053890F2F5FFD0133
S1134510E20FF11D908130ED390F3A3010F4911112
S1134520EECFFB012083089580E0089580E0089594
S11345300F931F93CF93DF93DC01EA012097E1F1FE
S1134540FA0101900020E9F73197E41BF50B32974B
S113455010F532C08D01040F151F30E0AE01420F7B
S1134560531FFA019081913428F09753592F529593
S1134570507F03C0592F5295507F2C0F3D1FF901D6
S11345809181913410F0975301C09053950FF80125
S113459090838F5F01C080E0282F220F482F50E0C6
S11345A0FE0101900020E9F73197EC1BFD0B4E173B
S11345B05F0710F48613CECFDF91CF911F910F9137
S11345C00895FC0180810895FC01208181E090E040
S11345D002C0880F991F6A95E2F782230895FC01AF
S11345E0808186230895FC0160830895FC01108274
S11345F00895FC01408121E030E002C0220F331F06
S11346006A95E2F7242B20830895FC012081622B14
S113461060830895FC01408121E030E002C0220F54
S1134620331F6A95E2F7242720830895FC01208133
S1134630622760830895FC01908121E030E002C08C
S1134640220F331F6A95E2F72095292320830895CA
S1134650FC019081609569236083089580916D19B0
S1134660860F80936D1990917019913079F028F02C
S11346709230A9F0933019F108956F3F09F048C0C2
S113468010926D1981E0809370190895663809F0CD
S11346903FC010926C1982E0809370190895E091E4
S11346A06C1981E08E0F80936C19F0E0E659F64E98
S11346B06083823069F583E0809370190895909146
S11346C06C1921E0290F20936C19963009F581119A
S11346D00EC0EAE6F9E1808190E0982F88272181D5
S11346E0820F911D909372198093711904C01092D6
S11346F072191092711910927019E0916E19F0915B
S11347006F19309729F08091711990917219199548
S113471008958F929F92AF92CF92EF920F93CF937F
S1134720DF93EB010F2EFEE28F2EF3E29F2EF02D8E
S11347306894AA24A4F86894CC24C4F8E12C00E07A
S113474023E040E855E260E070E074D0909374197F
S113475080937319D0936F19C0936E19DF91CF9121
S11347600F91EF90CF90AF909F908F900895CF933B
S1134770DF93CDB7DEB729970FB6F894DEBF0FBE2F
S1134780CDBF89E0E2E4F2E09E012F5F3F4FD90103
S113479001900D928A95E1F7109272191092711995
S11347A08091731990917419009731F0422F532F0F
S11347B069E0FCD080E001C082E029960FB6F8944D
S11347C0DEBF0FBECDBFDF91CF91089565360CF0EB
S11347D064E66C390CF46CE996EF6902B0011124BB
S11347E06854744F811105C07093290160932801A6
S11347F0089570932B0160932A010895EAE0F1E093
S11348008081886180838FE39CE990932701809362
S1134810260160E080E0DADF60E081E0D7DFE0E2FB
S1134820F1E08081826A8083E1E2F1E080818A6143
S1134830808308952F923F924F925F926F927F925E
S11348408F929F92AF92CF92EF92FF920F931F930A
S1134850CF93DF93CDB7DEB7F82E2A013B0188E072
S113486090E04AD78C018F2D90E0880F991FFC01AE
S1134870EB58F64E11830083FC01E55FFD4F808108
S11348809181D8018D939C936C2D70E084E090E02D
S113489019D71C0161E070E086E090E013D77C0139
S11348A04C2DB1012CD5F801F582E4826A2D70E01B
S11348B084E090E007D71C0161E070E086E090E0BE
S11348C001D77C014A2DB1011AD5D8011396FC9267
S11348D0EE92129717969C928E921697FFB6F894C2
S11348E0ED91FC91119736978081826080838D9041
S11348F09C90C301B201F1D520E030E040E051E4E6
S113490051D69B01AC0160E074E284E79BE47AD564
S113491020E030E040E85FE30ED50E94161CF4016D
S113492032976083D801ED91FC911197359788E90E
S11349308083ED91FC91349786E08083FFBEC801AB
S1134940DF91CF911F910F91FF90EF90CF90AF9097
S11349509F908F907F906F905F904F903F902F909B
S11349600895CF93DF93EC01EA81FB8193818281E7
S11349702581981B922384819817A1F09381269511
S11349802923A081B181A20FB11D6C939F5F258162
S113499092239383E881F9813597808180628083B3
S11349A080E001C082E0DF91CF910895EF92FF9201
S11349B00F931F93CF93DF937C01DC011296ED914B
S11349C0FC91139793818281981B8581982384811C
S11349D0891B861798F1662341F1842F952FDC01FA
S11349E06150462F50E04F5F5F4F480F591FE7015A
S11349F0EA81FB81938182812581981B92238481A2
S1134A00981779F08C91938126952923608171817F
S1134A108B01020F111DE80188839F5F8581982314
S1134A2093831196A417B50711F7D701ED91FC9163
S1134A30359780818062808380E001C082E0DF91CD
S1134A40CF911F910F91FF90EF900895DC01149680
S1134A50ED91FC91159793818281981789F0928149
S1134A60858186958923A081B181A80FB11D8C9180
S1134A70DB018C939F5F85819823928380E0089566
S1134A8083E008951F920F920FB60F9211240BB674
S1134A900F922F933F934F935F936F937F938F93D3
S1134AA09F93AF93BF93CF93DF93EF93FF93A09123
S1134AB07519B0917619109711F16091C60014968A
S1134AC0ED91FC911597938182812581981B922306
S1134AD08481981761F0838126952823C081D18130
S1134AE0C20FD11D68838F5F9581892383831696B6
S1134AF0ED91FC911797309711F0CD011995FF9125
S1134B00EF91DF91CF91BF91AF919F918F917F9161
S1134B106F915F914F913F912F910F900BBE0F902A
S1134B200FBE0F901F9018951F920F920FB60F9201
S1134B3011240BB60F922F938F939F93AF93BF9330
S1134B40EF93FF93E0917519F09176193097B9F0CE
S1134B500280F381E02D938182819817B1F09281D4
S1134B608581282F26952923A081B181A20FB11D0B
S1134B702C919F5F892382832093C6000BC0E1ECB4
S1134B80F0E080818F7D808305C0E1ECF0E08081DE
S1134B908F7D8083FF91EF91BF91AF919F918F9112
S1134BA02F910F900BBE0F900FBE0F901F90189572
S1134BB01F920F920FB60F9211240BB60F922F93E0
S1134BC03F934F935F936F937F938F939F93AF9391
S1134BD0BF93CF93DF93EF93FF93A0917719B09195
S1134BE07819109711F16091CE001496ED91FC9113
S1134BF01597938182812581981B9223848198172C
S1134C0061F0838126952823C081D181C20FD11DF3
S1134C1068838F5F9581892383831696ED91FC9138
S1134C201797309711F0CD011995FF91EF91DF910E
S1134C30CF91BF91AF919F918F917F916F915F9130
S1134C404F913F912F910F900BBE0F900FBE0F907D
S1134C501F9018951F920F920FB60F9211240BB646
S1134C600F922F938F939F93AF93BF93EF93FF93E1
S1134C70E0917719F09178193097B9F00280F381B7
S1134C80E02D938182819817B1F092818581282F3C
S1134C9026952923A081B181A20FB11D2C919F5F7C
S1134CA0892382832093CE000BC0E9ECF0E080815D
S1134CB08F7D808305C0E9ECF0E080818F7D808367
S1134CC0FF91EF91BF91AF919F918F912F910F9091
S1134CD00BBE0F900FBE0F901F9018951F920F924E
S1134CE00FB60F9211240BB60F922F933F934F934D
S1134CF05F936F937F938F939F93AF93BF93CF9360
S1134D00DF93EF93FF93A0917919B0917A191097DB
S1134D1011F16091D6001496ED91FC911597938151
S1134D2082812581981B92238481981761F0838165
S1134D3026952823C081D181C20FD11D68838F5F3E
S1134D409581892383831696ED91FC91179730976B
S1134D5011F0CD011995FF91EF91DF91CF91BF91A2
S1134D60AF919F918F917F916F915F914F913F91FF
S1134D702F910F900BBE0F900FBE0F901F901895A0
S1134D801F920F920FB60F9211240BB60F922F930E
S1134D908F939F93AF93BF93EF93FF93E091791910
S1134DA0F0917A193097B9F00280F381E02D938164
S1134DB082819817B1F092818581282F2695292325
S1134DC0A081B181A20FB11D2C919F5F89238283A1
S1134DD02093D6000BC0E1EDF0E080818F7D8083CD
S1134DE005C0E1EDF0E080818F7D8083FF91EF913C
S1134DF0BF91AF919F918F912F910F900BBE0F9008
S1134E000FBE0F901F9018951F920F920FB60F921E
S1134E1011240BB60F922F933F934F935F936F938D
S1134E207F938F939F93AF93BF93CF93DF93EF932E
S1134E30FF93A0917B19B0917C19109711F16091A7
S1134E4036011496ED91FC91159793818281258109
S1134E50981B92238481981761F0838126952823D7
S1134E60C081D181C20FD11D68838F5F9581892351
S1134E7083831696ED91FC911797309711F0CD012D
S1134E801995FF91EF91DF91CF91BF91AF919F91D0
S1134E908F917F916F915F914F913F912F910F90DF
S1134EA00BBE0F900FBE0F901F9018951F920F927C
S1134EB00FB60F9211240BB60F922F938F939F93DB
S1134EC0AF93BF93EF93FF93E0917B19F0917C191B
S1134ED03097B9F00280F381E02D93818281981795
S1134EE0B1F092818581282F26952923A081B18153
S1134EF0A20FB11D2C919F5F8923828320933601D9
S1134F000BC0E1E3F1E080818F7D808305C0E1E3A4
S1134F10F1E080818F7D8083FF91EF91BF91AF910C
S1134F209F918F912F910F900BBE0F900FBE0F90FA
S1134F301F901895CF93DF931F92CDB7DEB7BE01B4
S1134F406F5F7F4F80917D1990917E197FDD811174
S1134F50F6CF898190E00F90DF91CF910895682F6B
S1134F6080917D1990917E19FCDC80E090E0089599
S1134F708F929F92AF92CF92EF920F93812C912CAC
S1134F806894AA24A7F86894CC24C7F8E12C00E01C
S1134F9023E040E051EE60E070E04CDC90937E1939
S1134FA080937D19EFEEF9E183E192E091838083B0
S1134FB0938382830F91EF90CF90AF909F908F90C7
S1134FC0089580918D1981110CC08CE08093B800F4
S1134FD08FEF8093BB0084E08093BC0081E08093DA
S1134FE08D190895AF92BF92CF92DF92EF92FF9204
S1134FF00F931F93CF93DF93A82EB62E69017A01E6
S113500084E090E079D3EC01892B61F1A88281E0FE
S1135010B81212C0C701B60120EA36E841E050E0F8
S113502027D3DA01C9014097A109B109B695A7951B
S113503097958795898311C0C701B60120E83AE1A5
S113504046E050E015D3DA01C9014097A109B1093E
S1135050B695A7959795879589831B830A838C2F8B
S11350609D2F02C080E090E0DF91CF911F910F91BE
S1135070FF90EF90DF90CF90BF90AF900895809114
S1135080BC0081700895FF920F931F93CF93DF9319
S11350900097D1F14A30D0F5F42E8B01EC01EFDF0B
S11350A0811136C08091801990918119C817D90750
S11350B041F087DF89818093B800D0938119C09330
S11350C0801981E08F0D809382198881880F8093E5
S11350D08319FF2089F0F801A4E8B9E14FEF4F0DDF
S11350E0642F70E0CB010196B801680F791F81919C
S11350F08D93E617F707D9F788EF8093210285EAA5
S11351008093BC0084E005C086E003C087E001C052
S113511082E0DF91CF911F910F91FF9008951F932B
S1135120CF93DF93009729F16B3028F5162FEC010C
S1135130A6DF811122C08091801990918119C8172E
S1135140D90741F03EDF89818093B800D09381195B
S1135150C0938019109382198881880F816080938D
S1135160831988EF8093210285EA8093BC0085E04F
S113517005C086E003C087E001C082E0DF91CF91E3
S11351801F9108951F920F920FB60F9211240BB620
S11351900F922F933F934F935F936F937F938F93CC
S11351A09F93AF93BF93EF93FF93E091B9008E2F3A
S11351B090E0FC013897E135F10508F075C08827C7
S11351C0E458FF4F8F4F76C210927F19E0917F19F8
S11351D080918219E81770F481E08E0F80937F1913
S11351E0F0E0ED57F64E80818093BB0085E8809314
S11351F0BC0072C084E98093BC00809180199091B6
S11352008119DC011296ED91FC911397309709F402
S113521063C020E040E050E064E019955DC0E09197
S11352207F1981E08E0F80937F198091BB00F0E09D
S1135230ED57F64E80838091B900803411F41092BA
S11352407F1920917F1930E08091821990E00197B5
S11352502817390724F485EC8093BC003DC085E809
S11352608093BC0039C08091BB00E0917F19F0E0CD
S1135270ED57F64E808384E98093BC0080918019B9
S113528090918119DC011296ED91FC91139730975E
S113529019F12091821943E859E165E019951CC080
S11352A085EA8093BC0018C08091B90080932102E4
S11352B084E08093BC008091801990918119DC0175
S11352C01296ED91FC911397309731F020E040E075
S11352D050E0609121021995FF91EF91BF91AF9138
S11352E09F918F917F916F915F914F913F912F91FA
S11352F00F900BBE0F900FBE0F901F901895FC01DE
S1135300411101C01AD3842F90E09C01215031092E
S113531082239323892B09F010D3413808F00DD34D
S1135320128213824483440F415045837183608306
S113533080E090E008955058BB27AA270ED021C1E1
S113534012D130F017D120F031F49F3F11F41EF444
S113535007C10EF4E095E7FBFDC0E92F0E94421C53
S113536078F3BA17620773078407950720F079F476
S1135370A6F50C94641C0EF4E0950B2EBA2FA02D08
S11353800B01B90190010C01CA01A0011124FF27EE
S1135390591B99F0593F50F4503E68F11A16F040E9
S11353A0A22F232F342F4427585FF3CF46953795E8
S11353B02795A795F0405395C9F77EF41F16BA0BAD
S11353C0620B730B840BBAF09150A1F0FF0FBB1F5B
S11353D0661F771F881FC2F70EC0BA0F621F731FA4
S11353E0841F48F4879577956795B795F7959E3F01
S11353F008F0B1CF9395880F08F09927EE0F979591
S1135400879508950DD0BDC0B5D048F0ACD038F024
S113541021F45F3F21F09EC051110C94651CA0C083
S11354200E94421C88F39923B9F35523A1F3951BD9
S1135430550BBB27AA2762177307840738F09F5FB1
S11354405F4F220F331F441FAA1FA9F334D00E2E1F
S11354503AF0E0E831D091505040E695001CCAF78C
S11354602AD0FE2F28D0660F771F881FBB1F261750
S113547037074807AB07B0E809F0BB0B802DBF0125
S1135480FF2793585F4F32F09E3F510570F062C082
S11354900C94651C5F3FE4F3983ED4F386957795AE
S11354A06795B795F7959F5FC9F7880F911D9695F6
S11354B0879597F90895E1E0660F771F881FBB1F52
S11354C0621773078407BA0720F0621B730B840BFF
S11354D0BA0BEE1F88F7E0950895E89409C097FB8E
S11354E03EF490958095709561957F4F8F4F9F4FB7
S11354F09923A9F0F92F96E9BB279395F6958795FB
S113550077956795B795F111F8CFFAF4BB0F11F4BD
S113551060FF1BC06F5F7F4F8F4F9F4F16C0882364
S113552011F096E911C0772321F09EE8872F762F9A
S113553005C0662371F096E8862F70E060E02AF0DB
S11355409A95660F771F881FDAF7880F96958795C7
S113555097F9089597F99F6780E870E060E00895EF
S11355609FEF80EC089500240A9416161706180677
S11355700906089500240A94121613061406050653
S11355800895092E0394000C11F4882352F0BB0FE4
S113559040F4BF2B11F460FF04C06F5F7F4F8F4F47
S11355A09F4F08950CD0EDCFDEDF28F0E3DF18F035
S11355B0952309F0CFCFD4CF11240C94651C0E94FD
S11355C0421C90F3959FC1F3950F50E0551F629FC5
S11355D0F001729FBB27F00DB11D639FAA27F00D48
S11355E0B11DAA1F649F6627B00DA11D661F829F6F
S11355F02227B00DA11D621F739FB00DA11D621F54
S1135600839FA00D611D221F749F3327A00D611D70
S1135610231F849F600D211D822F762F6A2F112452
S11356209F57504092F0E9F088234AF0EE0FFF1F95
S1135630BB1F661F771F881F91505040A9F79E3FDC
S1135640510578F087CF0C94651C5F3FE4F3983ED6
S1135650D4F3869577956795B795F795E7959F5F0A
S1135660C1F7FE2B880F911D9695879597F908959C
S1135670A1E21A2EAA1BBB1BFD010DC0AA1FBB1F52
S1135680EE1FFF1FA217B307E407F50720F0A21BC4
S1135690B30BE40BF50B661F771F881F991F1A9431
S11356A069F760957095809590959B01AC01BD015B
S11356B0CF010895EE0FFF1F881F8BBF0790F6914F
S11356C0E02D19940F931F93CF93DF93869F80014E
S11356D0879F100D969F100D1124C8010DD0EC0169
S11356E0009721F0A80160E070E034D1CE01DF9191
S11356F0CF911F910F9108950F931F93CF93DF9331
S11357008230910510F482E090E0E091ED19F0917F
S1135710EE1920E030E0A0E0B0E0309719F14081CC
S113572051810281138148175907C8F084179507DE
S113573069F4109731F012960C93129713961C93F8
S113574027C00093ED191093EE1922C021153105DD
S113575019F04217530718F49A01BD01EF01DF0154
S1135760F801DBCF21153105F9F0281B390B243062
S1135770310580F48A819B816115710521F0FB015B
S11357809383828304C09093EE198093ED19FE01F4
S1135790329644C0FE01E20FF31F8193919322508D
S11357A03109398328833AC02091EB193091EC19DF
S11357B0232B41F420910202309103023093EC191F
S11357C02093EB192091000230910102211531053B
S11357D041F42DB73EB74091040250910502241BB9
S11357E0350BE091EB19F091EC19E217F307A0F4F3
S11357F02E1B3F0B2817390778F0AC014E5F5F4F23
S11358002417350748F04E0F5F1F5093EC1940934F
S1135810EB198193919302C0E0E0F0E0CF01DF91B6
S1135820CF911F910F910895CF93DF93009709F4BF
S113583081C0FC01329713821282A091ED19B091BC
S1135840EE19109781F420813181820F931F2091EA
S1135850EB193091EC192817390751F5F093EC192D
S1135860E093EB1967C0ED0120E030E0CE17DF07CD
S113587040F44A815B819E0141155105F1F0EA0132
S1135880F5CFD383C28340815181840F951FC817FC
S1135890D90759F488819981840F951F02969183C1
S11358A080838A819B81938382832115310529F426
S11358B0F093EE19E093ED193DC0E901FB83EA830F
S11358C049915991C40FD51FEC17FD0761F48081EC
S11358D09181840F951F0296E901998388838281BF
S11358E093819B838A83E0E0F0E012968D919C91F2
S11358F01397009719F0FD01DC01F7CF8D919C916E
S113590011979D012E5F3F4F820F931F2091EB193A
S11359103091EC192817390769F4309729F410925B
S1135920EE191092ED1902C013821282B093EC1991
S1135930A093EB19DF91CF91089581E090E0F89462
S11359407DC3FB01DC0102C001900D924150504027
S1135950D8F70895DC0101C06D9341505040E0F741
S11359600895FB0151915523B1F0BF01DC01052ECF
S11359704D91442369F010D0D9F7CD010190002056
S113598049F04D91411108D0C9F3FB014111EECF0B
S113599081E090E001970895402539F0403229F4E0
S11359A040294B57465E08F018940895FB01DC012A
S11359B00D900020E9F7119701900D920020E1F776
S11359C00895FB01DC0101900D920020E1F7089598
S11359D0FB01DC014150504088F08D9181341CF072
S11359E08B350CF4805E619161341CF06B350CF4E2
S11359F0605E861B611171F3990B0895881BFCCFBF
S1135A00CF93DF93CDB7DEB7AE014A5F5F4FFA01A4
S1135A1061917191AF018091F1199091F21961D066
S1135A20DF91CF9108950F931F93CF93DF93E0916C
S1135A30F119F091F219238121FF1BC08C01D0E0F0
S1135A40C0E0F80181918F016091F1197091F21910
S1135A50DB011896ED91FC911997882331F0199583
S1135A60892B79F3DFEFCFEFECCF8AE01995892BFF
S1135A7019F08FEF9FEF02C08D2F9C2FDF91CF91F4
S1135A801F910F9108950F931F93CF93DF93CDB779
S1135A90DEB72E970FB6F894DEBF0FBECDBF0E89CA
S1135AA01F8986E08C831A8309838FEF9FE79E8387
S1135AB08D83AE01465E5F4F688D798DCE01019670
S1135AC010D0EF81F885E00FF11F10822E960FB6EB
S1135AD0F894DEBF0FBECDBFDF91CF911F910F9120
S1135AE008952F923F924F925F926F927F928F927E
S1135AF09F92AF92BF92CF92DF92EF92FF920F9359
S1135B001F93CF93DF93CDB7DEB72B970FB6F894DF
S1135B10DEBF0FBECDBF6C017B018A01FC01178281
S1135B201682838181FFBFC1CE0101963C01F6013B
S1135B309381F70193FD859193FF81917F018823E0
S1135B4009F4ADC1853239F493FD859193FF8191B8
S1135B507F01853221F4B60190E0D6D1E8CF912CB3
S1135B60212C312CFFE1F315D8F08B3279F038F485
S1135B70803279F08332A1F4232D20611DC08D324F
S1135B8061F0803369F4232D216016C0832D826077
S1135B90382EE32DE4603E2E2AC0F32DF8601DC09C
S1135BA037FC2DC020ED280F2A3040F08E32B9F496
S1135BB036FC75C1232D2064322E19C036FE06C072
S1135BC08AE0989E200D1124922E11C0EAE02E9EA8
S1135BD0200D1124222EF32DF0623F2E08C08C36A6
S1135BE021F4832D8068382E02C0883641F4F701F1
S1135BF093FD859193FF81917F018111B3CF982FFC
S1135C009F7D9554933028F40C5F1F4F9FE3998335
S1135C100DC0833631F0833771F0833509F055C0F8
S1135C2020C0F801808189830E5F1F4F88248394EC
S1135C30912C530112C02801F2E04F0E511CF801BF
S1135C40A080B18036FE03C0692D70E002C06FEF02
S1135C507FEFC5014ED14C018201F32DFF773F2E1A
S1135C6015C0280122E0420E511CF801A080B18029
S1135C7036FE03C0692D70E002C06FEF7FEFC501EF
S1135C802DD14C01F32DF0683F2E820133FC19C055
S1135C90822D90E088169906A0F4B60180E290E087
S1135CA033D12A94F5CFF50137FC859137FE8191E4
S1135CB05F01B60190E028D121102A9421E0821AD4
S1135CC091088114910479F7E1C0843611F0893682
S1135CD039F5F80137FE07C06081718182819381B3
S1135CE00C5F1F4F08C060817181072E000C880B68
