:1000000049C2000068C2000066C2000064C200006D
:1000100062C2000060C200005EC200005CC200005C
:100020005AC2000058C2000056C2000054C200006C
:100030000C94D90950C200004EC200004CC200000E
:100040004AC2000048C2000046C2000044C200008C
:1000500042C2000040C200003EC200003CC200009C
:100060003AC200000C9466250C94B82534C20000F6
:1000700032C2000030C200002EC200002CC20000BC
:100080002AC2000028C2000026C2000024C20000CC
:100090000C94FC250C944E261EC200000C94E628FD
:1000A0001AC2000018C2000016C2000014C20000EC
:1000B00012C2000010C200000EC200000CC20000FC
:1000C0000AC2000008C2000006C200000C9492267A
:1000D0000C94E42600C200000C9428270C947A2784
:1000E000FAC10000C001C001C001FA0102021802F9
:1000F000C001C001FA01020208297829782978296B
:100100007829782978297829082978297829782957
:1001100078297829782978290A2978297829782945
:1001200078297829782978297829782978297829C7
:1001300078297829782978290A2978297829782925
:1001400078297829782978297829782978297829A7
:10015000782978297829782974297829782978299B
:1001600078297829782978293F29782978297829C0
:100170007829782978297829782978297829782977
:1001800078297829782978293329782978297829AC
:10019000782978297829782957290DE918E10F2E2F
:1001A000FDECEF2EF8E1FF2EF02D80919C188823B6
:1001B00011F10FB6F8940F92D8011796ED91FC91BA
:1001C0001897C085D185CE01029658D78091901896
:1001D00081508093901880919C18815080939C1836
:1001E0000F900FBE8B8D9C8DA5D6CE01A3D680918E
:1001F0009C188111DECFF7018081823010F00E94BF
:1002000013090E948C1AD1CFCF93DF93CDB7DEB7FD
:1002100060970FB6F894DEBF0FBECDBFCE0101963A
:100220009A878987812C912CA12CB12C69847A849E
:10023000E0910519F09106198081882309F410C115
:100240000780F085E02D20803180428053800E941D
:100250007312CE0101960E94F6196B877C878D87F9
:100260009E878981811165C08B859C85AD85BE8502
:1002700082159305A405B50508F444C00E945C13DB
:10028000E0910519F09106190780F085E02DA08511
:10029000B185B88BAF87CD010296F0D6EF85F8898E
:1002A000878982FF21C04685578560897189420D03
:1002B000531D641D751D720161010B851C852D8503
:1002C0003E85CF010E940519882399F0C82CD92CAE
:1002D000EA2CFB2C00E010E0A201910160E08F8588
:1002E00098890E94981905C08E7FAF85B889579666
:1002F0008C93AF85B8895496ED91FC915597CD01BB
:1003000019959FC020E0B201A1018B859C85AD8528
:10031000BE85481B590B6A0B7B0B8091011990918C
:1003200002190E94770D0E945C1381118AC07BD74D
:1003300088C00E945C1385C0898188230CF481C029
:100340004E805F80D2011C968D919C911D97892BC8
:1003500019F0C201029692D6CE0108960E94F619B3
:100360008B019C01E9810E2E000CFF0BEA30F10598
:1003700008F067C08827EE58FF4F8F4F0C947E2BF4
:10038000F20187898160878BCA80DB80EC80FD80E9
:1003900046855785608971894C0D5D1D6E1D7F1DD9
:1003A000C2010E940519882309F44BC0D20154965A
:1003B000ED91FC915597C2011995F201878982FF51
:1003C00040C04A815B816C817D8186859785A0894B
:1003D000B1899A01AB01280F391F4A1F5B1FC82C36
:1003E000D92CEA2CFB2C00E010E060E0C2010E9456
:1003F000981927C0D20157968C9157978E7F5796A0
:100400008C931FC0F20187898160878B4A815B8151
:100410006C817D8146875787608B718B400F511FA0
:10042000621F731F68017901C2010E94051909C08A
:10043000F201878981FD03C0C2017CD502C08E7F95
:10044000878B282D392D4A2D5B2D662D772D809198
:100450000119909102190E94110C81116DCFE8CE03
:100460000E947312CE0101960E94F6196B877C8759
:100470008D879E87898181115CCFE0910319F0916E
:100480000419808121E0811120E0282C392C4A2C8C
:100490005B2C39CF11241FBECFEFD1E2DEBFCDBF21
:1004A00000E00CBF18E0A0E0B2E0E8E8F0E600E011
:1004B0000BBF02C007900D92A635B107D9F72AE10C
:1004C000A6E5B8E001C01D92A03BB207E1F70E948B
:1004D000DB1B0C94423094CD0F2EF1EAAF2EF2E0EC
:1004E000BF2EF02DCBEBD2E00F2EF4EFCF2EDD247C
:1004F000D394E12CF12CF02D01E021E041E050E01B
:1005000060E070E080917E1A90917F1AB4D260FF13
:10051000EBCF0E940F248093791A882321F08EE676
:1005200092E00E94372DACD19F938F93BF92AF92F0
:10053000DF93CF930E94242D44E050E060E070E010
:1005400080917C1A90917D1A56D368EC70E080E01F
:1005500090E00E9436140F900F900F900F900F9024
:100560000F90C2CFEF92FF920F9363E574E083E0A8
:100570000E94E123E12CF12C03E020E030E048E888
:1005800051E061EC72E08CE692E00E9418110F914C
:10059000FF90EF900895CF93DF9300D01F92CDB7D7
:1005A000DEB781E00E94272062E070E080E090E00A
:1005B0000E94361480E00E94272066E970E080E007
:1005C00090E00E9436140E94DD1F81E00E94351EDB
:1005D0000E943B200E94B8229F938F938DEC92E063
:1005E0009F938F930E94242D0E94B9210E94B822CC
:1005F0009F938F9380EE92E09F938F930E94242D80
:100600008CE698E00E944D200E94B8220CE618E08B
:100610001F930F939F938F9389EF92E09F938F93F4
:100620000E94242DC8010E9469200E94B8229F9335
:100630008F931F930F938DE093E09F938F930E946E
:10064000242DA80162E273E083E493E00E949722E4
:100650000E94B8229F938F931F930F9382E293E09F
:100660009F938F9383E493E09F938F9384E593E02C
:100670009F938F930E94242D0E949C200E94B82259
:100680009F938F938AE893E09F938F930E94242DEA
:100690000FB6F894DEBF0FBECDBF81E00E94962159
:1006A0000E94B8229F938F9389E993E09F938F9341
:1006B0000E94242D84EF91E00E94A1210E94B82283
:1006C0009F938F9381E08F9384EF8F938AEB93E0D6
:1006D0009F938F930E94242D0FB6F894DEBF0FBE18
:1006E000CDBF0AE010E00F2EFAEDEF2EF3E0FF2E63
:1006F000F02D80E00E94A220D82E0E94B8229F9365
:100700008F931F930F93FF92EF920E94242D0F90CF
:100710000F900F900F900F900F90F8E0DF1609F4F4
:1007200079C080E00E94A11E66E371E080E090E065
:100730000E94361401501109E1F665C074D5FECF50
:1007400044E457E060E070E0CE0101960E94D813C7
:1007500043E050E060E070E080917E1A90917F1A53
:100760004AD20F2EF4EFCF2EDD24D394E12CF12CBE
:10077000F02D01E021E04CE050E060E070E080917D
:100780007C1A90917D1A77D1DC01CB018C7099276E
:10079000AA27BB270C97A105B10591F6AAD00E9404
:1007A000EB1BF62EE72EEBD00E94EB1B162F072F2C
:1007B00067D0D82EC92E0F931F93EF92FF927F928E
:1007C0006F920E94242DF501E282F3820483158347
:1007D000C682D782B50180E00E94CB2083E00E94D0
:1007E000B31EB50180E00E94CB200E94B8229F93E7
:1007F0008F939F928F920E94242D0FB6F894DEBFA4
:100800000FBECDBF9DCF81E00E94921E80E00E946E
:100810005C1E94CF81E00E94831EE6E5F8E086E04E
:10082000818382E080830E94791269837A838B833B
:100830009C830F2EFAEF6F2EF3E07F2EF02D0F2EFC
:10084000F6E5AF2EF8E0BF2EF02D0F2EF1E08F2E43
:10085000F4E09F2EF02D74CFEF92FF920F93E12CD6
:10086000F12C082F20E030E048E851E066E174E028
:100870008BEC92E00E9418110F91FF90EF90089579
:100880008091D208882351F062E370E080E090E02C
:100890000E9436148091D2088111F6CF8091881A77
:1008A0009091891A08950F93CF93DF93EC0148EE4E
:1008B00053E060E070E08091821A9091831A0E9468
:1008C000AA0C81E08093D208D093891AC093881A29
:1008D00000E020E030E0A90160E070E08091821A41
:1008E0009091831AAAD61092D208DF91CF910F91DE
:1008F00008958091D108882351F062E370E080E090
:1009000090E00E9436148091D1088111F6CF609159
:100910008A1A70918B1A80918C1A90918D1A089571
:10092000CF92DF92EF92FF920F936B017C0148EE22
:1009300053E060E070E080917A1A90917B1A0E94F7
:10094000AA0C81E08093D108C0928A1AD0928B1AA7
:10095000E0928C1AF0928D1A00E020E030E0A901BC
:1009600060E070E080917A1A90917B1A66D61092BE
:10097000D1080F91FF90EF90DF90CF900895809174
:10098000D008882351F062E370E080E090E00E949C
:1009900036148091D0088111F6CF6091841A70913D
:1009A000851A8091861A9091871A0895CF92DF92C6
:1009B000EF92FF920F936B017C0148EE53E060E0F1
:1009C00070E08091801A9091811AC4D781E0809361
:1009D000D008C092841AD092851AE092861AF092BA
:1009E000871A00E020E030E0A90160E070E080912B
:1009F000801A9091811A21D61092D0080F91FF9001
:100A0000EF90DF90CF9008958091881A9091891A85
:100A1000892B39F482E090E0D4D19093891A8093A5
:100A2000881A0895E7E0F1E080818F60808308955F
:100A3000E8E0F1E09081907F908390818F70982B17
:100A400090830895E8E0F1E08081807F80830895BD
:100A5000CF93DF9380E190E0B4D1EC01009739F0BF
:100A6000FC011192119211921192CF0194D2CE01F8
:100A7000DF91CF9108952F923F924F925F926F92A4
:100A80007F928F929F92AF92BF92CF92DF92EF921E
:100A9000FF920F931F93CF93DF93EC014A015B0109
:100AA000622E702E0E947312288039804A805B80EB
:100AB00001110DC081E0B201A101482159216A2133
:100AC0007B21452B462B472B79F480E00DC081E03C
:100AD000B201A101482159216A217B2148155905FC
:100AE0006A057B0509F080E0882381F0662009F41F
:100AF0006BC080949094A094B09482209320A42002
:100B0000B52088829982AA82BB825EC0C114D104BA
:100B1000E104F10409F458C0662029F040E050E0F7
:100B200060E071E003C040E050E0BA017110746011
:100B3000482959296A297B2997018601CE01049603
:100B40000E94E5140E945C13811101C06CD30E94C5
:100B50002C1791FD35C00FB6F8940F9268817981FA
:100B60008A819B8171100DC021E075016401C6224C
:100B7000D722E822F922CD28CE28CF2879F420E008
:100B80000DC021E075016401C622D722E822F922B6
:100B9000C814D904EA04FB0409F020E0222371F010
:100BA000662061F080949094A094B094862297225D
:100BB000A822B92288829982AA82BB820F900FBE96
:100BC0001B012C01552402C00E945C13C201B1011B
:100BD000DF91CF911F910F91FF90EF90DF90CF9019
:100BE000BF90AF909F908F907F906F905F904F904D
:100BF0003F902F9008954F925F926F927F928F92C5
:100C00009F92AF92BF92CF92DF92EF92FF920F939B
:100C10001F93CF93DF93EC016A017B018C01095F85
:100C20001F4F0E947312EB85FC8588819981AA81F0
:100C3000BB81C82AD92AEA2AFB2AC882D982EA8239
:100C4000FB820E171F0709F445C0C12CD12C760179
:100C500099249394812CA480B58080819181A28174
:100C6000B381AC01BD017727B2FD0FC04880598028
:100C70006A807B804422552266227722292D4528CE
:100C80004628472889F4282D0FC0488059806A805B
:100C90007B804422552266227722292D4416550650
:100CA0006606770609F0282D222371F0B0FF04C0F4
:100CB000C42AD52AE62AF72A488159816A817B818C
:100CC0007260CF010E946B15EA2DFB2D0E171F07D6
:100CD00011F603C0C12CD12C7601C094D094E094BD
:100CE000F09488819981AA81BB81C822D922EA2205
:100CF000FB22C882D982EA82FB820E945C1368814F
:100D000079818A819B81DF91CF911F910F91FF9013
:100D1000EF90DF90CF90BF90AF909F908F907F909B
:100D20006F905F904F900895CF93DF93DC01EBEDD0
:100D3000F8E001C0F901208131812A173B07D0F387
:100D400082819381AF01480F591FA417B50749F459
:100D500012964D915C911397840F951F9383828314
:100D6000DF0112968D919C911397ED01C80FD91F49
:100D70002C173D07D9F42091D9083091DA08C21711
:100D8000D30781F02A813B81820F931F13969C9396
:100D90008E931297C081D1818881998111969C93FD
:100DA0008E9307C01196DC93CE9303C011963C93AB
:100DB0002E93AE17BF0711F0B183A083DF91CF91BF
:100DC0000895CF92DF92EF92FF920F931F93CF93EC
:100DD000DF93EC010E9473128091D9089091DA0898
:100DE000892B41F5EBEDF8E0AFEDB8E0B183A083DE
:100DF00013821282EBE7F8E1F093DA08E093D90866
:100E000013821282118210828CE99FE013969C93C8
:100E10008E931297ED93FC939093D6088093D50808
:100E20009093D8088093D70880E090E89093D408F6
:100E30008093D308E090D308F090D408C7018C23A6
:100E40009D23892B09F066C0209709F466C0AE0186
:100E50004C5F5F4F09F45EC00091D7081091D8082D
:100E60000417150708F456C0C091DB08D091DC08C0
:100E7000EBEDF8E002C0FE01E9012A813B81241775
:100E8000350728F42881398121153105A1F7809192
:100E9000D9089091DA08C817D907E1F1C080D1804C
:100EA00084E0C80ED11C88819981918380832A8136
:100EB0003B81241B350B2930310548F0CE01840FCE
:100EC000951FFC01338322835B834A832DDF8A8154
:100ED0009B81081B190B1093D8080093D708209109
:100EE000D5083091D6080217130720F41093D608BE
:100EF0000093D508E82AF92AFB82EA82198218822F
:100F00000E945C13C114D10459F40E948D1AC12CA3
:100F1000D12C06C00E945C13F8CF0E945C13F5CF61
:100F2000C601DF91CF911F910F91FF90EF90DF905D
:100F3000CF900895CF93DF93009751F1FC01349740
:100F4000228133814091D3085091D408B9016423A0
:100F50007523672BE9F060817181672BC9F4EF017C
:100F60004095509524233523338322830E947312A6
:100F70002091D7083091D8088A819B81820F931FD6
:100F80009093D8088093D708CE01CEDE0E945C13E0
:100F9000DF91CF910895FC010396928381834FEFF7
:100FA0005FEFBA0143835483658376839087878399
:100FB0009287818710820895FC0113861286089516
:100FC000CF93DF939C01FB01DC011196CD91DC9165
:100FD0001297D583C4838E819F81978386838E8168
:100FE0009F81DC0115967C936E9314977F836E83AB
:100FF00033872287F90180818F5F8083DF91CF91D2
:1010000008950F931F93CF93DF93EB01088119810C
:101010002A813B810F3F4FEF14072407340721F447
:10102000FC01A185B28511C0DC01139601C0DF016E
:101030001496ED91FC9115974081518162817381E5
:10104000041715072607370790F71496ED91FC91C2
:101050001597FD83EC83D783C683BF83AE83159634
:10106000DC93CE9314979B878A87FC0120812F5FA6
:101070002083DF91CF911F910F910895CF93DF933C
:10108000FC01A285B385C481D581868197819F8328
:101090008E83C681D781848195819D838C831196AF
:1010A0008D919C911297E817F90731F48681978109
:1010B00012969C938E931197138612868C91815071
:1010C0008C938C91DF91CF91089531E1FC013083B5
:1010D000319722E220833197A3E3A0833197608385
:1010E000319770833197108231971082319760E881
:1010F0006083319710823197108231971082319737
:1011000062E06083319763E06083319764E06083DD
:10111000319765E06083319766E06083319767E0DF
:101120006083319768E06083319769E0608331972D
:1011300060E1608331973083319732E130833197BA
:1011400033E13083319734E13083319735E13083B7
:10115000319736E13083319737E13083319738E189
:101160003083319739E13083319730E230833197E2
:1011700031E2308331972083319723E22083319706
:10118000408331975083319726E22083319727E2BD
:101190002083319728E22083319729E220833197F9
:1011A00020E32083319721E3208389970895A89530
:1011B00090EC88E10FB6F894A895809360000FBE7C
:1011C00090936000A091F918B091FA18CD91CDBF1D
:1011D000DD91DEBFFF91EF91DF91CF91BF91AF9194
:1011E0009F918F917F916F915F914F913F912F913F
:1011F0001F910F91FF90EF90DF90CF90BF90AF9035
:101200009F908F907F906F905F904F903F902F9026
:101210001F900F900CBE0F900BBE0F900FBE0F9043
:10122000089581E008950F920FB6F8940F920BB6CF
:101230000F920CB60F921F9211242F923F924F9251
:101240005F926F927F928F929F92AF92BF92CF9256
:10125000DF92EF92FF920F931F932F933F934F9341
:101260005F936F937F938F939F93AF93BF93CF932E
:10127000DF93EF93FF93A091F918B091FA180DB690
:101280000D920EB60D920E944F14A091F918B091D4
:10129000FA18CD91CDBFDD91DEBFFF91EF91DF91C7
:1012A000CF91BF91AF919F918F917F916F915F91FE
:1012B0004F913F912F911F910F91FF90EF90DF90F1
:1012C000CF90BF90AF909F908F907F906F905F90E6
:1012D0004F903F902F901F900F900CBE0F900BBE21
:1012E0000F900FBE0F9008950F920FB6F8940F92C3
:1012F0000BB60F920CB60F921F9211242F923F92B1
:101300004F925F926F927F928F929F92AF92BF9215
:10131000CF92DF92EF92FF920F931F932F933F9301
:101320004F935F936F937F938F939F93AF93BF93ED
:10133000CF93DF93EF93FF93A091F918B091FA1830
:101340000DB60D920EB60D9213BE0E94871281113A
:101350000E944F14A091F918B091FA18CD91CDBF09
:10136000DD91DEBFFF91EF91DF91CF91BF91AF9102
:101370009F918F917F916F915F914F913F912F91AD
:101380001F910F91FF90EF90DF90CF90BF90AF90A3
:101390009F908F907F906F905F904F903F902F9095
:1013A0001F900F900CBE0F900BBE0F900FBE0F90B2
:1013B00008959ADF18950FB6F8940F92FC01968D58
:1013C0000F900FBE81E0911180E008950F931F935D
:1013D000CF93DF93EC01042F1E8D48A141110CC067
:1013E00088819981892B09F042C08C819D810E945E
:1013F000A0161D821C8242C0011117C050E08A81D4
:101400009B810E94C52C28A18A819B81820F911DFE
:101410009B838A832C813D818217930750F18881B9
:1014200099819B838A8380E029C050E08E819F81CF
:101430000E94C52C88A190E09195819591092E81FB
:101440003F81280F391F3F832E83488159812417FC
:10145000350730F42C813D81820F931F9F838E834B
:10146000023049F4112349F0115080E007C080E0B8
:1014700005C080E003C080E001C080E01F5F1E8FD8
:10148000DF91CF911F910F910895FC0140A144235A
:10149000A9F050E026813781240F351F378326833A
:1014A000848195812817390720F080819181978365
:1014B0008683CB01668177810C94C52C0895EF92C9
:1014C000FF920F931F93CF938C010FB6F8940F9256
:1014D000FC01C2A11C16ACF48389811106C011C0A5
:1014E000F8018389811105C00CC07801F3E1EF0E8A
:1014F000F11CC7010E94291581110E941B16C150C1
:1015000079F78FEFF80182A30F900FBE0FB6F89412
:101510000F92C1A11C16ACF48085811106C011C0C8
:10152000F8018085811105C00CC07801F8E0EF0E4C
:10153000F11CC7010E94291581110E941B16C15080
:1015400079F78FEFF80181A30F900FBECF911F9114
:101550000F91FF90EF900895CF93DF93EC010FB6BA
:10156000F8940F92E881F9818F8D28A190E030E006
:10157000829FA001839F500D929F500D11244E0F0A
:101580005F1F5D834C831E8EFB83EA830197829FDE
:10159000A001839F500D929F500D1124CF01840F05
:1015A000951F9F838E838FEF89A38AA361110BC040
:1015B0008885882371F0CE0108960E94291588231A
:1015C00041F031DE06C0CE010896E5DCCE0143963F
:1015D000E2DC0F900FBE81E0DF91CF910895FF9282
:1015E0000F931F93CF93DF93082F162FF42E6623AC
:1015F000B9F0869FC00111248596E3DBEC010097CA
:1016000041F414C00F8F18A361E0CE01A5DFFCA246
:101610000DC0859699838883F5CFD983C883F2CF8F
:1016200085E290E0CEDBEC01892BB9F7CE01DF91AA
:10163000CF911F910F91FF9008959F92AF92BF920B
:10164000CF92DF92EF92FF920F931F93CF93DF938E
:10165000CDB7DEB729970FB6F894DEBF0FBECDBF6A
:101660007C015B012E833F834887598710E09924D2
:1016700093946C0188E0C80ED11C0FB6F8940F92B9
:10168000F701968D878D981710F00230B1F4402F36
:10169000B501C7019BDEF7019389992341F0C7018A
:1016A00043960E942915882321F0BDDD02C08111D7
:1016B000BADD0F900FBE81E04EC08E819F81A8855C
:1016C000B985892B8A2B8B2B21F40F900FBE80E0DC
:1016D00042C0111105C0CE0101960E94B515192D09
:1016E0000F900FBE00D70FB6F8940F92F70181A1AB
:1016F0008F3F09F411A2F70182A18F3F09F412A2D2
:101700000F900FBEBE016A5F7F4FCE0101960E940F
:10171000C61581111CC00FB6F8940F92F701968D73
:10172000878D0F900FBE98130EC04E815F81688524
:101730007985C6010E94CE14C701C1DEBDD78111D3
:101740009CCF71DD9ACFC701BADEB6D796CFC7015D
:10175000B6DEB2D780E029960FB6F894DEBF0FBE92
:10176000CDBFDF91CF911F910F91FF90EF90DF9050
:10177000CF90BF90AF909F9008950F93CF93DF933A
:10178000482F60E081E02BDFEC01009761F01D82C3
:101790001C82198218821E8200E020E030E0A9013C
:1017A00060E070E04ADFCE01DF91CF910F910895A4
:1017B000EF92FF920F931F93CF93DF938A01FC0167
:1017C000568D378D531710F02230E9F4422F7801EF
:1017D000EC011AA1FBDD1F3F81F48B898823A9F05E
:1017E000CE0143960E942915882389F0E114F10463
:1017F00081F081E0F70180830DC0FF24F394F10EA6
:10180000FAA281E007C080E005C081E003C081E06A
:1018100001C081E0DF91CF911F910F91FF90EF9078
:1018200008959F92AF92BF92CF92DF92EF92FF9274
:101830000F931F93CF93DF93CDB7DEB729970FB6E2
:10184000F894DEBF0FBECDBF8C015B012E833F83BA
:1018500048875987E12C992493946C0183E1C80E41
:10186000D11C0FB6F8940F92F801F68CFF2099F076
:10187000B501C8010ADEFA94F801F68E8085882346
:1018800031F0C80108960E9429158111CCDC0F9017
:101890000FBE81E04DC08E819F81A885B985892BBF
:1018A0008A2B8B2B21F40F900FBE80E041C0E110FA
:1018B00005C0CE0101960E94B515E92C0F900FBE10
:1018C00012D60FB6F8940F92F80181A18F3F09F458
:1018D00011A2F80182A18F3F09F412A20F900FBE4E
:1018E000BE016A5F7F4FCE0101960E94C61581112D
:1018F00016C0C80160DD882371F04E815F81688564
:101900007985C6010E94CE14C801D9DDD5D68111D2
:10191000A8CF89DCA6CFC801D2DDCED6A2CFC80120
:10192000CEDDCAD6C80147DD882309F49ACF80E00E
:1019300029960FB6F894DEBF0FBECDBFDF91CF91D1
:101940001F910F91FF90EF90DF90CF90BF90AF90DD
:101950009F900895BF92CF92DF92EF92FF920F93E4
:101960001F93CF93DF93CDB7DEB729970FB6F894C7
:10197000DEBF0FBECDBF8C014E835F836887798742
:10198000B12CD12CCC24C3947C0183E1E80EF11C52
:101990000FB6F8940F92D8015E968C915E978823CB
:1019A000E1F081505E968C935E978D919C91892B8E
:1019B00029F40E945417F80195838483D80118965E
:1019C0008C91882331F0C80108960E942915811155
:1019D0002ADC0F900FBE81E07AC08E819F81A8859E
:1019E000B985892B8A2B8B2B21F40F900FBE80E0B9
:1019F0006EC0D11005C0CE0101960E94B515DC2C39
:101A00000F900FBE70D50FB6F8940F92F80181A118
:101A10008F3F09F411A2D80192968C9192978F3F33
:101A200011F492961C920F900FBEBE016A5F7F4F19
:101A3000CE0101960E94C615811124C0C801BBDCED
:101A40008823E1F0F80180819181892B51F40FB650
:101A5000F8940F92848195810E943216B82E0F90CF
:101A60000FBE4E815F8168857985C70197D7C80110
:101A700026DD22D681118CCFD6DB8ACFC8011FDDAF
:101A80001BD686CFC8011BDD17D6C80194DC88237E
:101A900009F47ECFBB20D1F00FB6F8940F92F80175
:101AA0008389882339F0028CF38DE02D808164E0F6
:101AB000681B01C060E0D80114968D919C91159728
:101AC0000E94E0160F900FBE80E001C080E02996D2
:101AD0000FB6F894DEBF0FBECDBFDF91CF911F913F
:101AE0000F91FF90EF90DF90CF90BF900895CF932C
:101AF000DF93EC010FB6F8940F9289A18F3F09F4A0
:101B000019A28AA18F3F09F41AA20F900FBE8E8DE1
:101B1000811103C0CE0143967CD7CE01D0DCDF918A
:101B2000CF910895FC014481558122813381240F96
:101B3000351F80819181B901681B790BCB01641736
:101B4000750710F0841B950B0895AF92BF92CF924A
:101B5000DF92EF92FF920F931F93CF93DF936C016D
:101B60005B017A01FC01C281D381048115810C1BC8
:101B70001D0B4017510708F48A01F60184859585ED
:101B8000A801B5018C0F9D1F0E94C52C0E151F05C5
:101B900058F4A701401B510BB501600F711FF601EE
:101BA000848595850E94C52CCE018E0D9F1DF60162
:101BB000248135818217930710F0821B930BF60165
:101BC00093838283C701DF91CF911F910F91FF9083
:101BD000EF90DF90CF90BF90AF900895CF92DF92BB
:101BE000EF92FF920F931F93CF93DF931F921F9259
:101BF000CDB7DEB75A83498321153105C9F06B0192
:101C00007C01FC01868580FD08C0CA0124173507C8
:101C100008F4C9019A83898311C02017310758F04D
:101C200042E050E0BE016F5F7F4FC7018EDF06C00C
:101C300080E090E008C080E090E005C049815A81D2
:101C4000B601C70182DF0F900F90DF91CF911F91F6
:101C50000F91FF90EF90DF90CF900895AF92BF92D9
:101C6000CF92DF92EF92FF920F931F93CF93DF9368
:101C70007C015B01E9014217530708F4EA01209750
:101C800079F1F70100811181C480D580C01AD10A91
:101C9000CC15DD0508F46E01F70164857585600FCC
:101CA000711FA601C5010E94C52CCC16DD0658F493
:101CB000AE014C195D09F70164857585C5018C0D70
:101CC0009D1D0E94C52C0C0F1D1FF701848195815D
:101CD0000817190710F0081B190BF701118300836F
:101CE000CE01DF91CF911F910F91FF90EF90DF9088
:101CF000CF90BF90AF900895EF92FF921F93CF9334
:101D0000DF93EB0111E0413009F010E0209711F46E
:101D1000C1E0D0E07C012FEFE21AF20A419651D8DF
:101D2000009781F020E1FC0111922A95E9F79C01CE
:101D3000205F3F4FFC0135872487F582E482D783FB
:101D4000C6831687DF91CF911F91FF90EF90089582
:101D5000CF93DF93FC0127850FB6F8940F9280850F
:101D60009185892BD1F482859385892BC1F4868551
:101D70004681578164817581A485B58590E1EF0125
:101D800019929A95E9F7B587A48775836483578379
:101D900046838687278781E003C080E001C080E01A
:101DA0000F900FBEDF91CF910895FC012481358102
:101DB0008081918142815381820F931F0197841BFF
:101DC000950B8217930710F0821B930B08952F92A7
:101DD0003F924F925F926F927F928F929F92AF92BB
:101DE000BF92CF92DF92EF92FF920F931F93CF9308
:101DF000DF93CDB7DEB729970FB6F894DEBF0FBEDD
:101E0000CDBF5C011B012A010E831F832887398700
:101E1000FC01868580FF05C03A01F2E06F0E711C5F
:101E200001C03A018E819F81A885B985892B8A2BB3
:101E30008B2B09F435C0CE01019681D60FB6F894EC
:101E40000F92C501B2DF4C018615970520F580E0A1
:101E500090E00E94F118F3D6F501938782870F90E6
:101E60000FBECE80DF80E884F98400E010E020E03F
:101E700030E0A90160E070E0CB010E946617F50137
:101E800013861286BE016A5F7F4FCE0101967ED611
:101E90008823A1F202C00F900FBE8114910419F49F
:101EA000C50183DF4C0183019401A201B101C50189
:101EB00095DE7C01892BE1F0C50134DEF501268138
:101EC000378182179307A0F00ED3F50180859185A5
:101ED000892B69F08085918500E010E020E040E0EA
:101EE00050E0BA010E94F017F50111861086E4D384
:101EF000C70129960FB6F894DEBF0FBECDBFDF91A4
:101F0000CF911F910F91FF90EF90DF90CF90BF90F6
:101F1000AF909F908F907F906F905F904F903F9089
:101F20002F900895AF92BF92CF92DF92EF92FF92DF
:101F30000F931F93CF93DF93EC015B016A0179014B
:101F40008E8580FF04C08A010E5F1F4F01C08A0189
:101F5000CE012BDF9C01A601B501CE013FDE6C0155
:101F6000892BB9F0CE01DEDD2E813F8182179307E8
:101F700080F088859985892B61F08885998500E0B6
:101F800010E020E040E050E0BA010E946818198695
:101F90001886C601DF91CF911F910F91FF90EF90AE
:101FA000DF90CF90BF90AF9008954F925F926F9265
:101FB0007F928F929F92AF92BF92CF92DF92EF92D9
:101FC000FF920F931F93CF93DF931F921F92CDB772
:101FD000DEB75C012B013A0168017901FC018685BD
:101FE00080FD03C0812C912C04C06894882481F862
:101FF000912CC114D104E104F10431F10FB6F8942D
:102000000F92C5018FDD8C018816990640F080E0A3
:1020100090E00E94F11813D6F501918780870F9008
:102020000FBE80169106B0F000E010E020E030E036
:10203000A90160E070E0CB0149D7F5011186108657
:10204000C50170DD8C0103C0C5016CDD8C018016FB
:102050009106B8F581149104C1F0F501E080F1809A
:102060009801A401BE016F5F7F4FC501F7DD898133
:102070009A81081919096816790630F4F501F18278
:10208000E082612C712C01C03C019801A301B201D6
:10209000C501E4DD7C01892BB1F025D2F5018285F3
:1020A0009385892B61F08285938500E010E020E024
:1020B00040E050E0BA0194D7F50113861286FCD2B5
:1020C00002C0E12CF12CC7010F900F90DF91CF914E
:1020D0001F910F91FF90EF90DF90CF90BF90AF9046
:1020E0009F908F907F906F905F904F900895E091B8
:1020F000B518F091B618808181110CC08FEF9FEF59
:10210000DC018093821890938318A0938418B09375
:1021100085180895E091B518F091B6180780F085FC
:10212000E02D0084F185E02D82819381A481B58129
:102130008093821890938318A0938418B093851885
:1021400008958F929F92AF92BF92CF92DF92EF92BB
:10215000FF92CF936B017C01C42F80908C189090DC
:102160008D18A0908E18B0908F188091F9189091CA
:10217000FA1802960E943E088FEFC816D806E806A5
:10218000F80669F4CC2359F06091F9187091FA18A7
:102190006E5F7F4F81E998E10E94E0073FC0C80C65
:1021A000D91CEA1CFB1CE091F918F091FA18C282C4
:1021B000D382E482F582C814D904EA04FB0468F4EB
:1021C0006091F9187091FA188091B3189091B41831
:1021D0006E5F7F4F0E94010821C06091F9187091D5
:1021E000FA188091B5189091B6186E5F7F4F0E94D3
:1021F00001088091821890918318A0918418B09161
:102200008518C816D906EA06FB0640F4C092821863
:10221000D0928318E0928418F0928518CF91FF90A5
:10222000EF90DF90CF90BF90AF909F908F900895E8
:102230004F925F926F927F928F929F92AF92BF92D6
:10224000CF92DF92EF92FF920F93CF93DF934C01E7
:102250006B015A012901CA010E94E1063C01892B48
:1022600009F4F4C080E390E00E94E106EC01892BC0
:1022700099F07C8E6B8EA50165EA70E0C3010E9427
:10228000CE2C21E0A21AB1088B8D9C8DA80EB91E10
:10229000C114D10429F420C0C3010E949A07D6C0FA
:1022A000D6018C918D8F8C918823A1F0AE01425E76
:1022B0005F4FF6013196B8E0CB0ED11CCF012191D2
:1022C000DA012D93AD01DC018C91882319F0EC1516
:1022D000FD05A1F71CA201C01D8E043008F003E02B
:1022E0000A8F0FA318A66E01B2E0CB0ED11CC60157
:1022F0000E94DC07CE010E960E94DC07DB87CA87AE
:1023000084E090E0A0E0B0E0801B9109A109B10950
:102310008E879F87A88BB98BDF8BCE8B1AA619A6C9
:102320001BA61CA61DA61EA61FA6A201B401C501C0
:102330000E94650899838883E114F10419F0F7017C
:10234000D183C0830FB6F8940F92809190188F5F5D
:10235000809390188091F9189091FA18892BD1F5F3
:10236000D093FA18C093F91880919018813009F031
:1023700041C08DEC98E10E94CB0788ED98E10E9466
:10238000CB0783EE98E10E94CB078EEE98E10E9486
:10239000CB0782EC98E10E94CB0787EB98E10E9483
:1023A000CB0788EA98E10E94CB078DE998E10E946B
:1023B000CB0781E998E10E94CB0782EC98E19093EA
:1023C000B6188093B51887EB98E19093B418809372
:1023D000B31810C080918A1881110CC0E091F918CF
:1023E000F091FA18928D8A8D891720F0D093FA18FF
:1023F000C093F918809186188F5F809386188DA3FB
:102400008A8D90918B18981710F480938B18FBE0AD
:102410008F9FC0011124B6018353974E0E94E0079D
:102420000F900FBE80918A18882361F0E091F9180F
:10243000F091FA18928D8A8D981730F40E94130942
:1024400081E005C081E003C081E001C08FEFDF9132
:10245000CF910F91FF90EF90DF90CF90BF90AF9012
:102460009F908F907F906F905F904F900895EF9224
:10247000FF920F930F2EF0E8EF2EF8E1FF2EF02DD4
:1024800000E020E030E040EC50E06DE174E08DECE5
:1024900090E0CEDE813019F52AD7813001F5F8942D
:1024A0008FEF9FEFDC018093821890938318A093A5
:1024B0008418B093851881E080938A1810928C1844
:1024C00010928D1810928E1810928F18E091F918B2
:1024D000F091FA1881A50E9418050E94D7080F9163
:1024E000FF90EF90089580917F188F5F80937F1801
:1024F00008950FB6F8940F9260918C1870918D1812
:1025000080918E1890918F180F900FBE08959F9212
:10251000AF92BF92CF92DF92EF92FF920F931F93F1
:10252000CF93DF9380917F188111ADC0C0908C183C
:10253000D0908D18E0908E18F0908F188FEFC81AF9
:10254000D80AE80AF80AC0928C18D0928D18E09246
:102550008E18F0928F18C114D104E104F104B1F483
:102560008091B5189091B6182091B3183091B41895
:102570003093B6182093B5189093B4188093B3187D
:10258000809187188F5F80938718B1DD80918218C2
:1025900090918318A0918418B0918518C816D90617
:1025A000EA06FB0610F4B12C5DC0B12C0F2EFBE047
:1025B000AF2EF02D99249394E091B518F091B618B0
:1025C000808181110CC08FEF9FEFDC018093821816
:1025D00090938318A0938418B093851843C0E0911A
:1025E000B518F091B6180780F085E02DC085D1852B
:1025F0008A819B81AC81BD81C816D906EA06FB069B
:1026000048F48093821890938318A0938418B09311
:10261000851828C08E010E5F1F4FC8010E943E081A
:10262000888D998D892B21F0CE010E960E943E084F
:102630008A8D90918B18981710F480938B18A89E10
:10264000C0011124B8018353974E0E94E007E09126
:10265000F918F091FA189A8D828D981708F4ACCF7A
:10266000B92CAACFE091F918F091FA18E28D8BE01D
:10267000E89FF0011124E353F74E8081823048F047
:10268000BB24B39406C0809189188F5F809389180A
:10269000B12C80918818882311F0BB24B3948B2D22
:1026A000DF91CF911F910F91FF90EF90DF90CF902E
:1026B000BF90AF909F900895CF92DF92EF92FF92DC
:1026C0000F931F93CF93DF930FB6F8940F928091DF
:1026D0007F18815080937F1880917F1881115AC094
:1026E0008091901881112CC058C0D7011796ED9198
:1026F000FC911897C085D185CE010E960E943E08A8
:102700008E010E5F1F4FC8010E943E088A8D909176
:102710008B18981710F480938B18D89EC001112441
:10272000B8018353974E0E94E007E091F918F091A9
:10273000FA189A8D828D981788F0C09288180EC06A
:10274000C0E0D0E00F2EF8EAEF2EF8E1FF2EF02DDA
:102750000F2EFBE0DF2EF02DCC24C394F7018081F7
:102760008111C3CFCD2B09F0C2DCC0918918CC23D5
:1027700049F0D1E0CCDE8111D0938818C150D1F757
:102780001092891880918818882331F00E941309CB
:1027900081E003C080E001C080E00F900FBEDF91B8
:1027A000CF911F910F91FF90EF90DF90CF90089500
:1027B000CF92DF92EF92FF920F931F93CF93DF930D
:1027C000EC016A017B018FDE00918C1810918D184D
:1027D00020918E1830918F1888819981AA81BB81B0
:1027E000AC01BD014C0D5D1D6E1D7F1D0817190745
:1027F0002A073B0778F4481759076A077B0740F513
:10280000488359836A837B83041715072607370794
:10281000A0F40BC0481759076A077B07A0F00417FC
:1028200015072607370778F013C0CB01BA01601BE4
:10283000710B820B930B40E084DC3EDF81110DC0F5
:102840000E9413090AC0488359836A837B83EDCFB2
:10285000488359836A837B83F0CFDF91CF911F91A7
:102860000F91FF90EF90DF90CF900895CF92DF927D
:10287000EF92FF926B017C01672B682B692B41F073
:1028800032DE40E0C701B6015CDC16DF811102C018
:102890000E941309FF90EF90DF90CF9008958091F0
:1028A0007F18882321F081E0809388180895109282
:1028B0008818E091F918F091FA1881A50E94220574
:1028C000A091F918B091FA18E091F918F091FA185E
:1028D0002D913C91838D948D8217930758F06091D0
:1028E000F9187091FA188091F9189091FA18635EAE
:1028F0007F4F20D680918B18282F30E09BE0899F56
:10290000F0011124E353F74E908191110EC04BE07A
:102910008150282F30E0429FF001439FF00D112499
:10292000E353F74E9081992399F39BE0929FA00186
:10293000939F500D1124DA01A353B74E1196ED91D8
:10294000FC9112970480F581E02D1296FC93EE9392
:1029500011974053574EE417F50729F444815581E8
:10296000FD01528341839BE0929FF001939FF00D04
:102970001124E353F74E0180F281E02D208531854B
:102980003093FA182093F91880938B18E091F91876
:10299000F091FA1881A50C9418050895CF92DF9252
:1029A000EF92FF926A017B016091F9187091FA1819
:1029B000625F7F4F0E94010841E0C701B601C1DBA1
:1029C000FF90EF90DF90CF900895CF92DF92EF923B
:1029D000FF920F931F9368017901E091F918F0912C
:1029E000FA18706846875787608B718B6091F91869
:1029F0007091FA18625F7F4F0E94E00741E0C701C3
:102A0000B6019FDB1F910F91FF90EF90DF90CF9069
:102A10000895CF92DF92EF92FF92CF936A017B01EC
:102A2000C22F6091F9187091FA18625F7F4F0E946F
:102A3000E007CC2321F0CC24CA94DC2C76014C2F67
:102A4000C701B6017EDBCF91FF90EF90DF90CF9072
:102A500008950F931F93CF93DF93DC011796ED91A9
:102A6000FC911897C085D1858E01025F1F4FC80168
:102A70000E943E0880917F18811116C00C501109E8
:102A8000C8010E943E088A8D90918B18981710F407
:102A900080938B18BBE08B9FC0011124B801835336
:102AA000974E0E94E00705C0B80188EA98E10E94AD
:102AB000E007E091F918F091FA189A8D828D891744
:102AC00020F481E08093881801C080E0DF91CF91ED
:102AD0001F910F9108950F931F93CF93DF93706809
:102AE000FC014083518362837383C085D1850E943A
:102AF0003E088E010E5F1F4FC8010E943E088A8D5E
:102B000090918B18981710F480938B18FBE08F9F8F
:102B1000C0011124B8018353974E0E94E007E09151
:102B2000F918F091FA189A8D828D891718F481E0BE
:102B300080938818DF91CF911F910F9108950FB660
:102B4000F8940F9220918718FC01208340918C18F3
:102B500050918D1860918E1870918F184183528317
:102B6000638374830F900FBE089520918718FC0132
:102B7000208340918C1850918D1860918E1870911F
:102B80008F1841835283638374830895CF92DF92B9
:102B9000EF92FF920F931F93CF93DF93FB010FB63A
:102BA000F8940F9240918C1850918D1860918E1866
:102BB00070918F1800811181228133810F3FAFEF17
:102BC0001A072A073A0749F1EC01C980DA80EB803D
:102BD000FC80A0918718B881BA1729F04C155D05C3
:102BE0006E057F05E0F44C195D096E097F094017F9
:102BF00051076207730758F4041B150B260B370B9C
:102C00000083118322833383B0DF80E009C0108208
:102C100011821282138281E003C080E001C081E052
:102C20000F900FBEDF91CF911F910F91FF90EF900A
:102C3000DF90CF90089581E0809388180895809167
:102C4000F9189091FA18089580918A18882331F024
:102C500080917F18882321F080E0089581E0089515
:102C600082E008950F931F93CF93DF93FC01892B8C
:102C700009F460C0828DA091F918B091FA185A96A3
:102C80009C91891708F04AC04685578560897189EB
:102C9000772394F0A091F918B091FA185A969C9164
:102CA00044E050E060E070E0491B5109610971099E
:102CB00046875787608B718B2BE0829FC001112460
:102CC0008353974E2485358528173907F1F48F01F2
:102CD000EF012296CE010E943E08E091F918F09192
:102CE000FA18828DF801828F90918B18981710F442
:102CF00080938B18FBE08F9FC0011124BE0183538A
:102D0000974E0E94E00781E016C0A091F918B0919B
:102D1000FA185A968C91828F81E00DC0A091F91813
:102D2000B091FA1881E027A15A969C91291718F0C2
:102D300080E001C080E0DF91CF911F910F91089555
:102D40000F931F93CF93DF93FC01892B79F180A51B
:102D5000815080A7228D97A1291751F181112AC096
:102D6000EF018F010E5F1F4FC8010E943E088FA127
:102D70008A8F44E050E060E070E0481B510961092F
:102D800071094E875F87688B798B90918B189817A4
:102D900010F480938B182BE0829FC0011124B8019E
:102DA0008353974E0E94E00781E005C080E003C096
:102DB00080E001C080E0DF91CF911F910F910895D5
:102DC0000F931F93CF93DF93FC01892B09F43FC02E
:102DD00087A1861708F4862F928D9817C1F120A538
:102DE0002130A9F5828F46855785608971897723BF
:102DF00064F044E050E060E070E0481B5109610974
:102E0000710946875787608B718B2BE0929FC001B9
:102E100011248353974E2485358528173907B9F433
:102E2000EF018F010E5F1F4FC8010E943E088A8D7F
:102E300090918B18981710F480938B182BE0829F39
:102E4000C0011124B8018353974E0E94E007DF911F
:102E5000CF911F910F910895CF92DF92EF92FF9241
:102E6000E091F918F091FA18668577858089918943
:102E7000E091F918F091FA18A091F918B091FA18A8
:102E80005A962C91C12CD12C76016894C2F8C21AA2
:102E9000D108E108F108C686D786E08AF18AFF905A
:102EA000EF90DF90CF9008958091F9189091FA18E3
:102EB000892B39F0E091F918F091FA1880A58F5F0D
:102EC00080A78091F9189091FA1808954F925F9217
:102ED0006F927F928F929F92AF92BF92CF92DF922A
:102EE000EF92FF920F931F9349015A010FB6F89486
:102EF0000F92E091F918F091FA1827A5223039F1D4
:102F0000E091F918F091FA1843A454A465A476A4AA
:102F1000DC01CB0180959095A095B09584219521F9
:102F2000A621B72183A794A7A5A7B6A7E091F91872
:102F3000F091FA1881E087A7C114D104E104F104EB
:102F400031F041E0C701B601FCD80E9413090F908F
:102F50000FBE0FB6F8940F920115110569F0E091BC
:102F6000F918F091FA1883A594A5A5A5B6A5F801BE
:102F700080839183A283B383E091F918F091FA18CA
:102F800087A58230B1F4E091F918F091FA1883A581
:102F900094A5A5A5B6A580949094A094B0948822F9
:102FA0009922AA22BB2283A694A6A5A6B6A681E052
:102FB00001C080E0E091F918F091FA1817A60F907F
:102FC0000FBE1F910F91FF90EF90DF90CF90BF90B9
:102FD000AF909F908F907F906F905F904F900895EB
:102FE0000F931F93CF93DF93FC010FB6F8940F92CA
:102FF0000115110549F083A594A5A5A5B6A5E8017D
:1030000088839983AA83BB8387A592E097A7223000
:10301000B1F018F4213031F02AC02330E9F0243027
:1030200001F125C003A514A525A536A5402B512BDC
:10303000622B732B43A754A765A776A718C043A597
:1030400054A565A576A54F5F5F4F6F4F7F4F43A790
:1030500054A765A776A70BC043A754A765A776A773
:1030600006C0823049F143A754A765A776A78130EF
:1030700029F5EF018F010E5F1F4FC8010E943E0826
:103080008A8D90918B18981710F480938B182BE0F1
:10309000829FC0011124B8018353974E0E94E0071C
:1030A000E091F918F091FA189A8D828D891740F401
:1030B0000E94130981E005C080E003C081E001C0E7
:1030C00081E00F900FBEDF91CF911F910F91089576
:1030D000EF92FF920F931F93CF93DF93FC010115A3
:1030E000110549F083A594A5A5A5B6A5E801888397
:1030F0009983AA83BB8387A592E097A72230B1F07A
:1031000018F4213031F02AC02330E9F0243001F1E5
:1031100025C003A514A525A536A5402B512B622B50
:10312000732B43A754A765A776A718C043A554A53A
:1031300065A576A54F5F5F4F6F4F7F4F43A754A79D
:1031400065A776A70BC043A754A765A776A706C0B7
:103150008230D9F143A754A765A776A78130B9F586
:10316000EF0180917F18811117C08F010E5F1F4FF3
:10317000C8010E943E088A8D90918B18981710F410
:1031800080938B18EBE08E9FC0011124B80183530C
:10319000974E0E94E00707C0BF01625F7F4F88EA39
:1031A00098E10E94E007E091F918F091FA189A8DE1
:1031B000828D891770F4E114F10419F081E0E701C0
:1031C000888381E08093881805C080E003C081E097
:1031D00001C081E0DF91CF911F910F91FF90EF909F
:1031E0000895009721F48091F9189091FA180FB67C
:1031F000F8940F92FC0127A5223019F417A681E05C
:1032000001C080E00F900FBE0895CF92DF92EF9241
:10321000FF920F931F93FC01428353836483758352
:10322000938782870417150726073707C0F00C1904
:103230001D092E093F0986859785A089B189081740
:1032400019072A073B0700F5BF016E5F7F4F80918A
:103250000319909104190E94010880E018C00C1510
:103260001D052E053F0528F44C155D056E057F05EF
:1032700068F4BF016E5F7F4F809105199091061928
:103280000E94010880E003C081E001C081E01F913D
:103290000F91FF90EF90DF90CF9008950FB6F894C4
:1032A0000F928091011990910219892BE9F482E122
:1032B00099E10E94CB0787E099E10E94CB0782E168
:1032C00099E1909306198093051987E099E190930D
:1032D00004198093031940E067E08AE00E94EF0A36
:1032E00090930219809301190F900FBE0895EF92E9
:1032F000FF920F93D3DF8091011990910219892BCE
:1033000091F00F2EFFEFEF2EF8E1FF2EF02D03E0EE
:1033100020E030E045E550E062E274E084E091E0D6
:103320000E94181101C080E00F91FF90EF90089566
:103330008F929F92AF92BF92CF92DF92EF92FF92C5
:103340000F931F93CF93DF93CDB7DEB727970FB6B9
:10335000F894DEBF0FBECDBFE0910119F0910219C4
:10336000309781F169832A833B834C835D839F83FC
:103370008E836630F4F468DC823069F400E0A701E3
:103380009601BE016F5F7F4F8091011990910219E4
:103390000E941D0B18C000E020E030E0A901BE0132
:1033A0006F5F7F4F80910119909102190E941D0B50
:1033B0000AC020E0A801BE016F5F7F4FCF010E94CD
:1033C000D80B01C080E027960FB6F894DEBF0FBE81
:1033D000CDBFDF91CF911F910F91FF90EF90DF90C4
:1033E000CF90BF90AF909F908F9008952F923F9273
:1033F0004F925F926F927F928F929F92AF92BF9205
:10340000CF92DF92EF92FF920F931F93CF93DF93B0
:103410001C016FD82B013C018091FB189091FC1886
:10342000A091FD18B091FE18481659066A067B0651
:1034300008F053C03BC00780F085E02D808091806C
:10344000A280B380C085D1858E010E5F1F4FC80159
:103450000E943E08EC89FD89CE0119958F8982FF73
:1034600025C08E859F85A889B989880D991DAA1DBB
:10347000BB1D88169906AA06BB0670F48A839B8337
:10348000AC83BD83DB87CA87B80180910519909111
:1034900006190E9401080AC0C12CD12C760100E057
:1034A00010E0A501940160E0CE0142DFE091051932
:1034B000F091061980818111BECF809103199091FE
:1034C00004199093061980930519F0930419E09359
:1034D000031981E0F101808302C0F1011082409262
:1034E000FB185092FC186092FD187092FE18C301F0
:1034F000B201DF91CF911F910F91FF90EF90DF907C
:10350000CF90BF90AF909F908F907F906F905F9083
:103510004F903F902F9008950895279A2F9A2FEF5C
:1035200080E792E0215080409040E1F700C0000029
:103530001F9AF5CF279A2F9A2FEF87EA91E621500D
:1035400080409040E1F700C000001F9AF5CF0F2E99
:10355000FAE62F2EF6E03F2EF02D0F2EFFEA6F2E0B
:10356000F4E07F2EF02D0F2EF1EB8F2EF4E09F2E46
:10357000F02DCAECD4E00F2EF2EDAF2EF4E0BF2E0A
:10358000F02D0F2EF4ED4F2EF4E05F2EF02D0F2EC8
:10359000F4EFCF2EDD24D394E12CF12CF02D01E0BB
:1035A00021E042E050E060E070E080917E1A90916E
:1035B0007F1A0E943B0561FFEACFDED1282F30E061
:1035C00030938F1A20938E1A232B81F01F928F93A2
:1035D0008AE294E09F938F933F922F920E94242D32
:1035E0000F900F900F900F900F900F906CE370E082
:1035F00080E090E03BD9D5D1282F30E030938F1A6E
:1036000020938E1A232B81F01F928F938CE694E0E7
:103610009F938F933F922F920E94242D0F900F9093
:103620000F900F900F900F90CDD10E949004DFD19A
:103630000E94D6040E9479047F926F92CCD07F932F
:103640006F939F928F92DF93CF930E94242D0E94BD
:10365000BF04BF92AF92BFD07F936F935F924F92A0
:10366000DF93CF930E94242D48E050E060E070E0AB
:1036700080917C1A90917D1A0E94FB0566E970E0AA
:1036800080E090E0F3D88DB79EB740960FB6F894DF
:103690009EBF0FBE8DBF7BCFEF92FF920F9354D191
:1036A000E12CF12C03E020E030E048E851E06BEE43
:1036B00074E087EA9AE10E9418110F91FF90EF9051
:1036C00008950F938091821A9091831A892B89F41F
:1036D00081E00E94BD0B9093831A8093821A009719
:1036E00041F000E020E030E0A90160E070E00E94DD
:1036F0001D0B80917A1A90917B1A892B89F481E0B5
:103700000E94BD0B90937B1A80937A1A009741F028
:1037100000E020E030E0A90160E070E00E941D0BB5
:103720008091801A9091811A892B89F481E00E94FE
:10373000BD0B9093811A8093801A009741F000E0AE
:1037400020E030E0A90160E070E00E941D0B0E94C3
:103750000405A2DF0E94B2020F9108950E9428057D
:1037600090937F1A80937E1A892B21F487EF94E03F
:103770000E94372D0E94280590937D1A80937C1A11
:10378000892B21F487EF94E00C94372D089581B1B3
:10379000816881B90E94120580E00E94DC27DEDF8B
:1037A00090DF85E072D060E070E081E00DD483E0CE
:1037B0000C942C040895EBDF8BE595E00E94372DE7
:1037C0000E943712C1E6D5E0DF93CF930E94242DEB
:1037D0000F900F90F9CF04D06894B11150C00895A4
:1037E00033D088F09F5790F0B92F9927B751A0F0A8
:1037F000D1F0660F771F881F991F1AF0BA95C9F785
:1038000012C0B13081F03AD0B1E0089537C0672FCF
:10381000782F8827B85F39F0B93FCCF38695779534
:103820006795B395D9F73EF490958095709561951D
:103830007F4F8F4F9F4F089557FD9058440F551F4E
:1038400059F05F3F71F04795880F97FB991F61F022
:103850009F3F79F087950895121613061406551F99
:10386000F2CF4695F1DF08C0161617061806991F05
:10387000F1CF86957105610508940895E894BB27FA
:1038800066277727CB0197F90895E0E9FAE129E364
:1038900033E2318320832CE333E23383228327E432
:1038A00033E2358324832BE433E23783268321E517
:1038B00033E2318720872DE533E23387228722E602
:1038C00033E2358724872EE633E2378726872EE4D6
:1038D00033E2318B208B23E733E2338B228B20E8DA
:1038E00033E2358B248B682FCF013AC108956530C0
:1038F000F1F4FA0180818F7390E0982F882721815D
:10390000822B90930902809308028281F0E48F9FBA
:10391000C0011124FA01238126952695822B9093CC
:1039200007028093060281E080931D190895643098
:1039300051F080E090E49093070280930602909308
:1039400009028093080208950F931F9307E71CE173
:1039500020E034E244EF50E060E087E20E94162865
:1039600090931F1980931E1921E0892B09F020E004
:10397000822F1F910F91089580911E1990911F1908
:10398000009759F040E060E070E00E9467288430C2
:1039900031F410921D1980E0089582E0089583E0CB
:1039A000089580911E1990911F19009739F064E0D5
:1039B0000E94B328853021F083E0089582E00895C5
:1039C00080E00895609108027091090280E090E023
:1039D0000E94912A20E030E048EC52E40E94F62A4E
:1039E00020E038EF4FE756E40C94262A08956091C2
:1039F00006027091070280E090E00E94912A20E088
:103A000030E045E253E40E94F62A20E038EF4FE729
:103A100056E40E94262A20E030E040E252E40C9472
:103A2000BF290895CF93DF9390E0FC01EE0FFF1FB5
:103A3000E80FF91FEE0FFF1FE05EF64E2381211104
:103A40000AC0EF01E091981AF091991A6A81888171
:103A50009981199512C0DC01AA0FBB1FED01C80F97
:103A6000D91FCC0FDD1FC05ED64EE091A21AF09197
:103A7000A31A6A81888199811995DF91CF91089560
:103A8000CF93DF9390E0FC01EE0FFF1FE80FF91FCB
:103A9000EE0FFF1FE05EF64E238121110AC0EF01F9
:103AA000E091A21AF091A31A6A81888199811995EF
:103AB00012C0DC01AA0FBB1FED01C80FD91FCC0F2C
:103AC000DD1FC05ED64EE091981AF091991A6A8176
:103AD000888199811995DF91CF9108950F2EF0E992
:103AE000CF2EFAE1DF2EF02D04E0C0E2D9E110E0A4
:103AF0008C81813069F0E8F0823039F5D6011C966E
:103B0000ED91FC911D976A818881998119951DC05D
:103B10008D818F5F8A3010F48D8317C01D82D6018E
:103B20001C96ED91FC911D976A8188819981199568
:103B30000CC08D81882331F0812FA2DF8D818150CF
:103B40008D8303C00C83812F6DDF1F5F2696143099
:103B500079F665E070E080E090E00E943614C5CF11
:103B6000CF92DF92EF92FF920F931F93CF93DF9349
:103B7000062F0F2EF0E9EF2EFAE1FF2EF02DD701E0
:103B80001896ED91FC91199766E087E290E01995FF
:103B9000C0E2D9E10F2EF8E2CF2ED12CF02DD98240
:103BA000C88286E08A831B8214E01C8380E03ADFAF
:103BB000D7011896ED91FC91199767E087E290E0A4
:103BC0001995DF82CE8287E0888719861A8781E07F
:103BD00029DFD7011896ED91FC91199765E083E3F1
:103BE00090E01995D7011896ED91FC91199761E035
:103BF00084E390E0199584E390E09D878C8785E0CD
:103C00008E871F86188B82E00DDFD7011896ED9105
:103C1000FC91199764E081E091E01995D70118961D
:103C2000ED91FC91199761E082E091E0199582E0B5
:103C300091E09B8B8A8B1C8B1D8A1E8B83E0F2DEAE
:103C4000E12CF12C20E030E040EC50E062E875E03F
:103C50008EE69DE10E941811DF91CF911F910F9187
:103C6000FF90EF90DF90CF9008950F931F93CF9325
:103C7000DF93C82FD0E08E01000F111FD801AC0FC9
:103C8000BD1FAA0FBB1FA05EB64EE0919C1AF0911B
:103C90009D1A12966C9112978D919C911995C00F57
:103CA000D11FCC0FDD1FC05ED64E81E08C83DF912B
:103CB000CF911F910F9108950F931F93CF93DF938F
:103CC000C82FD0E08E01000F111FD801AC0FBD1F0F
:103CD000AA0FBB1FA05EB64EE0919C1AF0919D1AF0
:103CE00012966C9112978D919C911995C00FD11FCE
:103CF000CC0FDD1FC05ED64E82E08C83DF91CF916A
:103D00001F910F910895282F30E0F901EE0FFF1F4A
:103D1000E20FF31FEE0FFF1FE05EF64E93E0948379
:103D2000AFCE0895282F30E0F901EE0FFF1FE20F0C
:103D3000F31FEE0FFF1FE05EF64E94E0948372CE09
:103D4000089590E0FC01EE0FFF1FDF01A80FB91FDF
:103D5000AA0FBB1FA05EB64E24E015962C931597B4
:103D6000FD011482089590E0FC01EE0FFF1FDF01BA
:103D7000A80FB91FAA0FBB1FA05EB64E21E0159673
:103D80002C931597FD01148208950F931F93CF93E1
:103D9000DF931F921F92CDB7DEB78C0119822DC021
:103DA000E0919C19EC3250F481E08E0F80939C19C5
:103DB000F0E0E253F64E8A81808302C010929C1993
:103DC0008A818A30D1F440919C1950E0FA01E45381
:103DD000F64E1082415051099E012F5F3F4F6EEC0D
:103DE00079E180919F199091A0190E94920F898189
:103DF00081110E94130910929C19BE016E5F7F4FC2
:103E0000C80148D6882361F20F900F90DF91CF91BF
:103E10001F910F9108950F931F93CF93DF938C0100
:103E2000EB0180919F199091A0190E94A80EB801F2
:103E300088E399E10E94052D209779F0E8E3F9E104
:103E400001900020E9F7319780E290E09183808330
:103E5000BE0188E399E10E94FA2CE8E3F9E1DF0171
:103E60000D900020E9F711978DE09AE011969C9350
:103E70008E9312961C9201900020E9F73197E85337
:103E8000F941AE2F88E399E1AC016A2F8091A11925
:103E90009091A219AFD5811111C008E215E020E080
:103EA00030E04DE250E068E27AE180919F19909114
:103EB000A0190E94D50F88E29AE102C080E090E04C
:103EC000DF91CF911F910F9108952F923F924F92C2
:103ED0005F926F927F928F929F92AF92BF92CF929A
:103EE000DF92EF92FF920F931F93CF93DF935C01CA
:103EF000FC0101900020E9F731976F01C81AD90A37
:103F00005C2C0F2EF3E28F2EF8E09F2EF02DE12C8B
:103F1000F12C4C2C3701F40101811281E801099048
:103F20000020E9F72197C01BD10B3C2EF9E0CF16FA
:103F3000D10458F0F4012080FEE02F1206C0B80131
:103F4000C5010E94D52C892B09F5442D351408F4A0
:103F50004C2F50E0B801C5010E940C2D892B49F46B
:103F6000F301EE0FFF1FE60DF71DED5DF74F20800B
:103F70000DC08FEFE81AF80AE3E08E0E911CF1E114
:103F8000EF16F10439F66894222424F8822DDF918B
:103F9000CF911F910F91FF90EF90DF90CF90BF9046
:103FA000AF909F908F907F906F905F904F903F90D9
:103FB0002F90089530DF89CF089580919F199091B7
:103FC000A0190C94A80E08958F929F92AF92CF9251
:103FD000EF920F931F93CF93C82F8B0141E060E0C6
:103FE00070E088EC90E00E947C0E9093A019809382
:103FF0009F1910939E1900939D190F2EF5EC8F2E8B
:10400000FEE19F2EF02D6894AA24A6F86894CC2493
:10401000C6F8E12C00E023E040E051EE60E070E003
:104020008C2F2CD49093A2198093A119E091981A07
:10403000F091991A64E087E091E01995CF911F9172
:104040000F91EF90CF90AF909F908F90089588231D
:1040500049F0E091A21AF091A31A64E088E091E09F
:1040600019950895E091981AF091991A64E088E002
:1040700091E01995089560E070E089EA95E0CBDE63
:10408000E8E2FAE101900020E9F73197E852FA41BD
:1040900081E0759708F080E00895CF93DF93EC01FD
:1040A00060E070E08AEB95E0B6DEE8E2FAE10190CC
:1040B0000020E9F7E953FA4139F468E27AE1CE01E8
:1040C0000E94052D80E002C0188281E0DF91CF912F
:1040D0000895FC0101900020E9F79F012151310969
:1040E0002817390729F4BC0188EE95E063CF0895BD
:1040F00089E00895FC0101900020E9F79F0121511A
:1041000031092817390729F4BC0187EF95E052CF10
:10411000089589E00895FC0101900020E9F79F01CE
:10412000215231092817390729F4BC0186E096E0AD
:1041300041CF089589E0089560E070E085E496E05D
:1041400039CF08950F931F93E82FF0E0EE0FFF1F74
:10415000E15EF74F608171818EE496E02BDF811183
:1041600014C008E215E020E030E04DE250E068E2E3
:104170007AE180919F199091A0190E94D50F882310
:1041800021F088E29AE1A1DE03C088E29AE19DDE97
:104190001F910F9108950F931F93CF93DF931F9259
:1041A000CDB7DEB7DB0111969C911197953108F0E0
:1041B000B4C0992381F160E070E0272F30E0462FF2
:1041C00050E0FD01E40FF51F928192959F709A30A7
:1041D00010F0995C01C0905DF901E754F64E9083B0
:1041E0002F5F3F4FFD01E40FF51F92819F70492F14
:1041F00050E04A30510514F0995C01C0905DF9011E
:10420000E754F64E90837E5F6F5F11969C911197F5
:10421000691798F201C070E0E72FF0E0E754F64E1E
:1042200010824C91811103C087E596E002C089E5B8
:1042300096E029EB39E13F932F931F924F939F9381
:104240008F938DE596E09F938F938BEF99E19F93EA
:104250008F930E94672D60E070E08BEF99E1AADEFA
:104260000FB6F894DEBF0FBECDBF811159C008E272
:1042700015E020E030E04DE250E068E27AE1809124
:104280009F199091A0190E94D50F882309F447C067
:1042900088E29AE11ADE8E3009F042C087E0898315
:1042A00080919D1990919E19892BA9F1BE016F5F94
:1042B0007F4F88E29AE168D18093A319E981F0E009
:1042C000E85DF54EDF010D900020E9F71197AE1B78
:1042D000BF0BAA2391F0BB27CD0101979C0112F4DB
:1042E0002F5F3F4F359527952093A419AF014F5F5E
:1042F0005F4F64E185EA99E173D101E010E020E0CD
:1043000030E046E150E063EA79E180919D199091B7
:104310009E190E94E70E8EE003C084E101C080E098
:104320000F90DF91CF911F910F910895813019F077
:104330006DE676E002C066E477E081E796E03ACE8B
:1043400008959F938F9382EA96E09F938F938BEFCC
:1043500099E19F938F930E94672D60E070E08BEF4F
:1043600099E128DE0F900F900F900F900F900F9013
:1043700008952F923F924F925F926F927F928F9209
:104380009F92AF92BF92CF92DF92EF92FF920F93E4
:104390001F93CF93DF93CDB7DEB7A0970FB6F894F6
:1043A000DEBF0FBECDBF6FEC76E08BED96E033DD68
:1043B0008CDD8111A3C080E2E1E2F2E0DE01119622
:1043C00001900D928A95E1F79E012F5F3F4F6901A1
:1043D000E12CF12C0F2EF7EEAF2EF6E0BF2EF02DD4
:1043E0000BEF19E10F2EF0E04F2EF7E05F2EF02DCE
:1043F0000F2EF7E18F2EF7E09F2EF02D0F2EF1E319
:104400006F2EF7E07F2EF02D3E2C2F2CFF92EF9297
:10441000BF92AF921F930F930E94672D60E070E0F0
:10442000C801F9DC52DD0F900F900F900F900F90A4
:104430000F90811163C032E03E15E8F4F6018381EC
:104440008F9382818F9381818F9380818F93FF924D
:10445000EF925F924F921F930F930E94672D60E03F
:1044600070E0C801D8DC31DD0FB6F894DEBF0FBEB6
:10447000CDBF811143C02F923F929F928F921F9385
:104480000F930E94672D60E070E0C801C4DC1DDD61
:104490000F900F900F900F900F900F9081112EC0E2
:1044A0002F923F927F926F921F930F930E94672DDE
:1044B00060E070E0C801AFDC08DD0F900F900F9056
:1044C0000F900F900F90811119C03FEFE31AF30A7C
:1044D00084E0C80ED11C98E0E916F10409F094CFED
:1044E00060E070E089E497E096DCEFDC811106C0C3
:1044F00060E070E08AE597E08EDCE7DCA0960FB61E
:10450000F894DEBF0FBECDBFDF91CF911F910F9109
:10451000FF90EF90DF90CF90BF90AF909F908F90E3
:104520007F906F905F904F903F902F900895EF9203
:10453000FF920F931F93CF93DF93EC018B017A01CE
:1045400081E0F4DE81110DC0CE01D4DD811109C0FE
:10455000C801E1DD811105C0C701BBDD811101C0CA
:10456000EBDDDF91CF911F910F91FF90EF900895B8
:1045700090E0FC01EE0FFF1F8E0F9F1FFC01ED5D11
:10458000F74F818192810895DC01009729F1FB01A9
:104590002081FC0101900020E9F73197E81BF90B1D
:1045A000822F90E0E817F907C8F080E008C0880F74
:1045B000382F330F330F830F8053890F2F5FFD0187
:1045C000E20FF11D908130ED390F3A3010F4911166
:1045D000EECFFB012083089580E0089580E00895E8
:1045E0000F931F93CF93DF93DC01EA012097E1F152
:1045F000FA0101900020E9F73197E41BF50B32979F
:1046000010F532C08D01040F151F30E0AE01420FCE
:10461000531FFA019081913428F09753592F5295E6
:10462000507F03C0592F5295507F2C0F3D1FF90129
:104630009181913410F0975301C09053950FF80178
:1046400090838F5F01C080E0282F220F482F50E019
:10465000FE0101900020E9F73197EC1BFD0B4E178E
:104660005F0710F48613CECFDF91CF911F910F918A
:104670000895FC0180810895FC01208181E090E093
:1046800002C0880F991F6A95E2F782230895FC0102
:10469000808186230895FC0160830895FC011082C7
:1046A0000895FC01408121E030E002C0220F331F59
:1046B0006A95E2F7242B20830895FC012081622B68
:1046C00060830895FC01408121E030E002C0220FA8
:1046D000331F6A95E2F7242720830895FC01208187
:1046E000622760830895FC01908121E030E002C0E0
:1046F000220F331F6A95E2F720952923208308951E
:10470000FC01908160956923608308958091581A17
:10471000860F8093581A90915B1A913079F028F0A7
:104720009230A9F0933019F108956F3F09F048C015
:104730001092581A81E080935B1A0895663809F048
:104740003FC01092571A82E080935B1A0895E0915F
:10475000571A81E08E0F8093571AF0E0EB5AF54E0E
:104760006083823069F583E080935B1A08959091AD
:10477000571A21E0290F2093571A963009F5811115
:104780000EC0E5E5FAE1808190E0982F882721812D
:10479000820F911D90935D1A80935C1A04C0109251
:1047A0005D1A10925C1A10925B1AE091591AF091FE
:1047B0005A1A309729F080915C1A90915D1A1995D8
:1047C00008958F929F92AF92CF92EF920F93CF93D3
:1047D000DF93EB010F2EF6E88F2EF3E29F2EF02DE4
:1047E0006894AA24A4F86894CC24C4F8E12C00E0CE
:1047F00023E040E855E260E070E040D090935F1A1B
:1048000080935E1AD0935A1AC093591ADF91CF91B0
:104810000F91EF90CF90AF909F908F900895CF938E
:10482000DF93CDB7DEB729970FB6F894DEBF0FBE82
:10483000CDBF89E0E1E4F2E09E012F5F3F4FD90157
:1048400001900D928A95E1F710925D1A10925C1A10
:1048500080915E1A90915F1A009731F0422F532F8A
:1048600069E0C8D080E001C082E029960FB6F894D4
:10487000DEBF0FBECDBFDF91CF9108952F923F9243
:104880004F925F926F927F928F929F92AF92CF9250
:10489000EF92FF920F931F93CF93DF93CDB7DEB7C5
:1048A000F82E2A013B0188E090E04AD78C018F2D39
:1048B00090E0880F991FFC01E05AF54E11830083A8
:1048C000FC01E65FFD4F80819181D8018D939C931F
:1048D0006C2D70E084E090E019D71C0161E070E07D
:1048E00086E090E013D77C014C2DB1012CD5F80166
:1048F000F582E4826A2D70E084E090E007D71C0125
:1049000061E070E086E090E001D77C014A2DB101C2
:104910001AD5D8011396FC92EE92129717969C9294
:104920008E921697FFB6F894ED91FC9111973697F9
:104930008081826080838D909C90C301B201F1D50B
:1049400020E030E040E051E451D69B01AC0160E052
:1049500074E284E79BE47AD520E030E040E85FE34E
:104960000ED50E94F01BF40132976083D801ED91BF
:10497000FC911197359788E98083ED91FC913497EC
:1049800086E08083FFBEC801DF91CF911F910F9118
:10499000FF90EF90CF90AF909F908F907F906F900F
:1049A0005F904F903F902F900895CF93DF93EC014D
:1049B000EA81FB81938182812581981B92238481E6
:1049C0009817A1F0938126952923A081B181A20F88
:1049D000B11D6C939F5F258192239383E881F981B8
:1049E000359780818062808380E001C082E0DF9122
:1049F000CF910895EF92FF920F931F93CF93DF9380
:104A00007C01DC011296ED91FC91139793818281D8
:104A1000981B858198238481891B861798F16623CA
:104A200041F1842F952FDC016150462F50E04F5FFC
:104A30005F4F480F591FE701EA81FB819381828113
:104A40002581981B92238481981779F08C9193810A
:104A500026952923608171818B01020F111DE801C8
:104A600088839F5F8581982393831196A417B50748
:104A700011F7D701ED91FC91359780818062808399
:104A800080E001C082E0DF91CF911F910F91FF90F4
:104A9000EF900895DC011496ED91FC9115979381A8
:104AA0008281981789F09281858186958923A081DA
:104AB000B181A80FB11D8C91DB018C939F5F858123
:104AC0009823928380E0089583E008951F920F92C7
:104AD0000FB60F9211240BB60F922F933F934F9363
:104AE0005F936F937F938F939F93AF93BF93CF9376
:104AF000DF93EF93FF93A091601AB091611A109722
:104B000011F16091C6001496ED91FC911597938177
:104B100082812581981B92238481981761F083817B
:104B200026952823C081D181C20FD11D68838F5F54
:104B30009581892383831696ED91FC911797309781
:104B400011F0CD011995FF91EF91DF91CF91BF91B8
:104B5000AF919F918F917F916F915F914F913F9115
:104B60002F910F900BBE0F900FBE0F901F901895B6
:104B70001F920F920FB60F9211240BB60F922F9324
:104B80008F939F93AF93BF93EF93FF93E091601A3E
:104B9000F091611A3097B9F00280F381E02D938192
:104BA00082819817B1F092818581282F269529233B
:104BB000A081B181A20FB11D2C919F5F89238283B7
:104BC0002093C6000BC0E1ECF0E080818F7D8083F4
:104BD00005C0E1ECF0E080818F7D8083FF91EF9153
:104BE000BF91AF919F918F912F910F900BBE0F901E
:104BF0000FBE0F901F9018951F920F920FB60F9235
:104C000011240BB60F922F933F934F935F936F93A3
:104C10007F938F939F93AF93BF93CF93DF93EF9344
:104C2000FF93A091621AB091631A109711F16091ED
:104C3000CE001496ED91FC91159793818281258188
:104C4000981B92238481981761F0838126952823ED
:104C5000C081D181C20FD11D68838F5F9581892367
:104C600083831696ED91FC911797309711F0CD0143
:104C70001995FF91EF91DF91CF91BF91AF919F91E6
:104C80008F917F916F915F914F913F912F910F90F5
:104C90000BBE0F900FBE0F901F9018951F920F9292
:104CA0000FB60F9211240BB60F922F938F939F93F1
:104CB000AF93BF93EF93FF93E091621AF091631A61
:104CC0003097B9F00280F381E02D938182819817AB
:104CD000B1F092818581282F26952923A081B18169
:104CE000A20FB11D2C919F5F892382832093CE0058
:104CF0000BC0E9ECF0E080818F7D808305C0E9EC9A
:104D0000F0E080818F7D8083FF91EF91BF91AF9123
:104D10009F918F912F910F900BBE0F900FBE0F9010
:104D20001F9018951F920F920FB60F9211240BB679
:104D30000F922F933F934F935F936F937F938F9334
:104D40009F93AF93BF93CF93DF93EF93FF93A09184
:104D5000641AB091651A109711F16091D6001496FB
:104D6000ED91FC911597938182812581981B922367
:104D70008481981761F0838126952823C081D18191
:104D8000C20FD11D68838F5F958189238383169617
:104D9000ED91FC911797309711F0CD011995FF9186
:104DA000EF91DF91CF91BF91AF919F918F917F91C3
:104DB0006F915F914F913F912F910F900BBE0F908C
:104DC0000FBE0F901F9018951F920F920FB60F9263
:104DD00011240BB60F922F938F939F93AF93BF9392
:104DE000EF93FF93E091641AF091651A3097B9F050
:104DF0000280F381E02D938182819817B1F0928136
:104E00008581282F26952923A081B181A20FB11D6C
:104E10002C919F5F892382832093D6000BC0E1ED04
:104E2000F0E080818F7D808305C0E1EDF0E080813E
:104E30008F7D8083FF91EF91BF91AF919F918F9173
:104E40002F910F900BBE0F900FBE0F901F901895D3
:104E50001F920F920FB60F9211240BB60F922F9341
:104E60003F934F935F936F937F938F939F93AF93F2
:104E7000BF93CF93DF93EF93FF93A091661AB09106
:104E8000671A109711F1609136011496ED91FC911B
:104E90001597938182812581981B9223848198178D
:104EA00061F0838126952823C081D181C20FD11D55
:104EB00068838F5F9581892383831696ED91FC919A
:104EC0001797309711F0CD011995FF91EF91DF9170
:104ED000CF91BF91AF919F918F917F916F915F9192
:104EE0004F913F912F910F900BBE0F900FBE0F90DF
:104EF0001F9018951F920F920FB60F9211240BB6A8
:104F00000F922F938F939F93AF93BF93EF93FF9342
:104F1000E091661AF091671A3097B9F00280F38138
:104F2000E02D938182819817B1F092818581282F9D
:104F300026952923A081B181A20FB11D2C919F5FDD
:104F400089238283209336010BC0E1E3F1E0808165
:104F50008F7D808305C0E1E3F1E080818F7D8083D8
:104F6000FF91EF91BF91AF919F918F912F910F90F2
:104F70000BBE0F900FBE0F901F901895CF93DF932D
:104F80001F92CDB7DEB7BE016F5F7F4F8091681A69
:104F90009091691A7FDD8111F6CF898190E00F90A1
:104FA000DF91CF910895682F8091681A9091691AC6
:104FB000FCDC80E090E008958F929F92AF92CF92B8
:104FC000EF920F93812C912C6894AA24A7F86894EF
:104FD000CC24C7F8E12C00E023E040E051EE60E093
:104FE00070E04CDC9093691A8093681AEAEAFAE15F
:104FF00082E192E091838083938382830F91EF908B
:10500000CF90AF909F908F9008958091781A8111E2
:105010000CC08CE08093B8008FEF8093BB0084E0DD
:105020008093BC0081E08093781A0895AF92BF927C
:10503000CF92DF92EF92FF920F931F93CF93DF9364
:10504000A82EB62E69017A0184E090E079D3EC01B4
:10505000892B61F1A88281E0B81212C0C701B601A4
:1050600020EA36E841E050E027D3DA01C901409751
:10507000A109B109B695A79597958795898311C020
:10508000C701B60120E83AE146E050E015D3DA0165
:10509000C9014097A109B109B695A795979587953C
:1050A00089831B830A838C2F9D2F02C080E090E0B0
:1050B000DF91CF911F910F91FF90EF90DF90CF90F4
:1050C000BF90AF9008958091BC0081700895FF92C9
:1050D0000F931F93CF93DF930097D1F14A30D0F510
:1050E000F42E8B01EC01EFDF811136C080916B1A39
:1050F00090916C1AC817D90741F087DF8981809396
:10510000B800D0936C1AC0936B1A81E08F0D809316
:105110006D1A8881880F80936E1AFF2089F0F8013C
:10512000AFE6BAE14FEF4F0D642F70E0CB0101966F
:10513000B801680F791F81918D93E617F707D9F7AA
:1051400088EF8093200285EA8093BC0084E005C04C
:1051500086E003C087E001C082E0DF91CF911F911C
:105160000F91FF9008951F93CF93DF93009729F13C
:105170006B3028F5162FEC01A6DF811122C080913B
:105180006B1A90916C1AC817D90741F03EDF8981DC
:105190008093B800D0936C1AC0936B1A10936D1A59
:1051A0008881880F816080936E1A88EF8093200237
:1051B00085EA8093BC0085E005C086E003C087E0F7
:1051C00001C082E0DF91CF911F9108951F920F924D
:1051D0000FB60F9211240BB60F922F933F934F935C
:1051E0005F936F937F938F939F93AF93BF93EF934F
:1051F000FF93E091B9008E2F90E0FC013897E135E4
:10520000F10508F075C08827E458FF4F8F4F76C22C
:1052100010926A1AE0916A1A80916D1AE81770F478
:1052200081E08E0F80936A1AF0E0E259F54E80819A
:105230008093BB0085E88093BC0072C084E98093B2
:10524000BC0080916B1A90916C1ADC011296ED9162
:10525000FC911397309709F463C020E040E050E0E0
:1052600064E019955DC0E0916A1A81E08E0F809329
:105270006A1A8091BB00F0E0E259F54E808380917C
:10528000B900803411F410926A1A20916A1A30E041
:1052900080916D1A90E001972817390724F485EC66
:1052A0008093BC003DC085E88093BC0039C08091EC
:1052B000BB00E0916A1AF0E0E259F54E808384E980
:1052C0008093BC0080916B1A90916C1ADC0112964D
:1052D000ED91FC911397309719F120916D1A4EE6DC
:1052E0005AE165E019951CC085EA8093BC0018C09E
:1052F0008091B9008093200284E08093BC0080916B
:105300006B1A90916C1ADC011296ED91FC91139737
:10531000309731F020E040E050E060912002199594
:10532000FF91EF91BF91AF919F918F917F916F917D
:105330005F914F913F912F910F900BBE0F900FBE39
:105340000F901F901895FC01411101C01AD3842FB2
:1053500090E09C012150310982239323892B09F08D
:1053600010D3413808F00DD3128213824483440FC6
:10537000415045837183608380E090E008955058E8
:10538000BB27AA270ED021C112D130F017D120F0AF
:1053900031F49F3F11F41EF407C10EF4E095E7FBD2
:1053A000FDC0E92F0E941C1C78F3BA17620773072F
:1053B0008407950720F079F4A6F50C943E1C0EF4B2
:1053C000E0950B2EBA2FA02D0B01B90190010C0115
:1053D000CA01A0011124FF27591B99F0593F50F42D
:1053E000503E68F11A16F040A22F232F342F442785
:1053F000585FF3CF469537952795A795F04053957D
:10540000C9F77EF41F16BA0B620B730B840BBAF04C
:105410009150A1F0FF0FBB1F661F771F881FC2F7B7
:105420000EC0BA0F621F731F841F48F487957795CB
:105430006795B795F7959E3F08F0B1CF9395880F84
:1054400008F09927EE0F9795879508950DD0BDC068
:10545000B5D048F0ACD038F021F45F3F21F09EC0C9
:1054600051110C943F1CA0C00E941C1C88F399236E
:10547000B9F35523A1F3951B550BBB27AA27621738
:105480007307840738F09F5F5F4F220F331F441F5D
:10549000AA1FA9F334D00E2E3AF0E0E831D0915093
:1054A0005040E695001CCAF72AD0FE2F28D0660F80
:1054B000771F881FBB1F261737074807AB07B0E8C1
:1054C00009F0BB0B802DBF01FF2793585F4F32F0CF
:1054D0009E3F510570F062C00C943F1C5F3FE4F3A7
:1054E000983ED4F3869577956795B795F7959F5F26
:1054F000C9F7880F911D9695879597F90895E1E072
:10550000660F771F881FBB1F621773078407BA07D0
:1055100020F0621B730B840BBA0BEE1F88F7E0952B
:105520000895E89409C097FB3EF490958095709596
:1055300061957F4F8F4F9F4F9923A9F0F92F96E9DF
:10554000BB279395F695879577956795B795F11154
:10555000F8CFFAF4BB0F11F460FF1BC06F5F7F4FF1
:105560008F4F9F4F16C0882311F096E911C0772303
:1055700021F09EE8872F762F05C0662371F096E80C
:10558000862F70E060E02AF09A95660F771F881FDB
:10559000DAF7880F9695879597F9089597F99F6799
:1055A00080E870E060E008959FEF80EC08950024AB
:1055B0000A941616170618060906089500240A9478
:1055C00012161306140605060895092E0394000CFE
:1055D00011F4882352F0BB0F40F4BF2B11F460FF8D
:1055E00004C06F5F7F4F8F4F9F4F08950CD0EDCF5A
:1055F000DEDF28F0E3DF18F0952309F0CFCFD4CF1A
:1056000011240C943F1C0E941C1C90F3959FC1F325
:10561000950F50E0551F629FF001729FBB27F00D60
:10562000B11D639FAA27F00DB11DAA1F649F6627B5
:10563000B00DA11D661F829F2227B00DA11D621F04
:10564000739FB00DA11D621F839FA00D611D221FBE
:10565000749F3327A00D611D231F849F600D211DA2
:10566000822F762F6A2F11249F57504092F0E9F035
:1056700088234AF0EE0FFF1FBB1F661F771F881F8E
:1056800091505040A9F79E3F510578F087CF0C9478
:105690003F1C5F3FE4F3983ED4F38695779567957A
:1056A000B795F795E7959F5FC1F7FE2B880F911D82
:1056B0009695879597F90895A1E21A2EAA1BBB1B10
:1056C000FD010DC0AA1FBB1FEE1FFF1FA217B307CE
:1056D000E407F50720F0A21BB30BE40BF50B661FE4
:1056E000771F881F991F1A9469F7609570958095A8
:1056F00090959B01AC01BD01CF010895EE0FFF1FF6
:10570000881F8BBF0790F691E02D19940F931F937C
:10571000CF93DF93869F8001879F100D969F100D7A
:105720001124C8010DD0EC01009721F0A80160E020
:1057300070E034D1CE01DF91CF911F910F91089588
:105740000F931F93CF93DF938230910510F482E083
:1057500090E0E091A81AF091A91A20E030E0A0E0D2
:10576000B0E0309719F140815181028113814817CF
:105770005907C8F08417950769F4109731F012960D
:105780000C93129713961C9327C00093A81A10939A
:10579000A91A22C02115310519F04217530718F430
:1057A0009A01BD01EF01DF01F801DBCF21153105C1
:1057B000F9F0281B390B2430310580F48A819B8154
:1057C0006115710521F0FB019383828304C09093DE
:1057D000A91A8093A81AFE01329644C0FE01E20F76
:1057E000F31F8193919322503109398328833AC062
:1057F0002091A61A3091A71A232B41F4209102027E
:10580000309103023093A71A2093A61A2091000228
:10581000309101022115310541F42DB73EB7409179
:10582000040250910502241B350BE091A61AF09159
:10583000A71AE217F307A0F42E1B3F0B281739070E
:1058400078F0AC014E5F5F4F2417350748F04E0FDC
:105850005F1F5093A71A4093A61A8193919302C099
:10586000E0E0F0E0CF01DF91CF911F910F9108951B
:10587000CF93DF93009709F481C0FC013297138224
:105880001282A091A81AB091A91A109781F42081D0
:105890003181820F931F2091A61A3091A71A2817E1
:1058A000390751F5F093A71AE093A61A67C0ED01E6
:1058B00020E030E0CE17DF0740F44A815B819E0193
:1058C00041155105F1F0EA01F5CFD383C283408140
:1058D0005181840F951FC817D90759F48881998180
:1058E000840F951F0296918380838A819B81938385
:1058F00082832115310529F4F093A91AE093A81A9F
:105900003DC0E901FB83EA8349915991C40FD51F3A
:10591000EC17FD0761F480819181840F951F029639
:10592000E90199838883828193819B838A83E0E064
:10593000F0E012968D919C911397009719F0FD015C
:10594000DC01F7CF8D919C9111979D012E5F3F4F08
:10595000820F931F2091A61A3091A71A2817390792
:1059600069F4309729F41092A91A1092A81A02C06B
:1059700013821282B093A71AA093A61ADF91CF9137
:10598000089581E090E0F8947DC3FB01DC0102C042
:1059900001900D9241505040D8F70895DC0101C0AC
:1059A0006D9341505040E0F70895FB01519155230C
:1059B000B1F0BF01DC01052E4D91442369F010D0F8
:1059C000D9F7CD010190002049F04D91411108D047
:1059D000C9F3FB014111EECF81E090E001970895FA
:1059E000402539F0403229F440294B57465E08F0F3
:1059F00018940895FB01DC010D900020E9F7119740
:105A000001900D920020E1F70895FB01DC01019067
:105A10000D920020E1F70895FB01DC014150504058
:105A200088F08D9181341CF08B350CF4805E61918F
:105A300061341CF06B350CF4605E861B611171F3F0
:105A4000990B0895881BFCCFCF93DF93CDB7DEB7BA
:105A5000AE014A5F5F4FFA0161917191AF01809190
:105A6000AC1A9091AD1A61D0DF91CF9108950F9348
:105A70001F93CF93DF93E091AC1AF091AD1A23817D
:105A800021FF1BC08C01D0E0C0E0F80181918F01A3
:105A90006091AC1A7091AD1ADB011896ED91FC91F2
:105AA0001997882331F01995892B79F3DFEFCFEF20
:105AB000ECCF8AE01995892B19F08FEF9FEF02C088
:105AC0008D2F9C2FDF91CF911F910F9108950F93F0
:105AD0001F93CF93DF93CDB7DEB72E970FB6F89411
